{
  "contractName": "CarboTag",
  "abi": [
    {
      "inputs": [
        {
          "internalType": "address",
          "name": "factory",
          "type": "address"
        }
      ],
      "payable": false,
      "stateMutability": "nonpayable",
      "type": "constructor"
    },
    {
      "anonymous": false,
      "inputs": [
        {
          "indexed": true,
          "internalType": "address",
          "name": "sender",
          "type": "address"
        },
        {
          "indexed": true,
          "internalType": "uint256",
          "name": "value",
          "type": "uint256"
        }
      ],
      "name": "EscrowFunded",
      "type": "event"
    },
    {
      "payable": true,
      "stateMutability": "payable",
      "type": "fallback"
    },
    {
      "constant": true,
      "inputs": [],
      "name": "accountCount",
      "outputs": [
        {
          "internalType": "uint256",
          "name": "",
          "type": "uint256"
        }
      ],
      "payable": false,
      "stateMutability": "view",
      "type": "function"
    },
    {
      "constant": true,
      "inputs": [
        {
          "internalType": "address",
          "name": "",
          "type": "address"
        }
      ],
      "name": "escrow",
      "outputs": [
        {
          "internalType": "uint256",
          "name": "transactionsCount",
          "type": "uint256"
        }
      ],
      "payable": false,
      "stateMutability": "view",
      "type": "function"
    },
    {
      "constant": true,
      "inputs": [],
      "name": "factory_addr",
      "outputs": [
        {
          "internalType": "address",
          "name": "",
          "type": "address"
        }
      ],
      "payable": false,
      "stateMutability": "view",
      "type": "function"
    },
    {
      "constant": true,
      "inputs": [
        {
          "internalType": "address",
          "name": "",
          "type": "address"
        }
      ],
      "name": "stampRegister",
      "outputs": [
        {
          "internalType": "bool",
          "name": "exists",
          "type": "bool"
        },
        {
          "internalType": "bool",
          "name": "active",
          "type": "bool"
        },
        {
          "internalType": "uint256",
          "name": "stamprate",
          "type": "uint256"
        },
        {
          "internalType": "uint256",
          "name": "minpmt",
          "type": "uint256"
        },
        {
          "internalType": "uint256",
          "name": "laststamp",
          "type": "uint256"
        }
      ],
      "payable": false,
      "stateMutability": "view",
      "type": "function"
    },
    {
      "constant": true,
      "inputs": [],
      "name": "stamperCount",
      "outputs": [
        {
          "internalType": "uint256",
          "name": "",
          "type": "uint256"
        }
      ],
      "payable": false,
      "stateMutability": "view",
      "type": "function"
    },
    {
      "constant": true,
      "inputs": [],
      "name": "totalGold",
      "outputs": [
        {
          "internalType": "uint256",
          "name": "",
          "type": "uint256"
        }
      ],
      "payable": false,
      "stateMutability": "view",
      "type": "function"
    },
    {
      "constant": true,
      "inputs": [],
      "name": "totalStamperGold",
      "outputs": [
        {
          "internalType": "uint256",
          "name": "",
          "type": "uint256"
        }
      ],
      "payable": false,
      "stateMutability": "view",
      "type": "function"
    },
    {
      "constant": true,
      "inputs": [],
      "name": "totalStamperTag",
      "outputs": [
        {
          "internalType": "uint256",
          "name": "",
          "type": "uint256"
        }
      ],
      "payable": false,
      "stateMutability": "view",
      "type": "function"
    },
    {
      "constant": true,
      "inputs": [],
      "name": "totalTag",
      "outputs": [
        {
          "internalType": "uint256",
          "name": "",
          "type": "uint256"
        }
      ],
      "payable": false,
      "stateMutability": "view",
      "type": "function"
    },
    {
      "constant": true,
      "inputs": [
        {
          "internalType": "address",
          "name": "",
          "type": "address"
        }
      ],
      "name": "wallet",
      "outputs": [
        {
          "internalType": "bool",
          "name": "registered",
          "type": "bool"
        },
        {
          "internalType": "string",
          "name": "name",
          "type": "string"
        },
        {
          "internalType": "int256",
          "name": "tag",
          "type": "int256"
        },
        {
          "internalType": "uint256",
          "name": "gold",
          "type": "uint256"
        }
      ],
      "payable": false,
      "stateMutability": "view",
      "type": "function"
    },
    {
      "constant": false,
      "inputs": [
        {
          "internalType": "string",
          "name": "name",
          "type": "string"
        }
      ],
      "name": "signUp",
      "outputs": [],
      "payable": false,
      "stateMutability": "nonpayable",
      "type": "function"
    },
    {
      "constant": true,
      "inputs": [
        {
          "internalType": "address",
          "name": "_sender",
          "type": "address"
        },
        {
          "internalType": "address",
          "name": "_receiver",
          "type": "address"
        }
      ],
      "name": "findEscrowAddr",
      "outputs": [
        {
          "internalType": "address payable",
          "name": "_escrow",
          "type": "address"
        }
      ],
      "payable": false,
      "stateMutability": "view",
      "type": "function"
    },
    {
      "constant": false,
      "inputs": [
        {
          "internalType": "address",
          "name": "_receiver",
          "type": "address"
        }
      ],
      "name": "createEscrow",
      "outputs": [
        {
          "internalType": "address payable",
          "name": "_escrowAddr",
          "type": "address"
        }
      ],
      "payable": false,
      "stateMutability": "nonpayable",
      "type": "function"
    },
    {
      "constant": false,
      "inputs": [
        {
          "internalType": "uint256",
          "name": "minpmt",
          "type": "uint256"
        }
      ],
      "name": "stampPmtAdjust",
      "outputs": [],
      "payable": false,
      "stateMutability": "nonpayable",
      "type": "function"
    },
    {
      "constant": false,
      "inputs": [
        {
          "internalType": "uint256",
          "name": "tag",
          "type": "uint256"
        }
      ],
      "name": "addTagToSelf",
      "outputs": [],
      "payable": false,
      "stateMutability": "nonpayable",
      "type": "function"
    },
    {
      "constant": false,
      "inputs": [
        {
          "internalType": "address",
          "name": "_receiver",
          "type": "address"
        },
        {
          "internalType": "int256",
          "name": "_tag",
          "type": "int256"
        },
        {
          "internalType": "int256",
          "name": "_gold",
          "type": "int256"
        }
      ],
      "name": "createTransaction",
      "outputs": [],
      "payable": true,
      "stateMutability": "payable",
      "type": "function"
    },
    {
      "constant": false,
      "inputs": [
        {
          "internalType": "address",
          "name": "_sender",
          "type": "address"
        },
        {
          "internalType": "address",
          "name": "_receiver",
          "type": "address"
        },
        {
          "internalType": "uint256",
          "name": "_txID",
          "type": "uint256"
        },
        {
          "internalType": "int256",
          "name": "_tag",
          "type": "int256"
        },
        {
          "internalType": "int256",
          "name": "_gold",
          "type": "int256"
        }
      ],
      "name": "acceptTransaction",
      "outputs": [],
      "payable": true,
      "stateMutability": "payable",
      "type": "function"
    },
    {
      "constant": false,
      "inputs": [
        {
          "internalType": "address",
          "name": "_counterparty",
          "type": "address"
        },
        {
          "internalType": "uint256",
          "name": "_txID",
          "type": "uint256"
        }
      ],
      "name": "rejectTransaction",
      "outputs": [],
      "payable": false,
      "stateMutability": "nonpayable",
      "type": "function"
    },
    {
      "constant": false,
      "inputs": [
        {
          "internalType": "address",
          "name": "target",
          "type": "address"
        },
        {
          "internalType": "bool",
          "name": "active",
          "type": "bool"
        },
        {
          "internalType": "uint256",
          "name": "stamprate",
          "type": "uint256"
        },
        {
          "internalType": "uint256",
          "name": "minpmt",
          "type": "uint256"
        }
      ],
      "name": "stampAdd",
      "outputs": [],
      "payable": false,
      "stateMutability": "nonpayable",
      "type": "function"
    },
    {
      "constant": false,
      "inputs": [
        {
          "internalType": "address",
          "name": "target",
          "type": "address"
        },
        {
          "internalType": "bool",
          "name": "active",
          "type": "bool"
        },
        {
          "internalType": "uint256",
          "name": "stamprate",
          "type": "uint256"
        }
      ],
      "name": "stampEdit",
      "outputs": [],
      "payable": false,
      "stateMutability": "nonpayable",
      "type": "function"
    },
    {
      "constant": false,
      "inputs": [],
      "name": "goldUpdate",
      "outputs": [],
      "payable": false,
      "stateMutability": "nonpayable",
      "type": "function"
    },
    {
      "constant": true,
      "inputs": [
        {
          "internalType": "address",
          "name": "_escrowAddr",
          "type": "address"
        },
        {
          "internalType": "uint256",
          "name": "_txID",
          "type": "uint256"
        }
      ],
      "name": "transactionData",
      "outputs": [
        {
          "internalType": "uint256",
          "name": "",
          "type": "uint256"
        }
      ],
      "payable": false,
      "stateMutability": "view",
      "type": "function"
    },
    {
      "constant": true,
      "inputs": [
        {
          "internalType": "address",
          "name": "_escrowAddr",
          "type": "address"
        },
        {
          "internalType": "uint256",
          "name": "from",
          "type": "uint256"
        },
        {
          "internalType": "uint256",
          "name": "to",
          "type": "uint256"
        }
      ],
      "name": "getTransactionIds",
      "outputs": [
        {
          "internalType": "uint256[]",
          "name": "_transactionIds",
          "type": "uint256[]"
        }
      ],
      "payable": false,
      "stateMutability": "view",
      "type": "function"
    },
    {
      "constant": true,
      "inputs": [],
      "name": "sumTokens",
      "outputs": [
        {
          "internalType": "uint256",
          "name": "",
          "type": "uint256"
        },
        {
          "internalType": "uint256",
          "name": "",
          "type": "uint256"
        },
        {
          "internalType": "uint256",
          "name": "",
          "type": "uint256"
        },
        {
          "internalType": "uint256",
          "name": "",
          "type": "uint256"
        }
      ],
      "payable": false,
      "stateMutability": "view",
      "type": "function"
    },
    {
      "constant": false,
      "inputs": [],
      "name": "killContract",
      "outputs": [],
      "payable": false,
      "stateMutability": "nonpayable",
      "type": "function"
    }
  ],
  "bytecode": "0x608060405234801561001057600080fd5b50604051613b58380380613b588339818101604052602081101561003357600080fd5b8101908080519060200190929190505050336000806101000a81548173ffffffffffffffffffffffffffffffffffffffff021916908373ffffffffffffffffffffffffffffffffffffffff16021790555080600160006101000a81548173ffffffffffffffffffffffffffffffffffffffff021916908373ffffffffffffffffffffffffffffffffffffffff16021790555050613a83806100d56000396000f3fe6080604052600436106101665760003560e01c8063766f1d3d116100d1578063bf4cf4ff1161008a578063d9a632e411610064578063d9a632e41461097c578063e4af29fc146109e3578063e534698814610a0e578063f6a8419e14610a2557610166565b8063bf4cf4ff14610863578063cccdd98b146108ba578063d1eb1d14146108fa57610166565b8063766f1d3d146105405780639d34652614610598578063a56cc43914610652578063a9f48f8d14610735578063adcfb4fc14610760578063b730a2be1461082857610166565b806357d3c7c31161012357806357d3c7c31461033e5780635c085589146103a35780636ae39f60146103fe5780636cfb4321146104af57806373b23b41146104ea57806375a674a71461051557610166565b80631c02708d146101685780631d31c4321461017f578063221a1e46146101aa57806331692e5e146102335780634e2ecd20146102a457806354da6d18146102cf575b005b34801561017457600080fd5b5061017d610ab6565b005b34801561018b57600080fd5b50610194610b28565b6040518082815260200191505060405180910390f35b3480156101b657600080fd5b506101f9600480360360208110156101cd57600080fd5b81019080803573ffffffffffffffffffffffffffffffffffffffff169060200190929190505050610b2e565b6040518086151515158152602001851515151581526020018481526020018381526020018281526020019550505050505060405180910390f35b34801561023f57600080fd5b506102a26004803603608081101561025657600080fd5b81019080803573ffffffffffffffffffffffffffffffffffffffff1690602001909291908035151590602001909291908035906020019092919080359060200190929190505050610b7e565b005b3480156102b057600080fd5b506102b9611054565b6040518082815260200191505060405180910390f35b3480156102db57600080fd5b50610328600480360360408110156102f257600080fd5b81019080803573ffffffffffffffffffffffffffffffffffffffff1690602001909291908035906020019092919050505061105a565b6040518082815260200191505060405180910390f35b34801561034a57600080fd5b5061038d6004803603602081101561036157600080fd5b81019080803573ffffffffffffffffffffffffffffffffffffffff1690602001909291905050506110bb565b6040518082815260200191505060405180910390f35b3480156103af57600080fd5b506103fc600480360360408110156103c657600080fd5b81019080803573ffffffffffffffffffffffffffffffffffffffff169060200190929190803590602001909291905050506110d9565b005b34801561040a57600080fd5b5061046d6004803603604081101561042157600080fd5b81019080803573ffffffffffffffffffffffffffffffffffffffff169060200190929190803573ffffffffffffffffffffffffffffffffffffffff1690602001909291905050506114bd565b604051808273ffffffffffffffffffffffffffffffffffffffff1673ffffffffffffffffffffffffffffffffffffffff16815260200191505060405180910390f35b3480156104bb57600080fd5b506104e8600480360360208110156104d257600080fd5b81019080803590602001909291905050506116d8565b005b3480156104f657600080fd5b506104ff6117eb565b6040518082815260200191505060405180910390f35b34801561052157600080fd5b5061052a6117f1565b6040518082815260200191505060405180910390f35b6105966004803603606081101561055657600080fd5b81019080803573ffffffffffffffffffffffffffffffffffffffff16906020019092919080359060200190929190803590602001909291905050506117f7565b005b3480156105a457600080fd5b506105fb600480360360608110156105bb57600080fd5b81019080803573ffffffffffffffffffffffffffffffffffffffff1690602001909291908035906020019092919080359060200190929190505050611e75565b6040518080602001828103825283818151815260200191508051906020019060200280838360005b8381101561063e578082015181840152602081019050610623565b505050509050019250505060405180910390f35b34801561065e57600080fd5b506106a16004803603602081101561067557600080fd5b81019080803573ffffffffffffffffffffffffffffffffffffffff169060200190929190505050611fe7565b604051808515151515815260200180602001848152602001838152602001828103825285818151815260200191508051906020019080838360005b838110156106f75780820151818401526020810190506106dc565b50505050905090810190601f1680156107245780820380516001836020036101000a031916815260200191505b509550505050505060405180910390f35b34801561074157600080fd5b5061074a6120bc565b6040518082815260200191505060405180910390f35b34801561076c57600080fd5b506108266004803603602081101561078357600080fd5b81019080803590602001906401000000008111156107a057600080fd5b8201836020820111156107b257600080fd5b803590602001918460018302840111640100000000831117156107d457600080fd5b91908080601f016020809104026020016040519081016040528093929190818152602001838380828437600081840152601f19601f8201169050808301925050505050505091929192905050506120c2565b005b34801561083457600080fd5b506108616004803603602081101561084b57600080fd5b81019080803590602001909291905050506122a7565b005b34801561086f57600080fd5b506108786124b6565b604051808273ffffffffffffffffffffffffffffffffffffffff1673ffffffffffffffffffffffffffffffffffffffff16815260200191505060405180910390f35b3480156108c657600080fd5b506108cf6124dc565b6040518085815260200184815260200183815260200182815260200194505050505060405180910390f35b61097a600480360360a081101561091057600080fd5b81019080803573ffffffffffffffffffffffffffffffffffffffff169060200190929190803573ffffffffffffffffffffffffffffffffffffffff16906020019092919080359060200190929190803590602001909291908035906020019092919050505061272e565b005b34801561098857600080fd5b506109e16004803603606081101561099f57600080fd5b81019080803573ffffffffffffffffffffffffffffffffffffffff16906020019092919080351515906020019092919080359060200190929190505050612d7c565b005b3480156109ef57600080fd5b506109f8612f44565b6040518082815260200191505060405180910390f35b348015610a1a57600080fd5b50610a23612f4a565b005b348015610a3157600080fd5b50610a7460048036036020811015610a4857600080fd5b81019080803573ffffffffffffffffffffffffffffffffffffffff169060200190929190505050613212565b604051808273ffffffffffffffffffffffffffffffffffffffff1673ffffffffffffffffffffffffffffffffffffffff16815260200191505060405180910390f35b6000809054906101000a900473ffffffffffffffffffffffffffffffffffffffff1673ffffffffffffffffffffffffffffffffffffffff163373ffffffffffffffffffffffffffffffffffffffff1614610b0f57600080fd5b3273ffffffffffffffffffffffffffffffffffffffff16ff5b60045481565b600b6020528060005260406000206000915090508060000160009054906101000a900460ff16908060000160019054906101000a900460ff16908060010154908060020154908060030154905085565b6000809054906101000a900473ffffffffffffffffffffffffffffffffffffffff1673ffffffffffffffffffffffffffffffffffffffff163373ffffffffffffffffffffffffffffffffffffffff1614610bd757600080fd5b60011515600860008673ffffffffffffffffffffffffffffffffffffffff1673ffffffffffffffffffffffffffffffffffffffff16815260200190815260200160002060000160009054906101000a900460ff16151514610ca0576040517f08c379a00000000000000000000000000000000000000000000000000000000081526004018080602001828103825260158152602001807f54617267657420646f6573206e6f74206578697374000000000000000000000081525060200191505060405180910390fd5b60001515600b60008673ffffffffffffffffffffffffffffffffffffffff1673ffffffffffffffffffffffffffffffffffffffff16815260200190815260200160002060000160009054906101000a900460ff16151514610d69576040517f08c379a000000000000000000000000000000000000000000000000000000000815260040180806020018281038252601b8152602001807f5374616d70657220616c726561647920726567697374657265642e000000000081525060200191505060405180910390fd5b60036000815480929190600101919050555083600d6000600354815260200190815260200160002060006101000a81548173ffffffffffffffffffffffffffffffffffffffff021916908373ffffffffffffffffffffffffffffffffffffffff1602179055506001600b60008673ffffffffffffffffffffffffffffffffffffffff1673ffffffffffffffffffffffffffffffffffffffff16815260200190815260200160002060000160006101000a81548160ff02191690831515021790555082600b60008673ffffffffffffffffffffffffffffffffffffffff1673ffffffffffffffffffffffffffffffffffffffff16815260200190815260200160002060000160016101000a81548160ff02191690831515021790555081600b60008673ffffffffffffffffffffffffffffffffffffffff1673ffffffffffffffffffffffffffffffffffffffff1681526020019081526020016000206001018190555080600b60008673ffffffffffffffffffffffffffffffffffffffff1673ffffffffffffffffffffffffffffffffffffffff1681526020019081526020016000206002018190555042600b60008673ffffffffffffffffffffffffffffffffffffffff1673ffffffffffffffffffffffffffffffffffffffff16815260200190815260200160002060030181905550600080600860008773ffffffffffffffffffffffffffffffffffffffff1673ffffffffffffffffffffffffffffffffffffffff168152602001908152602001600020600201541315610feb57600860008673ffffffffffffffffffffffffffffffffffffffff1673ffffffffffffffffffffffffffffffffffffffff1681526020019081526020016000206002015490505b80600560008282540192505081905550600860008673ffffffffffffffffffffffffffffffffffffffff1673ffffffffffffffffffffffffffffffffffffffff168152602001908152602001600020600301546007600082825401925050819055505050505050565b60055481565b6000600a60008473ffffffffffffffffffffffffffffffffffffffff1673ffffffffffffffffffffffffffffffffffffffff168152602001908152602001600020600101600083815260200190815260200160002060000154905092915050565b600a6020528060005260406000206000915090508060000154905081565b60011515600860003373ffffffffffffffffffffffffffffffffffffffff1673ffffffffffffffffffffffffffffffffffffffff16815260200190815260200160002060000160009054906101000a900460ff161515146111a2576040517f08c379a00000000000000000000000000000000000000000000000000000000081526004018080602001828103825260168152602001807f596f7520617265206e6f7420726567697374657265640000000000000000000081525060200191505060405180910390fd5b338282600073ffffffffffffffffffffffffffffffffffffffff166111c784846114bd565b73ffffffffffffffffffffffffffffffffffffffff16141580156112545750600a60006111f485856114bd565b73ffffffffffffffffffffffffffffffffffffffff1673ffffffffffffffffffffffffffffffffffffffff168152602001908152602001600020600101600082815260200190815260200160002060010160009054906101000a900460ff165b6112c6576040517f08c379a00000000000000000000000000000000000000000000000000000000081526004018080602001828103825260178152602001807f457363726f20545820646f6573206e6f7420657869737400000000000000000081525060200191505060405180910390fd5b60006112d233876114bd565b90508073ffffffffffffffffffffffffffffffffffffffff166320ea8d86866040518263ffffffff1660e01b815260040180828152602001915050600060405180830381600087803b15801561132757600080fd5b505af115801561133b573d6000803e3d6000fd5b505050506000600a60008373ffffffffffffffffffffffffffffffffffffffff1673ffffffffffffffffffffffffffffffffffffffff168152602001908152602001600020905060008160010160008881526020019081526020016000209050600081600401541315611421578060040154600860008360010160019054906101000a900473ffffffffffffffffffffffffffffffffffffffff1673ffffffffffffffffffffffffffffffffffffffff1673ffffffffffffffffffffffffffffffffffffffff168152602001908152602001600020600301600082825401925050819055505b8160010160008881526020019081526020016000206000808201600090556001820160006101000a81549060ff02191690556001820160016101000a81549073ffffffffffffffffffffffffffffffffffffffff02191690556002820160006101000a81549073ffffffffffffffffffffffffffffffffffffffff02191690556003820160009055600482016000905550505050505050505050565b60008073ffffffffffffffffffffffffffffffffffffffff16600960008573ffffffffffffffffffffffffffffffffffffffff1673ffffffffffffffffffffffffffffffffffffffff16815260200190815260200160002060008473ffffffffffffffffffffffffffffffffffffffff1673ffffffffffffffffffffffffffffffffffffffff16815260200190815260200160002060009054906101000a900473ffffffffffffffffffffffffffffffffffffffff1673ffffffffffffffffffffffffffffffffffffffff161461163257600960008473ffffffffffffffffffffffffffffffffffffffff1673ffffffffffffffffffffffffffffffffffffffff16815260200190815260200160002060008373ffffffffffffffffffffffffffffffffffffffff1673ffffffffffffffffffffffffffffffffffffffff16815260200190815260200160002060009054906101000a900473ffffffffffffffffffffffffffffffffffffffff1690506116d2565b600960008373ffffffffffffffffffffffffffffffffffffffff1673ffffffffffffffffffffffffffffffffffffffff16815260200190815260200160002060008473ffffffffffffffffffffffffffffffffffffffff1673ffffffffffffffffffffffffffffffffffffffff16815260200190815260200160002060009054906101000a900473ffffffffffffffffffffffffffffffffffffffff1690505b92915050565b60011515600b60003373ffffffffffffffffffffffffffffffffffffffff1673ffffffffffffffffffffffffffffffffffffffff16815260200190815260200160002060000160019054906101000a900460ff161515146117a1576040517f08c379a00000000000000000000000000000000000000000000000000000000081526004018080602001828103825260198152602001807f4f6e6c79207374616d706572732063616e206163636573732e0000000000000081525060200191505060405180910390fd5b80600b60003373ffffffffffffffffffffffffffffffffffffffff1673ffffffffffffffffffffffffffffffffffffffff1681526020019081526020016000206002018190555050565b60075481565b60035481565b60011515600860003373ffffffffffffffffffffffffffffffffffffffff1673ffffffffffffffffffffffffffffffffffffffff16815260200190815260200160002060000160009054906101000a900460ff161515146118c0576040517f08c379a00000000000000000000000000000000000000000000000000000000081526004018080602001828103825260168152602001807f596f7520617265206e6f7420726567697374657265640000000000000000000081525060200191505060405180910390fd5b3383600073ffffffffffffffffffffffffffffffffffffffff166118e483836114bd565b73ffffffffffffffffffffffffffffffffffffffff16141561196e576040517f08c379a00000000000000000000000000000000000000000000000000000000081526004018080602001828103825260108152602001807f4e6f20657363726f772077616c6c65740000000000000000000000000000000081525060200191505060405180910390fd5b3385846000811380156119c35750600860008473ffffffffffffffffffffffffffffffffffffffff1673ffffffffffffffffffffffffffffffffffffffff168152602001908152602001600020600301548111155b806119cf575060008113155b611a24576040517f08c379a00000000000000000000000000000000000000000000000000000000081526004018080602001828103825260238152602001806139e66023913960400191505060405180910390fd5b6000861315611a7e5785600860003373ffffffffffffffffffffffffffffffffffffffff1673ffffffffffffffffffffffffffffffffffffffff168152602001908152602001600020600301600082825403925050819055505b600087148015611a8e5750600086135b15611ae85785600860008a73ffffffffffffffffffffffffffffffffffffffff1673ffffffffffffffffffffffffffffffffffffffff16815260200190815260200160002060030160008282540192505081905550611e6b565b6000611af4338a6114bd565b90506000600a60008373ffffffffffffffffffffffffffffffffffffffff1673ffffffffffffffffffffffffffffffffffffffff168152602001908152602001600020905060008160000160008154809291906001019190505590506000826001016000838152602001908152602001600020905060018160010160006101000a81548160ff021916908315150217905550338160010160016101000a81548173ffffffffffffffffffffffffffffffffffffffff021916908373ffffffffffffffffffffffffffffffffffffffff1602179055508b8160020160006101000a81548173ffffffffffffffffffffffffffffffffffffffff021916908373ffffffffffffffffffffffffffffffffffffffff1602179055508981600401819055508a81600301819055506060338d848e8e604051602401808673ffffffffffffffffffffffffffffffffffffffff1673ffffffffffffffffffffffffffffffffffffffff1681526020018573ffffffffffffffffffffffffffffffffffffffff1673ffffffffffffffffffffffffffffffffffffffff168152602001848152602001838152602001828152602001955050505050506040516020818303038152906040527fd1eb1d14000000000000000000000000000000000000000000000000000000007bffffffffffffffffffffffffffffffffffffffffffffffffffffffff19166020820180517bffffffffffffffffffffffffffffffffffffffffffffffffffffffff8381831617835250505050905060003490508573ffffffffffffffffffffffffffffffffffffffff1663c64274743083856040518463ffffffff1660e01b8152600401808473ffffffffffffffffffffffffffffffffffffffff1673ffffffffffffffffffffffffffffffffffffffff16815260200183815260200180602001828103825283818151815260200191508051906020019080838360005b83811015611dd3578082015181840152602081019050611db8565b50505050905090810190601f168015611e005780820380516001836020036101000a031916815260200191505b50945050505050602060405180830381600087803b158015611e2157600080fd5b505af1158015611e35573d6000803e3d6000fd5b505050506040513d6020811015611e4b57600080fd5b810190808051906020019092919050505083600001819055505050505050505b5050505050505050565b60606000600a60008673ffffffffffffffffffffffffffffffffffffffff1673ffffffffffffffffffffffffffffffffffffffff168152602001908152602001600020905060608160000154604051908082528060200260200182016040528015611eef5781602001602082028038833980820191505090505b509050600080905060008090505b8360000154811015611f615783600101600082815260200190815260200160002060010160009054906101000a900460ff1615611f545780838381518110611f4157fe5b6020026020010181815250506001820191505b8080600101915050611efd565b868603604051908082528060200260200182016040528015611f925781602001602082028038833980820191505090505b5094508690505b85811015611fdc57828181518110611fad57fe5b60200260200101518588830381518110611fc357fe5b6020026020010181815250508080600101915050611f99565b505050509392505050565b60086020528060005260406000206000915090508060000160009054906101000a900460ff1690806001018054600181600116156101000203166002900480601f0160208091040260200160405190810160405280929190818152602001828054600181600116156101000203166002900480156120a65780601f1061207b576101008083540402835291602001916120a6565b820191906000526020600020905b81548152906001019060200180831161208957829003601f168201915b5050505050908060020154908060030154905084565b60065481565b60011515600860003373ffffffffffffffffffffffffffffffffffffffff1673ffffffffffffffffffffffffffffffffffffffff16815260200190815260200160002060000160009054906101000a900460ff161515141561218c576040517f08c379a00000000000000000000000000000000000000000000000000000000081526004018080602001828103825260128152602001807f414c52454144592052454749535445524544000000000000000000000000000081525060200191505060405180910390fd5b60026000815480929190600101919050555033600c6000600254815260200190815260200160002060006101000a81548173ffffffffffffffffffffffffffffffffffffffff021916908373ffffffffffffffffffffffffffffffffffffffff16021790555080600860003373ffffffffffffffffffffffffffffffffffffffff1673ffffffffffffffffffffffffffffffffffffffff16815260200190815260200160002060010190805190602001906122489291906138d1565b506001600860003373ffffffffffffffffffffffffffffffffffffffff1673ffffffffffffffffffffffffffffffffffffffff16815260200190815260200160002060000160006101000a81548160ff02191690831515021790555050565b60011515600860003373ffffffffffffffffffffffffffffffffffffffff1673ffffffffffffffffffffffffffffffffffffffff16815260200190815260200160002060000160009054906101000a900460ff16151514612370576040517f08c379a00000000000000000000000000000000000000000000000000000000081526004018080602001828103825260168152602001807f596f7520617265206e6f7420726567697374657265640000000000000000000081525060200191505060405180910390fd5b600081116123e6576040517f08c379a00000000000000000000000000000000000000000000000000000000081526004018080602001828103825260198152602001807f43616e206f6e6c792061646420706f736974697665207461670000000000000081525060200191505060405180910390fd5b80600860003373ffffffffffffffffffffffffffffffffffffffff1673ffffffffffffffffffffffffffffffffffffffff168152602001908152602001600020600201600082825401925050819055508060046000828254019250508190555060011515600b60003373ffffffffffffffffffffffffffffffffffffffff1673ffffffffffffffffffffffffffffffffffffffff16815260200190815260200160002060000160009054906101000a900460ff16151514156124b357806005600082825401925050819055505b50565b600160009054906101000a900473ffffffffffffffffffffffffffffffffffffffff1681565b600080600080600080905060008090506000809050600080905060008090505b60025481116126065760086000600c600084815260200190815260200160002060009054906101000a900473ffffffffffffffffffffffffffffffffffffffff1673ffffffffffffffffffffffffffffffffffffffff1673ffffffffffffffffffffffffffffffffffffffff168152602001908152602001600020600201548501945060086000600c600084815260200190815260200160002060009054906101000a900473ffffffffffffffffffffffffffffffffffffffff1673ffffffffffffffffffffffffffffffffffffffff1673ffffffffffffffffffffffffffffffffffffffff168152602001908152602001600020600301548401935080806001019150506124fc565b5060008090505b60035481116127175760086000600d600084815260200190815260200160002060009054906101000a900473ffffffffffffffffffffffffffffffffffffffff1673ffffffffffffffffffffffffffffffffffffffff1673ffffffffffffffffffffffffffffffffffffffff168152602001908152602001600020600201548301925060086000600d600084815260200190815260200160002060009054906101000a900473ffffffffffffffffffffffffffffffffffffffff1673ffffffffffffffffffffffffffffffffffffffff1673ffffffffffffffffffffffffffffffffffffffff1681526020019081526020016000206003015482019150808060010191505061260d565b508383838397509750975097505050505090919293565b84843373ffffffffffffffffffffffffffffffffffffffff1661275183836114bd565b73ffffffffffffffffffffffffffffffffffffffff16146127bd576040517f08c379a00000000000000000000000000000000000000000000000000000000081526004018080602001828103825260228152602001806139c46022913960400191505060405180910390fd5b868686600073ffffffffffffffffffffffffffffffffffffffff166127e284846114bd565b73ffffffffffffffffffffffffffffffffffffffff161415801561286f5750600a600061280f85856114bd565b73ffffffffffffffffffffffffffffffffffffffff1673ffffffffffffffffffffffffffffffffffffffff168152602001908152602001600020600101600082815260200190815260200160002060010160009054906101000a900460ff165b6128e1576040517f08c379a00000000000000000000000000000000000000000000000000000000081526004018080602001828103825260178152602001807f457363726f20545820646f6573206e6f7420657869737400000000000000000081525060200191505060405180910390fd5b6000600a60006128f18d8d6114bd565b73ffffffffffffffffffffffffffffffffffffffff1673ffffffffffffffffffffffffffffffffffffffff168152602001908152602001600020905060008160010160008b81526020019081526020016000209050600115158160010160009054906101000a900460ff161515146129b4576040517f08c379a0000000000000000000000000000000000000000000000000000000008152600401808060200182810382526022815260200180613a2d6022913960400191505060405180910390fd5b80600301548914612a10576040517f08c379a0000000000000000000000000000000000000000000000000000000008152600401808060200182810382526024815260200180613a096024913960400191505060405180910390fd5b80600401548814612a6c576040517f08c379a00000000000000000000000000000000000000000000000000000000081526004018080602001828103825260258152602001806139776025913960400191505060405180910390fd5b600088121580612aca5750600088128015612ac95750600860008c73ffffffffffffffffffffffffffffffffffffffff1673ffffffffffffffffffffffffffffffffffffffff168152602001908152602001600020600301548811155b5b612b1f576040517f08c379a000000000000000000000000000000000000000000000000000000000815260040180806020018281038252602881526020018061399c6028913960400191505060405180910390fd5b88600860008e73ffffffffffffffffffffffffffffffffffffffff1673ffffffffffffffffffffffffffffffffffffffff1681526020019081526020016000206002016000828254039250508190555088600860008d73ffffffffffffffffffffffffffffffffffffffff1673ffffffffffffffffffffffffffffffffffffffff16815260200190815260200160002060020160008282540192505081905550600081600401541315612c215787600860008d73ffffffffffffffffffffffffffffffffffffffff1673ffffffffffffffffffffffffffffffffffffffff16815260200190815260200160002060030160008282540192505081905550612cd0565b600081600401541215612ccf5787600860008e73ffffffffffffffffffffffffffffffffffffffff1673ffffffffffffffffffffffffffffffffffffffff1681526020019081526020016000206003016000828254019250508190555087600860008d73ffffffffffffffffffffffffffffffffffffffff1673ffffffffffffffffffffffffffffffffffffffff168152602001908152602001600020600301600082825403925050819055505b5b612cdc8c8c8a8c6137a8565b8160010160008b81526020019081526020016000206000808201600090556001820160006101000a81549060ff02191690556001820160016101000a81549073ffffffffffffffffffffffffffffffffffffffff02191690556002820160006101000a81549073ffffffffffffffffffffffffffffffffffffffff0219169055600382016000905560048201600090555050505050505050505050505050565b6000809054906101000a900473ffffffffffffffffffffffffffffffffffffffff1673ffffffffffffffffffffffffffffffffffffffff163373ffffffffffffffffffffffffffffffffffffffff1614612dd557600080fd5b60011515600b60008573ffffffffffffffffffffffffffffffffffffffff1673ffffffffffffffffffffffffffffffffffffffff16815260200190815260200160002060000160009054906101000a900460ff16151514612e9e576040517f08c379a00000000000000000000000000000000000000000000000000000000081526004018080602001828103825260178152602001807f5374616d706572206e6f7420726567697374657265642e00000000000000000081525060200191505060405180910390fd5b81600b60008573ffffffffffffffffffffffffffffffffffffffff1673ffffffffffffffffffffffffffffffffffffffff16815260200190815260200160002060000160016101000a81548160ff02191690831515021790555080600b60008573ffffffffffffffffffffffffffffffffffffffff1673ffffffffffffffffffffffffffffffffffffffff16815260200190815260200160002060010181905550505050565b60025481565b60011515600b60003373ffffffffffffffffffffffffffffffffffffffff1673ffffffffffffffffffffffffffffffffffffffff16815260200190815260200160002060000160019054906101000a900460ff16151514613013576040517f08c379a00000000000000000000000000000000000000000000000000000000081526004018080602001828103825260198152602001807f4f6e6c79207374616d706572732063616e206163636573732e0000000000000081525060200191505060405180910390fd5b6000600b60003373ffffffffffffffffffffffffffffffffffffffff1673ffffffffffffffffffffffffffffffffffffffff16815260200190815260200160002060010154600b60003373ffffffffffffffffffffffffffffffffffffffff1673ffffffffffffffffffffffffffffffffffffffff168152602001908152602001600020600301544203816130a457fe5b04905080600860003373ffffffffffffffffffffffffffffffffffffffff1673ffffffffffffffffffffffffffffffffffffffff1681526020019081526020016000206003016000828254019250508190555080600860003373ffffffffffffffffffffffffffffffffffffffff1673ffffffffffffffffffffffffffffffffffffffff1681526020019081526020016000206002015413156131965780600860003373ffffffffffffffffffffffffffffffffffffffff1673ffffffffffffffffffffffffffffffffffffffff168152602001908152602001600020600201600082825403925050819055506131df565b6000600860003373ffffffffffffffffffffffffffffffffffffffff1673ffffffffffffffffffffffffffffffffffffffff168152602001908152602001600020600201819055505b80600660008282540192505081905550806007600082825401925050819055508060056000828254039250508190555050565b600060011515600860003373ffffffffffffffffffffffffffffffffffffffff1673ffffffffffffffffffffffffffffffffffffffff16815260200190815260200160002060000160009054906101000a900460ff161515146132dd576040517f08c379a00000000000000000000000000000000000000000000000000000000081526004018080602001828103825260168152602001807f596f7520617265206e6f7420726567697374657265640000000000000000000081525060200191505060405180910390fd5b3382600073ffffffffffffffffffffffffffffffffffffffff1661330183836114bd565b73ffffffffffffffffffffffffffffffffffffffff161461338a576040517f08c379a00000000000000000000000000000000000000000000000000000000081526004018080602001828103825260168152602001807f457363726f7720616c726561647920637265617465640000000000000000000081525060200191505060405180910390fd5b600060039050606060036040519080825280602002602001820160405280156133c25781602001602082028038833980820191505090505b50905033816000815181106133d357fe5b602002602001019073ffffffffffffffffffffffffffffffffffffffff16908173ffffffffffffffffffffffffffffffffffffffff1681525050858160018151811061341b57fe5b602002602001019073ffffffffffffffffffffffffffffffffffffffff16908173ffffffffffffffffffffffffffffffffffffffff1681525050308160028151811061346357fe5b602002602001019073ffffffffffffffffffffffffffffffffffffffff16908173ffffffffffffffffffffffffffffffffffffffff1681525050600160009054906101000a900473ffffffffffffffffffffffffffffffffffffffff1673ffffffffffffffffffffffffffffffffffffffff1663f8f7380882846040518363ffffffff1660e01b81526004018080602001838152602001828103825284818151815260200191508051906020019060200280838360005b8381101561353557808201518184015260208101905061351a565b505050509050019350505050602060405180830381600087803b15801561355b57600080fd5b505af115801561356f573d6000803e3d6000fd5b505050506040513d602081101561358557600080fd5b8101908080519060200190929190505050945084600960003373ffffffffffffffffffffffffffffffffffffffff1673ffffffffffffffffffffffffffffffffffffffff16815260200190815260200160002060008873ffffffffffffffffffffffffffffffffffffffff1673ffffffffffffffffffffffffffffffffffffffff16815260200190815260200160002060006101000a81548173ffffffffffffffffffffffffffffffffffffffff021916908373ffffffffffffffffffffffffffffffffffffffff160217905550600860003373ffffffffffffffffffffffffffffffffffffffff1673ffffffffffffffffffffffffffffffffffffffff1681526020019081526020016000206004018590806001815401808255809150509060018203906000526020600020016000909192909190916101000a81548173ffffffffffffffffffffffffffffffffffffffff021916908373ffffffffffffffffffffffffffffffffffffffff16021790555050600860008773ffffffffffffffffffffffffffffffffffffffff1673ffffffffffffffffffffffffffffffffffffffff1681526020019081526020016000206004018590806001815401808255809150509060018203906000526020600020016000909192909190916101000a81548173ffffffffffffffffffffffffffffffffffffffff021916908373ffffffffffffffffffffffffffffffffffffffff1602179055505050505050919050565b6000806000905060011515600b60008873ffffffffffffffffffffffffffffffffffffffff1673ffffffffffffffffffffffffffffffffffffffff16815260200190815260200160002060000160009054906101000a900460ff16151514156138145760019050600191505b60011515600b60008773ffffffffffffffffffffffffffffffffffffffff1673ffffffffffffffffffffffffffffffffffffffff16815260200190815260200160002060000160009054906101000a900460ff161515141561389857801590507fffffffffffffffffffffffffffffffffffffffffffffffffffffffffffffffff91505b80156138c957838260000b02600560008282540392505081905550828260000b026007600082825403925050819055505b505050505050565b828054600181600116156101000203166002900490600052602060002090601f016020900481019282601f1061391257805160ff1916838001178555613940565b82800160010185558215613940579182015b8281111561393f578251825591602001919060010190613924565b5b50905061394d9190613951565b5090565b61397391905b8082111561396f576000816000905550600101613957565b5090565b9056fe54686520676f6c64207472616e736665722076616c75657320646f206e6f74206d617463684e6f7420656e6f75676820676f6c6420746f2066756c6c66696c6c2073656e64657227732061736b43616e206f6e6c792063616c6c2066726f6d20457363726f7720636f6e7472616374496e73756666696369656e7420676f6c6420666f722074686973207472616e7366657254686520746167207472616e736665722076616c75657320646f206e6f74206d6174636854686973207472616e73616374696f6e20686173206265656e2072656a6563746564a265627a7a7231582045b45c6409543b9786183515b00aadbde7d8661fd65275b4aa889ef82f16afb264736f6c634300050c0032",
  "source": "pragma solidity ^0.5.12;\nimport \"./MultiSigWalletFactory.sol\";\ncontract CarboTag {\n    /*\n     *  Events\n    */\n  event EscrowFunded (address indexed sender, uint256 indexed value);\n\n\n  address owner;\n  address public factory_addr;\n  uint public accountCount; //number of accounts\n  uint public stamperCount; //number of stampers\n  uint public totalTag;   //metric for system tag this can be negative\n  uint public totalStamperTag; //metric for stamper tag this can be non-negative\n  uint public totalGold;   //metric for system gold\n  uint public totalStamperGold; //metric for stamper gold\n  \n  struct Attributes {  //basic wallet, minimum attributes\n    bool registered; //Valid account?\n    string name;   //Text Identifier\n    int tag;      //Tag held\n    uint gold;      //Gold held\n    address[] escrowList; //escrow addresses associated with each wallet\n    // Note this is additional data stored on the network\n    // To help users keep track of the escrow accounts associated with their wallet\n    // and check for exisitng transactions in each escrow\n    // to minimze data storage we could store this data externally...\n  }\n  mapping (address => Attributes) public wallet;\n\n  // TO-DO only store escrow tx data into the correspoinding multisig wallet \n  // within the encodeWithSignature data. Requires developing decoding routine \n  // that will read fn/parameters stored in the external multisig wallet (true escrow)\n  // This will make the tag contract lighter\n  // For now laziliy store escrow tx data within the tag contract\n  // rather than decoding the parameters using assembly (complex)... \n  struct EscrowTx {\n    \n    uint multisig_tx_id; //transactionId from multisig wallet\n    bool exists;\n    // Below attributes are stored as encoded bytes data in the external multisig wallet\n    address sender;\n    address receiver;\n    int tag; // signed integer tag transfer, (+) for send tag to receiver, (-) to request tag transfer to sender\n    int gold; // signed integer gold transfer, (+) for send gold to receiver, (-) to request gold transfer to sender\n  }\n  // Attributes for a given escrow\n  struct EscrowAttr {\n    uint transactionsCount; // transactionsCount\n    mapping(uint => EscrowTx) transactions;\n  }\n\n  // store in mappin escrow address for a given address pair \n  mapping(address => mapping(address => address payable)) internal EscrowAddr;\n\n  // mapping to attributes for the external escrow address \n  mapping(address => EscrowAttr) public escrow;\n\n  //Split Stamper management into a separate struct\n  struct StampData {\n    bool exists;   //Has registered before\n    bool active;   //Is stamper active?\n    uint stamprate; //Rate of stamping speed\n    uint minpmt;    //Minimum accepted payment\n    uint laststamp;  //time of last stamping\n  }\n  mapping (address => StampData) public stampRegister;\n  mapping (uint => address) accountIndex;  //So we can cycle through accounts easily\n  mapping (uint => address) stamperIndex;  //So we can cycle through stampers easily\n\n  modifier onlyOwner () {    //added some security\n      require(msg.sender == owner);\n      _;\n  }\n  modifier onlyStamper () {  //added some security\n    require(stampRegister[msg.sender].active == true, \"Only stampers can access.\");\n    _;\n  }\n  \n  modifier onlyMember () {  //added some security\n    require(wallet[msg.sender].registered == true, \"You are not registered\");\n    _;\n  }\n  modifier onlyEscrow(address _sender, address _receiver) {  //added some security\n    require(findEscrowAddr(_sender, _receiver) == msg.sender, \"Can only call from Escrow contract\");\n    _;\n  }\n  modifier escrowExists(address _sender, address _receiver){\n    require(findEscrowAddr(_sender, _receiver)!=address(0x0), \"No escrow wallet\");\n    _;  \n  }\n  modifier escrowTxExists(address _sender, address _receiver, uint _txID){\n    require(findEscrowAddr(_sender, _receiver)!=address(0x0)\n      && escrow[findEscrowAddr(_sender, _receiver)].transactions[_txID].exists, \n      \"Escro TX does not exist\");\n    _;  \n  }\n  modifier escrowDoesNotExist(address _sender, address _receiver){\n    require(findEscrowAddr(_sender, _receiver)==address(0x0), \"Escrow already created\");\n    _;  \n  }\n  // out boolean if sender transfering gold out (+), or sender request to receive gold (-) \n  modifier sufficientGold(address _sender, address _receiver, int _gold){\n    require(\n      (_gold>0 && uint(_gold)<=wallet[_sender].gold) //cant send gold unless you have it,\n      || (_gold<=0)// && uint(_gold)<=wallet[_receiver].gold) // but can ask\n      // The second condition prevents asking for gold that exceeds balance from \n      // requester (_receivers) wallet. We do not really need this?\n      , \"Insufficient gold for this transfer\");  \n    _;\n  }\n  constructor(address factory) public {\n     owner = msg.sender;\n     factory_addr = factory;\n  }\n\n  function() external payable {}\n    \n  function signUp(string memory name) public{\n      require(wallet[msg.sender].registered != true, \"ALREADY REGISTERED\");\n      accountCount++;\n      accountIndex[accountCount]=msg.sender;\n      wallet[msg.sender].name = name;\n      wallet[msg.sender].registered = true;\n\n  }\n\n  function findEscrowAddr(address _sender, address _receiver)  \n    view\n    public\n    returns (address payable _escrow)\n  {\n    if(EscrowAddr[_sender ][_receiver]!=address(0x0)){\n      _escrow = EscrowAddr[_sender][_receiver];\n    }else{\n      _escrow = EscrowAddr[_receiver][_sender];\n    }\n  }\n\n  function createEscrow(address _receiver)//, uint _value) \n    public\n    onlyMember()\n    escrowDoesNotExist(msg.sender,_receiver)\n    returns(address payable _escrowAddr){\n    // Escrow has 3 participants and all must sign\n    // include this contract as onwer of ESCROW\n    // confirms that this cpnytract is party in the escrow (can submit TXs)\n    uint _required = 3;\n    address[] memory _owners = new address[](3);\n    _owners[0]= msg.sender;\n    _owners[1]=_receiver;\n    _owners[2]= address(this);\n\n    _escrowAddr = address(MultiSigWalletFactory(factory_addr).create(_owners, _required));\n    EscrowAddr[msg.sender][_receiver] = _escrowAddr;\n    wallet[msg.sender].escrowList.push(_escrowAddr);\n    wallet[_receiver].escrowList.push(_escrowAddr);\n  }\n\n  function stampPmtAdjust(uint minpmt) public onlyStamper(){\n      stampRegister[msg.sender].minpmt = minpmt;\n  }\n\n  function addTagToSelf(uint tag) public onlyMember(){\n    require(tag>0, 'Can only add positive tag');\n    wallet[msg.sender].tag += int(tag);\n    totalTag += tag;\n    if(stampRegister[msg.sender].exists == true){\n      totalStamperTag += tag;\n    }\n  }\n  // receiver: counterparty to the offer\n  // tag: signed integer tag transfer, (+) for send gold to receiver, (-) to request gold transfer to sender\n  // gold: signed integer gold transfer, (+) for send gold to receiver, (-) to request gold transfer to sender\n  function createTransaction(address _receiver,int _tag, int _gold)\n    public \n    payable\n    onlyMember()\n    escrowExists(msg.sender, _receiver)\n    sufficientGold(msg.sender,_receiver, _gold) // must have sufficient gold to submit transfer\n  {\n    if(_gold>0){\n      wallet[msg.sender].gold -= uint(_gold); //remove (+) gold transfer from sender wallet\n    }\n    if(_tag==0 && _gold>0){\n      // send the gold now if it is not combined with a debt transfer request \n      wallet[_receiver].gold += uint(_gold);\n    }else{  \n      // Store transaction in Escrow\n      address payable multisigAddr = findEscrowAddr(msg.sender, _receiver);\n      EscrowAttr storage _escrow=escrow[multisigAddr];\n      \n      uint _txID = _escrow.transactionsCount++; //initialize next tx id\n  \n      EscrowTx storage _tx = _escrow.transactions[_txID];\n      _tx.exists = true;\n      _tx.sender = msg.sender;\n      _tx.receiver = _receiver;\n      _tx.gold = _gold; // store gold transfer for reference before approval by receiver\n      _tx.tag = _tag; // store tag transfer for reference before approval by receiver\n      // encoded function for offerAccept to be triggered by multisig escrow wallet\n      bytes memory _data = abi.encodeWithSignature(\"acceptTransaction(address,address,uint256,int256,int256)\",msg.sender,_receiver,_txID,_tag,_gold); \n      //address(this).call(_data);\n      uint _value = msg.value;\n      _tx.multisig_tx_id = MultiSigWallet(multisigAddr).submitTransaction(address(this),_value, _data);\n    }\n  }\n\n\n  //TO-DO add\n  function acceptTransaction(address _sender, address _receiver, uint _txID, int _tag, int _gold) \n    external \n    payable\n    onlyEscrow(_sender,_receiver)\n    escrowTxExists(_sender,_receiver,_txID)\n  {\n    EscrowAttr storage _escrow = escrow[findEscrowAddr(_sender,_receiver)];\n    EscrowTx storage _tx = _escrow.transactions[_txID];\n    // secruity cehck\n    //function call should match vlalues stored in Escrow Transaction\n    //if we store all data in encodedFuncitonCall we dont need this\n    require(_tx.exists == true, 'This transaction has been rejected');\n    require(_tag == _tx.tag, 'The tag transfer values do not match');\n    require(_gold == _tx.gold, 'The gold transfer values do not match');\n    require(_gold>=0 || (_gold<0 && uint(_gold)<=wallet[_receiver].gold), \"Not enough gold to fullfill sender's ask\");\n\n    wallet[_sender].tag -= _tag;\n    wallet[_receiver].tag += _tag;\n    \n    if(_tx.gold>0){// if sender has added gold to escrow\n      wallet[_receiver].gold += uint(_gold); //pull gold from escrow, push to receiver\n    }else if(_tx.gold<0){ // if sender is requesting gold transfer\n      wallet[_sender].gold += uint(_gold); //push gold to sender\n      wallet[_receiver].gold -= uint(_gold); //push gold to sender\n    }\n    // What to do if a payment is sent to this funciton\n    //send funds to _sender ??\n    //_sender.call.value(msg.value)(\"\");\n\n    updateStamperTotals(_sender,_receiver,_gold,_tag);\n\n    // Delete the escrow?\n    delete _escrow.transactions[_txID];\n  }\n\n  function rejectTransaction(address _counterparty, uint _txID) \n    public\n    onlyMember()\n    escrowTxExists(msg.sender,_counterparty,_txID)\n  {\n    address payable multisigAddr = findEscrowAddr(msg.sender, _counterparty);\n    MultiSigWallet(multisigAddr).revokeConfirmation(_txID);\n    EscrowAttr storage _escrow = escrow[multisigAddr];\n    EscrowTx storage _tx = _escrow.transactions[_txID];\n    if(_tx.gold>0){// if sender has added gold to escrow\n      wallet[_tx.sender].gold += uint(_tx.gold); //return gold in escrow to sender\n    }\n    delete _escrow.transactions[_txID];\n  }\n  \n\n  function stampAdd(address target, bool active, uint stamprate, uint minpmt) \n    public \n    onlyOwner()\n\n  {\n    require(wallet[target].registered == true, \"Target does not exist\");\n    require(stampRegister[target].exists == false, \"Stamper already registered.\");\n    stamperCount++;    \n    stamperIndex[stamperCount]=target;\n    stampRegister[target].exists = true;\n    stampRegister[target].active = active;\n    stampRegister[target].stamprate = stamprate;\n    stampRegister[target].minpmt = minpmt;\n    stampRegister[target].laststamp = block.timestamp;\n    //sumTokens();\n    uint _tag; //tag to add to totalStamperTag\n    if(wallet[target].tag>0){\n      _tag = uint(wallet[target].tag); // only pass positive tag \n    }\n    totalStamperTag += uint(_tag);\n    totalStamperGold += wallet[target].gold;\n  }\n\n  function stampEdit(address target, bool active, uint stamprate) public onlyOwner(){\n      require(stampRegister[target].exists == true, \"Stamper not registered.\");\n      stampRegister[target].active = active;\n      stampRegister[target].stamprate = stamprate;\n      //sumTokens();\n\n\n      // TODO add/remove totalStampeRGold/tag for active/non-active wallets? \n      /*\n      int _tag; //tag to add to totalStamperTag\n      if(wallet[target].tag>0){  // only pass positive tag\n        _tag = wallet[target].tag;\n      }\n      if(active){ //target address is active stamper - add positive tag and gold to totals  as receiver\n        updateStamperTotals(address(0x0),target,_tag,int(wallet[target].gold));\n      }else{ //target address is not active stamper - remove positive tag and gold from totals as sender\n        updateStamperTotals(target,address(0x0),_tag,int(wallet[target].gold));\n      }*/\n  }\n  function goldUpdate()public onlyStamper(){\n      // Some points to address\n      // Block timestamp can be manipulated by miners within 900s\n      // Make sure that this deos not distort the stamping rate within am acceptable tollerance\n      // Need to set other stamp constriants (total stamps based on auditing, or other metrics)\n\n      // Stampers are free to produce negative debt when stamping... \n      uint stamps = (block.timestamp-stampRegister[msg.sender].laststamp)/stampRegister[msg.sender].stamprate;\n      wallet[msg.sender].gold += stamps;\n      if(wallet[msg.sender].tag>int(stamps)){wallet[msg.sender].tag -= int(stamps);}\n      else{wallet[msg.sender].tag = 0;} \n      // Keeps tag from going negative\n      // Stamper wallet can not have ngative debt after stamping ...(?)\n\n      totalGold += stamps;\n      totalStamperGold += stamps;\n      totalStamperTag -= stamps;\n  }\n\n  function updateStamperTotals(address _sender, address _receiver, int _tag, int _gold) internal{\n    //why do we need to update/store these???\n    int8 _sign; // defines direction of tag/gold movements\n    bool _stamper=false;\n    if(stampRegister[_sender].exists == true){\n      _stamper = true;\n      _sign = 1; // if stamper is sender values are sent out ( substract )\n    }if(stampRegister[_receiver].exists == true){\n      _stamper = !_stamper; //if both sender and receiver are stampers do nothing (no change in total gold/tag balance)\n      _sign = -1; // if stamper is receiver values are coming in (add)\n    }\n    // note when tag/gold are negative these are asks by the sender and direction if flipped\n    if(_stamper){\n      totalStamperTag -= uint(_sign*_tag);\n      totalStamperGold -= uint(_sign*_gold);\n    }\n  }\n\n  // Fn to get the external multisig transaciton ID for an escrow transaction \n  // created in this contract \n  function transactionData(address _escrowAddr, uint _txID)\n    public\n    view\n    returns(uint)\n  {\n    return(escrow[_escrowAddr].transactions[_txID].multisig_tx_id);\n  }\n  // Function to return all existing escrow txs.\n  function getTransactionIds(address _escrowAddr, uint from, uint to)\n      public\n      view\n      returns (uint[] memory _transactionIds)\n  {\n      EscrowAttr storage _escrow = escrow[_escrowAddr];\n      uint[] memory transactionIdsTemp = new uint[](_escrow.transactionsCount);\n      uint count = 0;\n      uint i;\n      \n      for (i=0; i<_escrow.transactionsCount; i++)\n          if ( _escrow.transactions[i].exists )\n          {\n              transactionIdsTemp[count] = i;\n              count += 1;\n          }\n      _transactionIds = new uint[](to - from);\n      for (i=from; i<to; i++)\n          _transactionIds[i - from] = transactionIdsTemp[i];\n  }\n  \n\n  function sumTokens() external view returns(uint, uint, uint, uint) {  //Generates general metrics for the system and stamper coin levels, might be pretty inefficient\n    // this iwill end up costing too much gass\n    // instead just update totalTag totalGold, etc... every time a relevant transaciton is sumitted/confirmed\n    // or use this just to view current state \n    uint totalTagx = 0;\n    uint totalGoldx = 0;\n    uint totalStamperTagx = 0;\n    uint totalStamperGoldx = 0;\n    for(uint i=0;i<=accountCount;i++)\n      {\n      totalTagx += uint(wallet[accountIndex[i]].tag);\n      totalGoldx += wallet[accountIndex[i]].gold;\n      }\n    for(uint i=0;i<=stamperCount;i++)\n      {\n      totalStamperTagx += uint(wallet[stamperIndex[i]].tag);\n      totalStamperGoldx += wallet[stamperIndex[i]].gold;\n      }\n    return (totalTagx,totalGoldx,totalStamperTagx,totalStamperGoldx);\n  }\n\n\n  function killContract()\n    onlyOwner()\n    public\n  {\n    selfdestruct(tx.origin);\n  }\n}\n",
  "sourcePath": "/Users/bertrandrioux/git/carboTag/contracts/CarboTag.sol",
  "compiler": {
    "name": "solc",
    "version": "0.5.12+commit.7709ece9.Emscripten.clang"
  },
  "schemaVersion": "3.0.20",
  "updatedAt": "2020-01-16T23:09:14.010Z",
  "devdoc": {
    "methods": {}
  },
  "userdoc": {
    "methods": {}
  }
}