{
  "contractName": "CarboTag",
  "abi": [
    {
      "inputs": [
        {
          "internalType": "address",
          "name": "factory",
          "type": "address"
        }
      ],
      "payable": false,
      "stateMutability": "nonpayable",
      "type": "constructor"
    },
    {
      "anonymous": false,
      "inputs": [
        {
          "indexed": true,
          "internalType": "address",
          "name": "sender",
          "type": "address"
        },
        {
          "indexed": true,
          "internalType": "uint256",
          "name": "value",
          "type": "uint256"
        }
      ],
      "name": "EscrowFunded",
      "type": "event"
    },
    {
      "payable": true,
      "stateMutability": "payable",
      "type": "fallback"
    },
    {
      "constant": true,
      "inputs": [],
      "name": "accountCount",
      "outputs": [
        {
          "internalType": "uint256",
          "name": "",
          "type": "uint256"
        }
      ],
      "payable": false,
      "stateMutability": "view",
      "type": "function"
    },
    {
      "constant": true,
      "inputs": [
        {
          "internalType": "address",
          "name": "",
          "type": "address"
        },
        {
          "internalType": "uint256",
          "name": "",
          "type": "uint256"
        }
      ],
      "name": "escrowTx",
      "outputs": [
        {
          "internalType": "uint256",
          "name": "multisig_tx_id",
          "type": "uint256"
        },
        {
          "internalType": "bool",
          "name": "exists",
          "type": "bool"
        },
        {
          "internalType": "address",
          "name": "issuer",
          "type": "address"
        },
        {
          "internalType": "int256",
          "name": "tag",
          "type": "int256"
        },
        {
          "internalType": "int256",
          "name": "gold",
          "type": "int256"
        }
      ],
      "payable": false,
      "stateMutability": "view",
      "type": "function"
    },
    {
      "constant": true,
      "inputs": [
        {
          "internalType": "address",
          "name": "",
          "type": "address"
        }
      ],
      "name": "escrowTxCount",
      "outputs": [
        {
          "internalType": "uint256",
          "name": "",
          "type": "uint256"
        }
      ],
      "payable": false,
      "stateMutability": "view",
      "type": "function"
    },
    {
      "constant": true,
      "inputs": [],
      "name": "factory_addr",
      "outputs": [
        {
          "internalType": "address",
          "name": "",
          "type": "address"
        }
      ],
      "payable": false,
      "stateMutability": "view",
      "type": "function"
    },
    {
      "constant": true,
      "inputs": [
        {
          "internalType": "address",
          "name": "",
          "type": "address"
        }
      ],
      "name": "owner",
      "outputs": [
        {
          "internalType": "bool",
          "name": "",
          "type": "bool"
        }
      ],
      "payable": false,
      "stateMutability": "view",
      "type": "function"
    },
    {
      "constant": true,
      "inputs": [
        {
          "internalType": "address",
          "name": "",
          "type": "address"
        }
      ],
      "name": "stampRegister",
      "outputs": [
        {
          "internalType": "bool",
          "name": "exists",
          "type": "bool"
        },
        {
          "internalType": "bool",
          "name": "active",
          "type": "bool"
        },
        {
          "internalType": "uint256",
          "name": "stamprate",
          "type": "uint256"
        },
        {
          "internalType": "uint256",
          "name": "minpmt",
          "type": "uint256"
        },
        {
          "internalType": "uint256",
          "name": "laststamp",
          "type": "uint256"
        },
        {
          "internalType": "int256",
          "name": "votes",
          "type": "int256"
        }
      ],
      "payable": false,
      "stateMutability": "view",
      "type": "function"
    },
    {
      "constant": true,
      "inputs": [],
      "name": "stamperCount",
      "outputs": [
        {
          "internalType": "uint256",
          "name": "",
          "type": "uint256"
        }
      ],
      "payable": false,
      "stateMutability": "view",
      "type": "function"
    },
    {
      "constant": true,
      "inputs": [],
      "name": "totalGold",
      "outputs": [
        {
          "internalType": "uint256",
          "name": "",
          "type": "uint256"
        }
      ],
      "payable": false,
      "stateMutability": "view",
      "type": "function"
    },
    {
      "constant": true,
      "inputs": [],
      "name": "totalStamperGold",
      "outputs": [
        {
          "internalType": "uint256",
          "name": "",
          "type": "uint256"
        }
      ],
      "payable": false,
      "stateMutability": "view",
      "type": "function"
    },
    {
      "constant": true,
      "inputs": [],
      "name": "totalStamperTag",
      "outputs": [
        {
          "internalType": "uint256",
          "name": "",
          "type": "uint256"
        }
      ],
      "payable": false,
      "stateMutability": "view",
      "type": "function"
    },
    {
      "constant": true,
      "inputs": [],
      "name": "totalTag",
      "outputs": [
        {
          "internalType": "uint256",
          "name": "",
          "type": "uint256"
        }
      ],
      "payable": false,
      "stateMutability": "view",
      "type": "function"
    },
    {
      "constant": true,
      "inputs": [
        {
          "internalType": "address",
          "name": "",
          "type": "address"
        }
      ],
      "name": "wallet",
      "outputs": [
        {
          "internalType": "bool",
          "name": "registered",
          "type": "bool"
        },
        {
          "internalType": "string",
          "name": "name",
          "type": "string"
        },
        {
          "internalType": "int256",
          "name": "tag",
          "type": "int256"
        },
        {
          "internalType": "uint256",
          "name": "gold",
          "type": "uint256"
        }
      ],
      "payable": false,
      "stateMutability": "view",
      "type": "function"
    },
    {
      "constant": false,
      "inputs": [
        {
          "internalType": "address",
          "name": "_target",
          "type": "address"
        }
      ],
      "name": "addOwner",
      "outputs": [],
      "payable": false,
      "stateMutability": "nonpayable",
      "type": "function"
    },
    {
      "constant": false,
      "inputs": [
        {
          "internalType": "string",
          "name": "name",
          "type": "string"
        }
      ],
      "name": "signUp",
      "outputs": [],
      "payable": false,
      "stateMutability": "nonpayable",
      "type": "function"
    },
    {
      "constant": true,
      "inputs": [
        {
          "internalType": "address",
          "name": "_sender",
          "type": "address"
        },
        {
          "internalType": "address",
          "name": "_receiver",
          "type": "address"
        }
      ],
      "name": "findEscrowAddr",
      "outputs": [
        {
          "internalType": "address payable",
          "name": "_escrow",
          "type": "address"
        }
      ],
      "payable": false,
      "stateMutability": "view",
      "type": "function"
    },
    {
      "constant": false,
      "inputs": [
        {
          "internalType": "address",
          "name": "_receiver",
          "type": "address"
        }
      ],
      "name": "createEscrow",
      "outputs": [
        {
          "internalType": "address payable",
          "name": "_escrowAddr",
          "type": "address"
        }
      ],
      "payable": false,
      "stateMutability": "nonpayable",
      "type": "function"
    },
    {
      "constant": false,
      "inputs": [
        {
          "internalType": "uint256",
          "name": "minpmt",
          "type": "uint256"
        }
      ],
      "name": "stampPmtAdjust",
      "outputs": [],
      "payable": false,
      "stateMutability": "nonpayable",
      "type": "function"
    },
    {
      "constant": false,
      "inputs": [
        {
          "internalType": "uint256",
          "name": "tag",
          "type": "uint256"
        }
      ],
      "name": "addTagToSelf",
      "outputs": [],
      "payable": false,
      "stateMutability": "nonpayable",
      "type": "function"
    },
    {
      "constant": false,
      "inputs": [
        {
          "internalType": "address",
          "name": "_receiver",
          "type": "address"
        },
        {
          "internalType": "int256",
          "name": "_tag",
          "type": "int256"
        },
        {
          "internalType": "int256",
          "name": "_gold",
          "type": "int256"
        }
      ],
      "name": "createTransaction",
      "outputs": [],
      "payable": true,
      "stateMutability": "payable",
      "type": "function"
    },
    {
      "constant": false,
      "inputs": [
        {
          "internalType": "address",
          "name": "_sender",
          "type": "address"
        },
        {
          "internalType": "address",
          "name": "_receiver",
          "type": "address"
        },
        {
          "internalType": "uint256",
          "name": "_txID",
          "type": "uint256"
        },
        {
          "internalType": "int256",
          "name": "_tag",
          "type": "int256"
        },
        {
          "internalType": "int256",
          "name": "_gold",
          "type": "int256"
        }
      ],
      "name": "acceptTransaction",
      "outputs": [],
      "payable": true,
      "stateMutability": "payable",
      "type": "function"
    },
    {
      "constant": false,
      "inputs": [
        {
          "internalType": "address",
          "name": "_counterparty",
          "type": "address"
        },
        {
          "internalType": "uint256",
          "name": "_txID",
          "type": "uint256"
        }
      ],
      "name": "rejectTransaction",
      "outputs": [],
      "payable": false,
      "stateMutability": "nonpayable",
      "type": "function"
    },
    {
      "constant": false,
      "inputs": [
        {
          "internalType": "address",
          "name": "target",
          "type": "address"
        },
        {
          "internalType": "bool",
          "name": "active",
          "type": "bool"
        },
        {
          "internalType": "uint256",
          "name": "stamprate",
          "type": "uint256"
        },
        {
          "internalType": "uint256",
          "name": "minpmt",
          "type": "uint256"
        }
      ],
      "name": "stampAdd",
      "outputs": [],
      "payable": false,
      "stateMutability": "nonpayable",
      "type": "function"
    },
    {
      "constant": false,
      "inputs": [
        {
          "internalType": "address",
          "name": "target",
          "type": "address"
        },
        {
          "internalType": "bool",
          "name": "active",
          "type": "bool"
        },
        {
          "internalType": "uint256",
          "name": "stamprate",
          "type": "uint256"
        }
      ],
      "name": "stampEdit",
      "outputs": [],
      "payable": false,
      "stateMutability": "nonpayable",
      "type": "function"
    },
    {
      "constant": false,
      "inputs": [],
      "name": "goldUpdate",
      "outputs": [],
      "payable": false,
      "stateMutability": "nonpayable",
      "type": "function"
    },
    {
      "constant": true,
      "inputs": [
        {
          "internalType": "address",
          "name": "_escrowAddr",
          "type": "address"
        },
        {
          "internalType": "uint256",
          "name": "_txID",
          "type": "uint256"
        }
      ],
      "name": "transactionData",
      "outputs": [
        {
          "internalType": "uint256",
          "name": "",
          "type": "uint256"
        }
      ],
      "payable": false,
      "stateMutability": "view",
      "type": "function"
    },
    {
      "constant": true,
      "inputs": [
        {
          "internalType": "address",
          "name": "_escrowAddr",
          "type": "address"
        },
        {
          "internalType": "uint256",
          "name": "from",
          "type": "uint256"
        },
        {
          "internalType": "uint256",
          "name": "to",
          "type": "uint256"
        }
      ],
      "name": "getTransactionIds",
      "outputs": [
        {
          "internalType": "uint256[]",
          "name": "_transactionIds",
          "type": "uint256[]"
        }
      ],
      "payable": false,
      "stateMutability": "view",
      "type": "function"
    },
    {
      "constant": true,
      "inputs": [],
      "name": "sumTokens",
      "outputs": [
        {
          "internalType": "uint256",
          "name": "",
          "type": "uint256"
        },
        {
          "internalType": "uint256",
          "name": "",
          "type": "uint256"
        },
        {
          "internalType": "uint256",
          "name": "",
          "type": "uint256"
        },
        {
          "internalType": "uint256",
          "name": "",
          "type": "uint256"
        }
      ],
      "payable": false,
      "stateMutability": "view",
      "type": "function"
    },
    {
      "constant": false,
      "inputs": [],
      "name": "killContract",
      "outputs": [],
      "payable": false,
      "stateMutability": "nonpayable",
      "type": "function"
    }
  ],
  "bytecode": "0x608060405234801561001057600080fd5b50604051613ef9380380613ef98339818101604052602081101561003357600080fd5b810190808051906020019092919050505060016000803373ffffffffffffffffffffffffffffffffffffffff1673ffffffffffffffffffffffffffffffffffffffff16815260200190815260200160002060006101000a81548160ff02191690831515021790555080600160006101000a81548173ffffffffffffffffffffffffffffffffffffffff021916908373ffffffffffffffffffffffffffffffffffffffff16021790555050613e0d806100ec6000396000f3fe6080604052600436106101b75760003560e01c8063766f1d3d116100ec578063cccdd98b1161008a578063e4af29fc11610064578063e4af29fc14610af5578063e534698814610b20578063f6a8419e14610b37578063fa60bb9f14610bc8576101b7565b8063cccdd98b146109cc578063d1eb1d1414610a0c578063d9a632e414610a8e576101b7565b8063a9f48f8d116100c6578063a9f48f8d14610847578063adcfb4fc14610872578063b730a2be1461093a578063bf4cf4ff14610975576101b7565b8063766f1d3d146106525780639d346526146106aa578063a56cc43914610764576101b7565b80635c085589116101595780636cfb4321116101335780636cfb4321146105705780637065cb48146105ab57806373b23b41146105fc57806375a674a714610627576101b7565b80635c085589146103fb578063666e1b39146104565780636ae39f60146104bf576101b7565b806331692e5e1161019557806331692e5e1461028b5780634e2ecd20146102fc578063518b7eb91461032757806354da6d181461038c576101b7565b80631c02708d146101b95780631d31c432146101d0578063221a1e46146101fb575b005b3480156101c557600080fd5b506101ce610c83565b005b3480156101dc57600080fd5b506101e5610cf8565b6040518082815260200191505060405180910390f35b34801561020757600080fd5b5061024a6004803603602081101561021e57600080fd5b81019080803573ffffffffffffffffffffffffffffffffffffffff169060200190929190505050610cfe565b604051808715151515815260200186151515158152602001858152602001848152602001838152602001828152602001965050505050505060405180910390f35b34801561029757600080fd5b506102fa600480360360808110156102ae57600080fd5b81019080803573ffffffffffffffffffffffffffffffffffffffff1690602001909291908035151590602001909291908035906020019092919080359060200190929190505050610d54565b005b34801561030857600080fd5b5061031161122d565b6040518082815260200191505060405180910390f35b34801561033357600080fd5b506103766004803603602081101561034a57600080fd5b81019080803573ffffffffffffffffffffffffffffffffffffffff169060200190929190505050611233565b6040518082815260200191505060405180910390f35b34801561039857600080fd5b506103e5600480360360408110156103af57600080fd5b81019080803573ffffffffffffffffffffffffffffffffffffffff1690602001909291908035906020019092919050505061124b565b6040518082815260200191505060405180910390f35b34801561040757600080fd5b506104546004803603604081101561041e57600080fd5b81019080803573ffffffffffffffffffffffffffffffffffffffff169060200190929190803590602001909291905050506112a9565b005b34801561046257600080fd5b506104a56004803603602081101561047957600080fd5b81019080803573ffffffffffffffffffffffffffffffffffffffff169060200190929190505050611695565b604051808215151515815260200191505060405180910390f35b3480156104cb57600080fd5b5061052e600480360360408110156104e257600080fd5b81019080803573ffffffffffffffffffffffffffffffffffffffff169060200190929190803573ffffffffffffffffffffffffffffffffffffffff1690602001909291905050506116b5565b604051808273ffffffffffffffffffffffffffffffffffffffff1673ffffffffffffffffffffffffffffffffffffffff16815260200191505060405180910390f35b34801561057c57600080fd5b506105a96004803603602081101561059357600080fd5b81019080803590602001909291905050506118d0565b005b3480156105b757600080fd5b506105fa600480360360208110156105ce57600080fd5b81019080803573ffffffffffffffffffffffffffffffffffffffff1690602001909291905050506119e3565b005b34801561060857600080fd5b50610611611a99565b6040518082815260200191505060405180910390f35b34801561063357600080fd5b5061063c611a9f565b6040518082815260200191505060405180910390f35b6106a86004803603606081101561066857600080fd5b81019080803573ffffffffffffffffffffffffffffffffffffffff1690602001909291908035906020019092919080359060200190929190505050611aa5565b005b3480156106b657600080fd5b5061070d600480360360608110156106cd57600080fd5b81019080803573ffffffffffffffffffffffffffffffffffffffff1690602001909291908035906020019092919080359060200190929190505050612112565b6040518080602001828103825283818151815260200191508051906020019060200280838360005b83811015610750578082015181840152602081019050610735565b505050509050019250505060405180910390f35b34801561077057600080fd5b506107b36004803603602081101561078757600080fd5b81019080803573ffffffffffffffffffffffffffffffffffffffff1690602001909291905050506122f0565b604051808515151515815260200180602001848152602001838152602001828103825285818151815260200191508051906020019080838360005b838110156108095780820151818401526020810190506107ee565b50505050905090810190601f1680156108365780820380516001836020036101000a031916815260200191505b509550505050505060405180910390f35b34801561085357600080fd5b5061085c6123c5565b6040518082815260200191505060405180910390f35b34801561087e57600080fd5b506109386004803603602081101561089557600080fd5b81019080803590602001906401000000008111156108b257600080fd5b8201836020820111156108c457600080fd5b803590602001918460018302840111640100000000831117156108e657600080fd5b91908080601f016020809104026020016040519081016040528093929190818152602001838380828437600081840152601f19601f8201169050808301925050505050505091929192905050506123cb565b005b34801561094657600080fd5b506109736004803603602081101561095d57600080fd5b81019080803590602001909291905050506125b0565b005b34801561098157600080fd5b5061098a6127bf565b604051808273ffffffffffffffffffffffffffffffffffffffff1673ffffffffffffffffffffffffffffffffffffffff16815260200191505060405180910390f35b3480156109d857600080fd5b506109e16127e5565b6040518085815260200184815260200183815260200182815260200194505050505060405180910390f35b610a8c600480360360a0811015610a2257600080fd5b81019080803573ffffffffffffffffffffffffffffffffffffffff169060200190929190803573ffffffffffffffffffffffffffffffffffffffff169060200190929190803590602001909291908035906020019092919080359060200190929190505050612a37565b005b348015610a9a57600080fd5b50610af360048036036060811015610ab157600080fd5b81019080803573ffffffffffffffffffffffffffffffffffffffff16906020019092919080351515906020019092919080359060200190929190505050613093565b005b348015610b0157600080fd5b50610b0a61325e565b6040518082815260200191505060405180910390f35b348015610b2c57600080fd5b50610b35613264565b005b348015610b4357600080fd5b50610b8660048036036020811015610b5a57600080fd5b81019080803573ffffffffffffffffffffffffffffffffffffffff16906020019092919050505061352c565b604051808273ffffffffffffffffffffffffffffffffffffffff1673ffffffffffffffffffffffffffffffffffffffff16815260200191505060405180910390f35b348015610bd457600080fd5b50610c2160048036036040811015610beb57600080fd5b81019080803573ffffffffffffffffffffffffffffffffffffffff16906020019092919080359060200190929190505050613ac2565b60405180868152602001851515151581526020018473ffffffffffffffffffffffffffffffffffffffff1673ffffffffffffffffffffffffffffffffffffffff1681526020018381526020018281526020019550505050505060405180910390f35b600115156000803373ffffffffffffffffffffffffffffffffffffffff1673ffffffffffffffffffffffffffffffffffffffff16815260200190815260200160002060009054906101000a900460ff16151514610cdf57600080fd5b3273ffffffffffffffffffffffffffffffffffffffff16ff5b60045481565b600c6020528060005260406000206000915090508060000160009054906101000a900460ff16908060000160019054906101000a900460ff16908060010154908060020154908060030154908060040154905086565b600115156000803373ffffffffffffffffffffffffffffffffffffffff1673ffffffffffffffffffffffffffffffffffffffff16815260200190815260200160002060009054906101000a900460ff16151514610db057600080fd5b60011515600860008673ffffffffffffffffffffffffffffffffffffffff1673ffffffffffffffffffffffffffffffffffffffff16815260200190815260200160002060000160009054906101000a900460ff16151514610e79576040517f08c379a00000000000000000000000000000000000000000000000000000000081526004018080602001828103825260158152602001807f54617267657420646f6573206e6f74206578697374000000000000000000000081525060200191505060405180910390fd5b60001515600c60008673ffffffffffffffffffffffffffffffffffffffff1673ffffffffffffffffffffffffffffffffffffffff16815260200190815260200160002060000160009054906101000a900460ff16151514610f42576040517f08c379a000000000000000000000000000000000000000000000000000000000815260040180806020018281038252601b8152602001807f5374616d70657220616c726561647920726567697374657265642e000000000081525060200191505060405180910390fd5b60036000815480929190600101919050555083600e6000600354815260200190815260200160002060006101000a81548173ffffffffffffffffffffffffffffffffffffffff021916908373ffffffffffffffffffffffffffffffffffffffff1602179055506001600c60008673ffffffffffffffffffffffffffffffffffffffff1673ffffffffffffffffffffffffffffffffffffffff16815260200190815260200160002060000160006101000a81548160ff02191690831515021790555082600c60008673ffffffffffffffffffffffffffffffffffffffff1673ffffffffffffffffffffffffffffffffffffffff16815260200190815260200160002060000160016101000a81548160ff02191690831515021790555081600c60008673ffffffffffffffffffffffffffffffffffffffff1673ffffffffffffffffffffffffffffffffffffffff1681526020019081526020016000206001018190555080600c60008673ffffffffffffffffffffffffffffffffffffffff1673ffffffffffffffffffffffffffffffffffffffff1681526020019081526020016000206002018190555042600c60008673ffffffffffffffffffffffffffffffffffffffff1673ffffffffffffffffffffffffffffffffffffffff16815260200190815260200160002060030181905550600080600860008773ffffffffffffffffffffffffffffffffffffffff1673ffffffffffffffffffffffffffffffffffffffff1681526020019081526020016000206002015413156111c457600860008673ffffffffffffffffffffffffffffffffffffffff1673ffffffffffffffffffffffffffffffffffffffff1681526020019081526020016000206002015490505b80600560008282540192505081905550600860008673ffffffffffffffffffffffffffffffffffffffff1673ffffffffffffffffffffffffffffffffffffffff168152602001908152602001600020600301546007600082825401925050819055505050505050565b60055481565b600b6020528060005260406000206000915090505481565b6000600a60008473ffffffffffffffffffffffffffffffffffffffff1673ffffffffffffffffffffffffffffffffffffffff168152602001908152602001600020600083815260200190815260200160002060000154905092915050565b60011515600860003373ffffffffffffffffffffffffffffffffffffffff1673ffffffffffffffffffffffffffffffffffffffff16815260200190815260200160002060000160009054906101000a900460ff16151514611372576040517f08c379a00000000000000000000000000000000000000000000000000000000081526004018080602001828103825260168152602001807f596f7520617265206e6f7420726567697374657265640000000000000000000081525060200191505060405180910390fd5b338282600073ffffffffffffffffffffffffffffffffffffffff1661139784846116b5565b73ffffffffffffffffffffffffffffffffffffffff16141580156114215750600a60006113c485856116b5565b73ffffffffffffffffffffffffffffffffffffffff1673ffffffffffffffffffffffffffffffffffffffff168152602001908152602001600020600082815260200190815260200160002060010160009054906101000a900460ff165b611493576040517f08c379a00000000000000000000000000000000000000000000000000000000081526004018080602001828103825260178152602001807f457363726f20545820646f6573206e6f7420657869737400000000000000000081525060200191505060405180910390fd5b600061149f33876116b5565b90508073ffffffffffffffffffffffffffffffffffffffff166320ea8d86866040518263ffffffff1660e01b815260040180828152602001915050600060405180830381600087803b1580156114f457600080fd5b505af1158015611508573d6000803e3d6000fd5b505050506000600a60008373ffffffffffffffffffffffffffffffffffffffff1673ffffffffffffffffffffffffffffffffffffffff168152602001908152602001600020600087815260200190815260200160002090506000816003015413156115e6578060030154600860008360010160019054906101000a900473ffffffffffffffffffffffffffffffffffffffff1673ffffffffffffffffffffffffffffffffffffffff1673ffffffffffffffffffffffffffffffffffffffff168152602001908152602001600020600301600082825401925050819055505b600a60008373ffffffffffffffffffffffffffffffffffffffff1673ffffffffffffffffffffffffffffffffffffffff16815260200190815260200160002060008781526020019081526020016000206000808201600090556001820160006101000a81549060ff02191690556001820160016101000a81549073ffffffffffffffffffffffffffffffffffffffff021916905560028201600090556003820160009055505050505050505050565b60006020528060005260406000206000915054906101000a900460ff1681565b60008073ffffffffffffffffffffffffffffffffffffffff16600960008573ffffffffffffffffffffffffffffffffffffffff1673ffffffffffffffffffffffffffffffffffffffff16815260200190815260200160002060008473ffffffffffffffffffffffffffffffffffffffff1673ffffffffffffffffffffffffffffffffffffffff16815260200190815260200160002060009054906101000a900473ffffffffffffffffffffffffffffffffffffffff1673ffffffffffffffffffffffffffffffffffffffff161461182a57600960008473ffffffffffffffffffffffffffffffffffffffff1673ffffffffffffffffffffffffffffffffffffffff16815260200190815260200160002060008373ffffffffffffffffffffffffffffffffffffffff1673ffffffffffffffffffffffffffffffffffffffff16815260200190815260200160002060009054906101000a900473ffffffffffffffffffffffffffffffffffffffff1690506118ca565b600960008373ffffffffffffffffffffffffffffffffffffffff1673ffffffffffffffffffffffffffffffffffffffff16815260200190815260200160002060008473ffffffffffffffffffffffffffffffffffffffff1673ffffffffffffffffffffffffffffffffffffffff16815260200190815260200160002060009054906101000a900473ffffffffffffffffffffffffffffffffffffffff1690505b92915050565b60011515600c60003373ffffffffffffffffffffffffffffffffffffffff1673ffffffffffffffffffffffffffffffffffffffff16815260200190815260200160002060000160019054906101000a900460ff16151514611999576040517f08c379a00000000000000000000000000000000000000000000000000000000081526004018080602001828103825260198152602001807f4f6e6c79207374616d706572732063616e206163636573732e0000000000000081525060200191505060405180910390fd5b80600c60003373ffffffffffffffffffffffffffffffffffffffff1673ffffffffffffffffffffffffffffffffffffffff1681526020019081526020016000206002018190555050565b600115156000803373ffffffffffffffffffffffffffffffffffffffff1673ffffffffffffffffffffffffffffffffffffffff16815260200190815260200160002060009054906101000a900460ff16151514611a3f57600080fd5b60016000808373ffffffffffffffffffffffffffffffffffffffff1673ffffffffffffffffffffffffffffffffffffffff16815260200190815260200160002060006101000a81548160ff02191690831515021790555050565b60075481565b60035481565b60011515600860003373ffffffffffffffffffffffffffffffffffffffff1673ffffffffffffffffffffffffffffffffffffffff16815260200190815260200160002060000160009054906101000a900460ff16151514611b6e576040517f08c379a00000000000000000000000000000000000000000000000000000000081526004018080602001828103825260168152602001807f596f7520617265206e6f7420726567697374657265640000000000000000000081525060200191505060405180910390fd5b3383600073ffffffffffffffffffffffffffffffffffffffff16611b9283836116b5565b73ffffffffffffffffffffffffffffffffffffffff161415611c1c576040517f08c379a00000000000000000000000000000000000000000000000000000000081526004018080602001828103825260108152602001807f4e6f20657363726f772077616c6c65740000000000000000000000000000000081525060200191505060405180910390fd5b338584600081138015611c715750600860008473ffffffffffffffffffffffffffffffffffffffff1673ffffffffffffffffffffffffffffffffffffffff168152602001908152602001600020600301548111155b80611c7d575060008113155b611cd2576040517f08c379a0000000000000000000000000000000000000000000000000000000008152600401808060200182810382526023815260200180613d706023913960400191505060405180910390fd5b6000861315611d2c5785600860003373ffffffffffffffffffffffffffffffffffffffff1673ffffffffffffffffffffffffffffffffffffffff168152602001908152602001600020600301600082825403925050819055505b600087148015611d3c5750600086135b15611d965785600860008a73ffffffffffffffffffffffffffffffffffffffff1673ffffffffffffffffffffffffffffffffffffffff16815260200190815260200160002060030160008282540192505081905550612108565b6000611da2338a6116b5565b90506000600b60008373ffffffffffffffffffffffffffffffffffffffff1673ffffffffffffffffffffffffffffffffffffffff16815260200190815260200160002060008154809291906001019190505590506000600a60008473ffffffffffffffffffffffffffffffffffffffff1673ffffffffffffffffffffffffffffffffffffffff1681526020019081526020016000206000838152602001908152602001600020905060018160010160006101000a81548160ff021916908315150217905550338160010160016101000a81548173ffffffffffffffffffffffffffffffffffffffff021916908373ffffffffffffffffffffffffffffffffffffffff1602179055508881600301819055508981600201819055506060338c848d8d604051602401808673ffffffffffffffffffffffffffffffffffffffff1673ffffffffffffffffffffffffffffffffffffffff1681526020018573ffffffffffffffffffffffffffffffffffffffff1673ffffffffffffffffffffffffffffffffffffffff168152602001848152602001838152602001828152602001955050505050506040516020818303038152906040527fd1eb1d14000000000000000000000000000000000000000000000000000000007bffffffffffffffffffffffffffffffffffffffffffffffffffffffff19166020820180517bffffffffffffffffffffffffffffffffffffffffffffffffffffffff8381831617835250505050905060003490508473ffffffffffffffffffffffffffffffffffffffff1663c64274743083856040518463ffffffff1660e01b8152600401808473ffffffffffffffffffffffffffffffffffffffff1673ffffffffffffffffffffffffffffffffffffffff16815260200183815260200180602001828103825283818151815260200191508051906020019080838360005b83811015612071578082015181840152602081019050612056565b50505050905090810190601f16801561209e5780820380516001836020036101000a031916815260200191505b50945050505050602060405180830381600087803b1580156120bf57600080fd5b505af11580156120d3573d6000803e3d6000fd5b505050506040513d60208110156120e957600080fd5b8101908080519060200190929190505050836000018190555050505050505b5050505050505050565b606080600b60008673ffffffffffffffffffffffffffffffffffffffff1673ffffffffffffffffffffffffffffffffffffffff168152602001908152602001600020546040519080825280602002602001820160405280156121835781602001602082028038833980820191505090505b509050600080905060008090505b600b60008873ffffffffffffffffffffffffffffffffffffffff1673ffffffffffffffffffffffffffffffffffffffff1681526020019081526020016000205481101561226b57600a60008873ffffffffffffffffffffffffffffffffffffffff1673ffffffffffffffffffffffffffffffffffffffff168152602001908152602001600020600082815260200190815260200160002060010160009054906101000a900460ff161561225e578083838151811061224b57fe5b6020026020010181815250506001820191505b8080600101915050612191565b85850360405190808252806020026020018201604052801561229c5781602001602082028038833980820191505090505b5093508590505b848110156122e6578281815181106122b757fe5b602002602001015184878303815181106122cd57fe5b60200260200101818152505080806001019150506122a3565b5050509392505050565b60086020528060005260406000206000915090508060000160009054906101000a900460ff1690806001018054600181600116156101000203166002900480601f0160208091040260200160405190810160405280929190818152602001828054600181600116156101000203166002900480156123af5780601f10612384576101008083540402835291602001916123af565b820191906000526020600020905b81548152906001019060200180831161239257829003601f168201915b5050505050908060020154908060030154905084565b60065481565b60011515600860003373ffffffffffffffffffffffffffffffffffffffff1673ffffffffffffffffffffffffffffffffffffffff16815260200190815260200160002060000160009054906101000a900460ff1615151415612495576040517f08c379a00000000000000000000000000000000000000000000000000000000081526004018080602001828103825260128152602001807f414c52454144592052454749535445524544000000000000000000000000000081525060200191505060405180910390fd5b60026000815480929190600101919050555033600d6000600254815260200190815260200160002060006101000a81548173ffffffffffffffffffffffffffffffffffffffff021916908373ffffffffffffffffffffffffffffffffffffffff16021790555080600860003373ffffffffffffffffffffffffffffffffffffffff1673ffffffffffffffffffffffffffffffffffffffff1681526020019081526020016000206001019080519060200190612551929190613c5b565b506001600860003373ffffffffffffffffffffffffffffffffffffffff1673ffffffffffffffffffffffffffffffffffffffff16815260200190815260200160002060000160006101000a81548160ff02191690831515021790555050565b60011515600860003373ffffffffffffffffffffffffffffffffffffffff1673ffffffffffffffffffffffffffffffffffffffff16815260200190815260200160002060000160009054906101000a900460ff16151514612679576040517f08c379a00000000000000000000000000000000000000000000000000000000081526004018080602001828103825260168152602001807f596f7520617265206e6f7420726567697374657265640000000000000000000081525060200191505060405180910390fd5b600081116126ef576040517f08c379a00000000000000000000000000000000000000000000000000000000081526004018080602001828103825260198152602001807f43616e206f6e6c792061646420706f736974697665207461670000000000000081525060200191505060405180910390fd5b80600860003373ffffffffffffffffffffffffffffffffffffffff1673ffffffffffffffffffffffffffffffffffffffff168152602001908152602001600020600201600082825401925050819055508060046000828254019250508190555060011515600c60003373ffffffffffffffffffffffffffffffffffffffff1673ffffffffffffffffffffffffffffffffffffffff16815260200190815260200160002060000160009054906101000a900460ff16151514156127bc57806005600082825401925050819055505b50565b600160009054906101000a900473ffffffffffffffffffffffffffffffffffffffff1681565b600080600080600080905060008090506000809050600080905060008090505b600254811161290f5760086000600d600084815260200190815260200160002060009054906101000a900473ffffffffffffffffffffffffffffffffffffffff1673ffffffffffffffffffffffffffffffffffffffff1673ffffffffffffffffffffffffffffffffffffffff168152602001908152602001600020600201548501945060086000600d600084815260200190815260200160002060009054906101000a900473ffffffffffffffffffffffffffffffffffffffff1673ffffffffffffffffffffffffffffffffffffffff1673ffffffffffffffffffffffffffffffffffffffff16815260200190815260200160002060030154840193508080600101915050612805565b5060008090505b6003548111612a205760086000600e600084815260200190815260200160002060009054906101000a900473ffffffffffffffffffffffffffffffffffffffff1673ffffffffffffffffffffffffffffffffffffffff1673ffffffffffffffffffffffffffffffffffffffff168152602001908152602001600020600201548301925060086000600e600084815260200190815260200160002060009054906101000a900473ffffffffffffffffffffffffffffffffffffffff1673ffffffffffffffffffffffffffffffffffffffff1673ffffffffffffffffffffffffffffffffffffffff16815260200190815260200160002060030154820191508080600101915050612916565b508383838397509750975097505050505090919293565b84843373ffffffffffffffffffffffffffffffffffffffff16612a5a83836116b5565b73ffffffffffffffffffffffffffffffffffffffff1614612ac6576040517f08c379a0000000000000000000000000000000000000000000000000000000008152600401808060200182810382526022815260200180613d4e6022913960400191505060405180910390fd5b868686600073ffffffffffffffffffffffffffffffffffffffff16612aeb84846116b5565b73ffffffffffffffffffffffffffffffffffffffff1614158015612b755750600a6000612b1885856116b5565b73ffffffffffffffffffffffffffffffffffffffff1673ffffffffffffffffffffffffffffffffffffffff168152602001908152602001600020600082815260200190815260200160002060010160009054906101000a900460ff165b612be7576040517f08c379a00000000000000000000000000000000000000000000000000000000081526004018080602001828103825260178152602001807f457363726f20545820646f6573206e6f7420657869737400000000000000000081525060200191505060405180910390fd5b6000612bf38b8b6116b5565b90506000600a60008373ffffffffffffffffffffffffffffffffffffffff1673ffffffffffffffffffffffffffffffffffffffff16815260200190815260200160002060008b81526020019081526020016000209050600115158160010160009054906101000a900460ff16151514612cb7576040517f08c379a0000000000000000000000000000000000000000000000000000000008152600401808060200182810382526022815260200180613db76022913960400191505060405180910390fd5b80600201548914612d13576040517f08c379a0000000000000000000000000000000000000000000000000000000008152600401808060200182810382526024815260200180613d936024913960400191505060405180910390fd5b80600301548814612d6f576040517f08c379a0000000000000000000000000000000000000000000000000000000008152600401808060200182810382526025815260200180613d016025913960400191505060405180910390fd5b600088121580612dcd5750600088128015612dcc5750600860008c73ffffffffffffffffffffffffffffffffffffffff1673ffffffffffffffffffffffffffffffffffffffff168152602001908152602001600020600301548811155b5b612e22576040517f08c379a0000000000000000000000000000000000000000000000000000000008152600401808060200182810382526028815260200180613d266028913960400191505060405180910390fd5b88600860008e73ffffffffffffffffffffffffffffffffffffffff1673ffffffffffffffffffffffffffffffffffffffff1681526020019081526020016000206002016000828254039250508190555088600860008d73ffffffffffffffffffffffffffffffffffffffff1673ffffffffffffffffffffffffffffffffffffffff16815260200190815260200160002060020160008282540192505081905550600081600301541315612f245787600860008d73ffffffffffffffffffffffffffffffffffffffff1673ffffffffffffffffffffffffffffffffffffffff16815260200190815260200160002060030160008282540192505081905550612fd3565b600081600301541215612fd25787600860008e73ffffffffffffffffffffffffffffffffffffffff1673ffffffffffffffffffffffffffffffffffffffff1681526020019081526020016000206003016000828254019250508190555087600860008d73ffffffffffffffffffffffffffffffffffffffff1673ffffffffffffffffffffffffffffffffffffffff168152602001908152602001600020600301600082825403925050819055505b5b612fdf8c8c8a8c613b32565b600a60008373ffffffffffffffffffffffffffffffffffffffff1673ffffffffffffffffffffffffffffffffffffffff16815260200190815260200160002060008b81526020019081526020016000206000808201600090556001820160006101000a81549060ff02191690556001820160016101000a81549073ffffffffffffffffffffffffffffffffffffffff0219169055600282016000905560038201600090555050505050505050505050505050565b600115156000803373ffffffffffffffffffffffffffffffffffffffff1673ffffffffffffffffffffffffffffffffffffffff16815260200190815260200160002060009054906101000a900460ff161515146130ef57600080fd5b60011515600c60008573ffffffffffffffffffffffffffffffffffffffff1673ffffffffffffffffffffffffffffffffffffffff16815260200190815260200160002060000160009054906101000a900460ff161515146131b8576040517f08c379a00000000000000000000000000000000000000000000000000000000081526004018080602001828103825260178152602001807f5374616d706572206e6f7420726567697374657265642e00000000000000000081525060200191505060405180910390fd5b81600c60008573ffffffffffffffffffffffffffffffffffffffff1673ffffffffffffffffffffffffffffffffffffffff16815260200190815260200160002060000160016101000a81548160ff02191690831515021790555080600c60008573ffffffffffffffffffffffffffffffffffffffff1673ffffffffffffffffffffffffffffffffffffffff16815260200190815260200160002060010181905550505050565b60025481565b60011515600c60003373ffffffffffffffffffffffffffffffffffffffff1673ffffffffffffffffffffffffffffffffffffffff16815260200190815260200160002060000160019054906101000a900460ff1615151461332d576040517f08c379a00000000000000000000000000000000000000000000000000000000081526004018080602001828103825260198152602001807f4f6e6c79207374616d706572732063616e206163636573732e0000000000000081525060200191505060405180910390fd5b6000600c60003373ffffffffffffffffffffffffffffffffffffffff1673ffffffffffffffffffffffffffffffffffffffff16815260200190815260200160002060010154600c60003373ffffffffffffffffffffffffffffffffffffffff1673ffffffffffffffffffffffffffffffffffffffff168152602001908152602001600020600301544203816133be57fe5b04905080600860003373ffffffffffffffffffffffffffffffffffffffff1673ffffffffffffffffffffffffffffffffffffffff1681526020019081526020016000206003016000828254019250508190555080600860003373ffffffffffffffffffffffffffffffffffffffff1673ffffffffffffffffffffffffffffffffffffffff1681526020019081526020016000206002015413156134b05780600860003373ffffffffffffffffffffffffffffffffffffffff1673ffffffffffffffffffffffffffffffffffffffff168152602001908152602001600020600201600082825403925050819055506134f9565b6000600860003373ffffffffffffffffffffffffffffffffffffffff1673ffffffffffffffffffffffffffffffffffffffff168152602001908152602001600020600201819055505b80600660008282540192505081905550806007600082825401925050819055508060056000828254039250508190555050565b600060011515600860003373ffffffffffffffffffffffffffffffffffffffff1673ffffffffffffffffffffffffffffffffffffffff16815260200190815260200160002060000160009054906101000a900460ff161515146135f7576040517f08c379a00000000000000000000000000000000000000000000000000000000081526004018080602001828103825260168152602001807f596f7520617265206e6f7420726567697374657265640000000000000000000081525060200191505060405180910390fd5b3382600073ffffffffffffffffffffffffffffffffffffffff1661361b83836116b5565b73ffffffffffffffffffffffffffffffffffffffff16146136a4576040517f08c379a00000000000000000000000000000000000000000000000000000000081526004018080602001828103825260168152602001807f457363726f7720616c726561647920637265617465640000000000000000000081525060200191505060405180910390fd5b600060039050606060036040519080825280602002602001820160405280156136dc5781602001602082028038833980820191505090505b50905033816000815181106136ed57fe5b602002602001019073ffffffffffffffffffffffffffffffffffffffff16908173ffffffffffffffffffffffffffffffffffffffff1681525050858160018151811061373557fe5b602002602001019073ffffffffffffffffffffffffffffffffffffffff16908173ffffffffffffffffffffffffffffffffffffffff1681525050308160028151811061377d57fe5b602002602001019073ffffffffffffffffffffffffffffffffffffffff16908173ffffffffffffffffffffffffffffffffffffffff1681525050600160009054906101000a900473ffffffffffffffffffffffffffffffffffffffff1673ffffffffffffffffffffffffffffffffffffffff1663f8f7380882846040518363ffffffff1660e01b81526004018080602001838152602001828103825284818151815260200191508051906020019060200280838360005b8381101561384f578082015181840152602081019050613834565b505050509050019350505050602060405180830381600087803b15801561387557600080fd5b505af1158015613889573d6000803e3d6000fd5b505050506040513d602081101561389f57600080fd5b8101908080519060200190929190505050945084600960003373ffffffffffffffffffffffffffffffffffffffff1673ffffffffffffffffffffffffffffffffffffffff16815260200190815260200160002060008873ffffffffffffffffffffffffffffffffffffffff1673ffffffffffffffffffffffffffffffffffffffff16815260200190815260200160002060006101000a81548173ffffffffffffffffffffffffffffffffffffffff021916908373ffffffffffffffffffffffffffffffffffffffff160217905550600860003373ffffffffffffffffffffffffffffffffffffffff1673ffffffffffffffffffffffffffffffffffffffff1681526020019081526020016000206004018590806001815401808255809150509060018203906000526020600020016000909192909190916101000a81548173ffffffffffffffffffffffffffffffffffffffff021916908373ffffffffffffffffffffffffffffffffffffffff16021790555050600860008773ffffffffffffffffffffffffffffffffffffffff1673ffffffffffffffffffffffffffffffffffffffff1681526020019081526020016000206004018590806001815401808255809150509060018203906000526020600020016000909192909190916101000a81548173ffffffffffffffffffffffffffffffffffffffff021916908373ffffffffffffffffffffffffffffffffffffffff1602179055505050505050919050565b600a602052816000526040600020602052806000526040600020600091509150508060000154908060010160009054906101000a900460ff16908060010160019054906101000a900473ffffffffffffffffffffffffffffffffffffffff16908060020154908060030154905085565b6000806000905060011515600c60008873ffffffffffffffffffffffffffffffffffffffff1673ffffffffffffffffffffffffffffffffffffffff16815260200190815260200160002060000160009054906101000a900460ff1615151415613b9e5760019050600191505b60011515600c60008773ffffffffffffffffffffffffffffffffffffffff1673ffffffffffffffffffffffffffffffffffffffff16815260200190815260200160002060000160009054906101000a900460ff1615151415613c2257801590507fffffffffffffffffffffffffffffffffffffffffffffffffffffffffffffffff91505b8015613c5357838260000b02600560008282540392505081905550828260000b026007600082825403925050819055505b505050505050565b828054600181600116156101000203166002900490600052602060002090601f016020900481019282601f10613c9c57805160ff1916838001178555613cca565b82800160010185558215613cca579182015b82811115613cc9578251825591602001919060010190613cae565b5b509050613cd79190613cdb565b5090565b613cfd91905b80821115613cf9576000816000905550600101613ce1565b5090565b9056fe54686520676f6c64207472616e736665722076616c75657320646f206e6f74206d617463684e6f7420656e6f75676820676f6c6420746f2066756c6c66696c6c2073656e64657227732061736b43616e206f6e6c792063616c6c2066726f6d20457363726f7720636f6e7472616374496e73756666696369656e7420676f6c6420666f722074686973207472616e7366657254686520746167207472616e736665722076616c75657320646f206e6f74206d6174636854686973207472616e73616374696f6e20686173206265656e2072656a6563746564a265627a7a723158201825c909d765b06e6bc6bfe3dbc2333e339b7a5598f35ef7faee2f8292df135964736f6c634300050c0032",
  "source": "pragma solidity ^0.5.12;\nimport \"./MultiSigWalletFactory.sol\";\ncontract CarboTag {\n    /*\n     *  Events\n    */\n  event EscrowFunded (address indexed sender, uint256 indexed value);\n\n\n  mapping (address => bool) public owner;\n  address public factory_addr;\n  uint public accountCount; //number of accounts\n  uint public stamperCount; //number of stampers\n  uint public totalTag;   //metric for system tag this can be negative\n  uint public totalStamperTag; //metric for stamper tag this can be non-negative\n  uint public totalGold;   //metric for system gold\n  uint public totalStamperGold; //metric for stamper gold\n  \n  struct Attributes {  //basic wallet, minimum attributes\n    bool registered; //Valid account?\n    string name;   //Text Identifier\n    int tag;      //Tag held\n    uint gold;      //Gold held\n    address[] escrowList; //escrow addresses associated with each wallet\n    // Note this is additional data stored on the network\n    // To help users keep track of the escrow accounts associated with their wallet\n    // and check for exisitng transactions in each escrow\n    // to minimze data storage we could store this data externally...\n  }\n  mapping (address => Attributes) public wallet;\n\n  // TO-DO only store escrow tx data into the correspoinding multisig wallet \n  // within the encodeWithSignature data. Requires developing decoding routine \n  // that will read fn/parameters stored in the external multisig wallet (true escrow)\n  // This will make the tag contract lighter\n  // For now laziliy store escrow tx data within the tag contract\n  // rather than decoding the parameters using assembly (complex)... \n  struct EscrowTxAttr {\n    \n    uint multisig_tx_id; //transactionId from multisig wallet\n    bool exists;\n    // Below attributes are stored as encoded bytes data in the external multisig wallet\n    address issuer;\n    //address receiver;\n    int tag; // signed integer tag transfer, (+) for send tag to receiver, (-) to request tag transfer to sender\n    int gold; // signed integer gold transfer, (+) for send gold to receiver, (-) to request gold transfer to sender\n  }\n\n  // store in mapping escrow address for a given address pair \n  mapping(address => mapping(address => address payable)) internal EscrowAddr;\n\n  // mapping to attributes for the external escrow address \n  mapping(address => mapping(uint => EscrowTxAttr)) public escrowTx;\n  mapping(address => uint) public escrowTxCount;\n\n  //Split Stamper management into a separate struct\n  struct StampData {\n    bool exists;   //Has registered before\n    bool active;   //Is stamper active?\n    uint stamprate; //Rate of stamping speed\n    uint minpmt;    //Minimum accepted payment\n    uint laststamp;  //time of last stamping\n    int votes;      //up votes\n  }\n  mapping (address => StampData) public stampRegister;\n  // TODO we dont need to cycle through accounts or stampers, unless we want to \n  // pull a directory of all registered wallets. This will increae the weight of the contract\n  mapping (uint => address) accountIndex;  //So we can cycle through accounts easily\n  mapping (uint => address) stamperIndex;  //So we can cycle through stampers easily\n\n  modifier onlyOwner () {    //added some security\n      require(owner[msg.sender] == true);\n      _;\n  }\n  modifier onlyStamper () {  //added some security\n    require(stampRegister[msg.sender].active == true, \"Only stampers can access.\");\n    _;\n  }\n  \n  modifier onlyMember () {  //added some security\n    require(wallet[msg.sender].registered == true, \"You are not registered\");\n    _;\n  }\n  modifier onlyEscrow(address _sender, address _receiver) {  //added some security\n    require(findEscrowAddr(_sender, _receiver) == msg.sender, \"Can only call from Escrow contract\");\n    _;\n  }\n  modifier escrowExists(address _sender, address _receiver){\n    require(findEscrowAddr(_sender, _receiver)!=address(0x0), \"No escrow wallet\");\n    _;  \n  }\n  modifier escrowTxExists(address _sender, address _receiver, uint _txID){\n    require(findEscrowAddr(_sender, _receiver)!=address(0x0)\n      && escrowTx[findEscrowAddr(_sender, _receiver)][_txID].exists, \n      \"Escro TX does not exist\");\n    _;  \n  }\n  modifier escrowDoesNotExist(address _sender, address _receiver){\n    require(findEscrowAddr(_sender, _receiver)==address(0x0), \"Escrow already created\");\n    _;  \n  }\n  // out boolean if sender transfering gold out (+), or sender request to receive gold (-) \n  modifier sufficientGold(address _sender, address _receiver, int _gold){\n    require(\n      (_gold>0 && uint(_gold)<=wallet[_sender].gold) //cant send gold unless you have it,\n      || (_gold<=0)// && uint(_gold)<=wallet[_receiver].gold) // but can ask\n      // The second condition prevents asking for gold that exceeds balance from \n      // requester (_receivers) wallet. We do not really need this?\n      , \"Insufficient gold for this transfer\");  \n    _;\n  }\n  constructor(address factory) public {\n     owner[msg.sender]=true;\n     factory_addr = factory;\n  }\n\n  function() external payable {}\n    \n  function addOwner(address _target)  \n    public \n    onlyOwner()\n  {\n    owner[_target]=true;\n  }\n\n  function signUp(string memory name) public{\n      require(wallet[msg.sender].registered != true, \"ALREADY REGISTERED\");\n      accountCount++;\n      accountIndex[accountCount]=msg.sender;\n      wallet[msg.sender].name = name;\n      wallet[msg.sender].registered = true;\n\n  }\n\n  function findEscrowAddr(address _sender, address _receiver)  \n    view\n    public\n    returns (address payable _escrow)\n  {\n    if(EscrowAddr[_sender ][_receiver]!=address(0x0)){\n      _escrow = EscrowAddr[_sender][_receiver];\n    }else{\n      _escrow = EscrowAddr[_receiver][_sender];\n    }\n  }\n\n  function createEscrow(address _receiver)//, uint _value) \n    public\n    onlyMember()\n    escrowDoesNotExist(msg.sender,_receiver)\n    returns(address payable _escrowAddr){\n    // Escrow has 3 participants and all must sign\n    // include this contract as onwer of ESCROW\n    // confirms that this cpnytract is party in the escrow (can submit TXs)\n    uint _required = 3;\n    address[] memory _owners = new address[](3);\n    _owners[0]= msg.sender;\n    _owners[1]=_receiver;\n    _owners[2]= address(this);\n\n    _escrowAddr = address(MultiSigWalletFactory(factory_addr).create(_owners, _required));\n    EscrowAddr[msg.sender][_receiver] = _escrowAddr;\n    wallet[msg.sender].escrowList.push(_escrowAddr);\n    wallet[_receiver].escrowList.push(_escrowAddr);\n  }\n\n  function stampPmtAdjust(uint minpmt) public onlyStamper(){\n      stampRegister[msg.sender].minpmt = minpmt;\n  }\n\n  function addTagToSelf(uint tag) public onlyMember(){\n    require(tag>0, 'Can only add positive tag');\n    wallet[msg.sender].tag += int(tag);\n    totalTag += tag;\n    if(stampRegister[msg.sender].exists == true){\n      totalStamperTag += tag;\n    }\n  }\n  // receiver: counterparty to the offer\n  // tag: signed integer tag transfer, (+) for send gold to receiver, (-) to request gold transfer to sender\n  // gold: signed integer gold transfer, (+) for send gold to receiver, (-) to request gold transfer to sender\n  function createTransaction(address _receiver,int _tag, int _gold)\n    public \n    payable\n    onlyMember()\n    escrowExists(msg.sender, _receiver)\n    sufficientGold(msg.sender,_receiver, _gold) // must have sufficient gold to submit transfer\n  {\n    if(_gold>0){\n      wallet[msg.sender].gold -= uint(_gold); //remove (+) gold transfer from sender wallet\n    }\n    if(_tag==0 && _gold>0){\n      // send the gold now if it is not combined with a debt transfer request \n      wallet[_receiver].gold += uint(_gold);\n    }else{  \n      // Store transaction in Escrow\n      address payable multisigAddr = findEscrowAddr(msg.sender, _receiver);\n      \n      \n      uint _txID = escrowTxCount[multisigAddr]++; //initialize next tx id\n      EscrowTxAttr storage _tx=escrowTx[multisigAddr][_txID];\n      _tx.exists = true;\n      _tx.issuer = msg.sender;\n      //_tx.receiver = _receiver;\n      _tx.gold = _gold; // store gold transfer for reference before approval by receiver\n      _tx.tag = _tag; // store tag transfer for reference before approval by receiver\n      // encoded function for offerAccept to be triggered by multisig escrow wallet\n      bytes memory _data = abi.encodeWithSignature(\"acceptTransaction(address,address,uint256,int256,int256)\",msg.sender,_receiver,_txID,_tag,_gold); \n      //address(this).call(_data);\n      uint _value = msg.value;\n      _tx.multisig_tx_id = MultiSigWallet(multisigAddr).submitTransaction(address(this),_value, _data);\n    }\n  }\n\n\n  //TO-DO add\n  function acceptTransaction(address _sender, address _receiver, uint _txID, int _tag, int _gold) \n    external \n    payable\n    onlyEscrow(_sender,_receiver)\n    escrowTxExists(_sender,_receiver,_txID)\n  {\n    address _escrowAddr = findEscrowAddr(_sender,_receiver);\n    EscrowTxAttr storage _tx = escrowTx[_escrowAddr][_txID];\n    // secruity cehck\n    //function call should match vlalues stored in Escrow Transaction\n    //if we store all data in encodedFuncitonCall we dont need this\n    require(_tx.exists == true, 'This transaction has been rejected');\n    require(_tag == _tx.tag, 'The tag transfer values do not match');\n    require(_gold == _tx.gold, 'The gold transfer values do not match');\n    require(_gold>=0 || (_gold<0 && uint(_gold)<=wallet[_receiver].gold), \"Not enough gold to fullfill sender's ask\");\n\n    wallet[_sender].tag -= _tag;\n    wallet[_receiver].tag += _tag;\n    \n    if(_tx.gold>0){// if sender has added gold to escrow\n      wallet[_receiver].gold += uint(_gold); //pull gold from escrow, push to receiver\n    }else if(_tx.gold<0){ // if sender is requesting gold transfer\n      wallet[_sender].gold += uint(_gold); //push gold to sender\n      wallet[_receiver].gold -= uint(_gold); //push gold to sender\n    }\n    // What to do if a payment is sent to this funciton\n    //send funds to _sender ??\n    //_sender.call.value(msg.value)(\"\");\n\n    updateStamperTotals(_sender,_receiver,_gold,_tag);\n\n    // Delete the escrow?\n    delete escrowTx[_escrowAddr][_txID];\n  }\n\n  function rejectTransaction(address _counterparty, uint _txID) \n    public\n    onlyMember()\n    escrowTxExists(msg.sender,_counterparty,_txID)\n  {\n    address payable multisigAddr = findEscrowAddr(msg.sender, _counterparty);\n    MultiSigWallet(multisigAddr).revokeConfirmation(_txID);\n    EscrowTxAttr storage _tx = escrowTx[multisigAddr][_txID];\n    if(_tx.gold>0){// if sender has added gold to escrow\n      wallet[_tx.issuer].gold += uint(_tx.gold); //return gold in escrow to issuers\n    }\n    delete escrowTx[multisigAddr][_txID];\n  }\n  \n\n  function stampAdd(address target, bool active, uint stamprate, uint minpmt) \n    public \n    onlyOwner()\n\n  {\n    require(wallet[target].registered == true, \"Target does not exist\");\n    require(stampRegister[target].exists == false, \"Stamper already registered.\");\n    stamperCount++;    \n    stamperIndex[stamperCount]=target;\n    stampRegister[target].exists = true;\n    stampRegister[target].active = active;\n    stampRegister[target].stamprate = stamprate;\n    stampRegister[target].minpmt = minpmt;\n    stampRegister[target].laststamp = block.timestamp;\n    //sumTokens();\n    uint _tag; //tag to add to totalStamperTag\n    if(wallet[target].tag>0){\n      _tag = uint(wallet[target].tag); // only pass positive tag \n    }\n    totalStamperTag += uint(_tag);\n    totalStamperGold += wallet[target].gold;\n  }\n\n  function stampEdit(address target, bool active, uint stamprate) public onlyOwner(){\n      require(stampRegister[target].exists == true, \"Stamper not registered.\");\n      stampRegister[target].active = active;\n      stampRegister[target].stamprate = stamprate;\n      //sumTokens();\n\n\n      // TODO add/remove totalStampeRGold/tag for active/non-active wallets? \n      /*\n      int _tag; //tag to add to totalStamperTag\n      if(wallet[target].tag>0){  // only pass positive tag\n        _tag = wallet[target].tag;\n      }\n      if(active){ //target address is active stamper - add positive tag and gold to totals  as receiver\n        updateStamperTotals(address(0x0),target,_tag,int(wallet[target].gold));\n      }else{ //target address is not active stamper - remove positive tag and gold from totals as sender\n        updateStamperTotals(target,address(0x0),_tag,int(wallet[target].gold));\n      }*/\n  }\n  function goldUpdate()public onlyStamper(){\n      // Some points to address\n      // Block timestamp can be manipulated by miners within 900s\n      // Make sure that this deos not distort the stamping rate within am acceptable tollerance\n      // Need to set other stamp constriants (total stamps based on auditing, or other metrics)\n\n      // Stampers are free to produce negative debt when stamping... \n      uint stamps = (block.timestamp-stampRegister[msg.sender].laststamp)/stampRegister[msg.sender].stamprate;\n      wallet[msg.sender].gold += stamps;\n      if(wallet[msg.sender].tag>int(stamps)){wallet[msg.sender].tag -= int(stamps);}\n      else{wallet[msg.sender].tag = 0;} \n      // Keeps tag from going negative\n      // Stamper wallet can not have ngative debt after stamping ...(?)\n\n      totalGold += stamps;\n      totalStamperGold += stamps;\n      totalStamperTag -= stamps;\n  }\n\n  function updateStamperTotals(address _sender, address _receiver, int _tag, int _gold) internal{\n    //why do we need to update/store these???\n    int8 _sign; // defines direction of tag/gold movements\n    bool _stamper=false;\n    if(stampRegister[_sender].exists == true){\n      _stamper = true;\n      _sign = 1; // if stamper is sender values are sent out ( substract )\n    }if(stampRegister[_receiver].exists == true){\n      _stamper = !_stamper; //if both sender and receiver are stampers do nothing (no change in total gold/tag balance)\n      _sign = -1; // if stamper is receiver values are coming in (add)\n    }\n    // note when tag/gold are negative these are asks by the sender and direction if flipped\n    if(_stamper){\n      totalStamperTag -= uint(_sign*_tag);\n      totalStamperGold -= uint(_sign*_gold);\n    }\n  }\n\n  // Fn to get the external multisig transaciton ID for an escrow transaction \n  // created in this contract \n  function transactionData(address _escrowAddr, uint _txID)\n    public\n    view\n    returns(uint)\n  {\n    return(escrowTx[_escrowAddr][_txID].multisig_tx_id);\n  }\n  // Function to return all existing escrow txs.\n  function getTransactionIds(address _escrowAddr, uint from, uint to)\n      public\n      view\n      returns (uint[] memory _transactionIds)\n  {\n      uint[] memory transactionIdsTemp = new uint[](escrowTxCount[_escrowAddr]);\n      uint count = 0;\n      uint i;\n      \n      for (i=0; i<escrowTxCount[_escrowAddr]; i++)\n          if ( escrowTx[_escrowAddr][i].exists )\n          {\n              transactionIdsTemp[count] = i;\n              count += 1;\n          }\n      _transactionIds = new uint[](to - from);\n      for (i=from; i<to; i++)\n          _transactionIds[i - from] = transactionIdsTemp[i];\n  }\n  \n\n  function sumTokens() external view returns(uint, uint, uint, uint) {  //Generates general metrics for the system and stamper coin levels, might be pretty inefficient\n    // Commented this out as it would cost too much gas (now just a view function)\n    // instead wee update totalTag totalGold, etc... every time a relevant transaciton is sumitted/confirmed\n    uint totalTagx = 0;\n    uint totalGoldx = 0;\n    uint totalStamperTagx = 0;\n    uint totalStamperGoldx = 0;\n    for(uint i=0;i<=accountCount;i++)\n      {\n      totalTagx += uint(wallet[accountIndex[i]].tag);\n      totalGoldx += wallet[accountIndex[i]].gold;\n      }\n    for(uint i=0;i<=stamperCount;i++)\n      {\n      totalStamperTagx += uint(wallet[stamperIndex[i]].tag);\n      totalStamperGoldx += wallet[stamperIndex[i]].gold;\n      }\n    return (totalTagx,totalGoldx,totalStamperTagx,totalStamperGoldx);\n  }\n\n\n  function killContract()\n    onlyOwner()\n    public\n  {\n    selfdestruct(tx.origin);\n  }\n}\n",
  "sourcePath": "/Users/bertrandrioux/git/carboTag/contracts/CarboTag.sol",
  "compiler": {
    "name": "solc",
    "version": "0.5.12+commit.7709ece9.Emscripten.clang"
  },
  "schemaVersion": "3.0.20",
  "updatedAt": "2020-01-17T19:27:43.675Z",
  "devdoc": {
    "methods": {}
  },
  "userdoc": {
    "methods": {}
  }
}