{
  "contractName": "CAT",
  "abi": [
    {
      "inputs": [
        {
          "internalType": "address",
          "name": "mswfactory",
          "type": "address"
        }
      ],
      "payable": false,
      "stateMutability": "nonpayable",
      "type": "constructor"
    },
    {
      "anonymous": false,
      "inputs": [
        {
          "indexed": true,
          "internalType": "address",
          "name": "sender",
          "type": "address"
        },
        {
          "indexed": true,
          "internalType": "uint256",
          "name": "value",
          "type": "uint256"
        }
      ],
      "name": "EscrowFunded",
      "type": "event"
    },
    {
      "payable": true,
      "stateMutability": "payable",
      "type": "fallback"
    },
    {
      "constant": true,
      "inputs": [
        {
          "internalType": "address",
          "name": "",
          "type": "address"
        },
        {
          "internalType": "uint256",
          "name": "",
          "type": "uint256"
        }
      ],
      "name": "escrowList",
      "outputs": [
        {
          "internalType": "address",
          "name": "",
          "type": "address"
        }
      ],
      "payable": false,
      "stateMutability": "view",
      "type": "function"
    },
    {
      "constant": true,
      "inputs": [
        {
          "internalType": "address",
          "name": "",
          "type": "address"
        },
        {
          "internalType": "uint256",
          "name": "",
          "type": "uint256"
        }
      ],
      "name": "escrowTx",
      "outputs": [
        {
          "internalType": "uint256",
          "name": "multisig_tx_id",
          "type": "uint256"
        },
        {
          "internalType": "bool",
          "name": "exists",
          "type": "bool"
        },
        {
          "internalType": "address",
          "name": "issuer",
          "type": "address"
        },
        {
          "internalType": "int256",
          "name": "carbon",
          "type": "int256"
        },
        {
          "internalType": "int256",
          "name": "gold",
          "type": "int256"
        }
      ],
      "payable": false,
      "stateMutability": "view",
      "type": "function"
    },
    {
      "constant": true,
      "inputs": [
        {
          "internalType": "address",
          "name": "",
          "type": "address"
        }
      ],
      "name": "escrowTxCount",
      "outputs": [
        {
          "internalType": "uint256",
          "name": "",
          "type": "uint256"
        }
      ],
      "payable": false,
      "stateMutability": "view",
      "type": "function"
    },
    {
      "constant": true,
      "inputs": [],
      "name": "factory_addr",
      "outputs": [
        {
          "internalType": "address",
          "name": "",
          "type": "address"
        }
      ],
      "payable": false,
      "stateMutability": "view",
      "type": "function"
    },
    {
      "constant": true,
      "inputs": [
        {
          "internalType": "address",
          "name": "",
          "type": "address"
        }
      ],
      "name": "governor",
      "outputs": [
        {
          "internalType": "bool",
          "name": "",
          "type": "bool"
        }
      ],
      "payable": false,
      "stateMutability": "view",
      "type": "function"
    },
    {
      "constant": true,
      "inputs": [],
      "name": "owner",
      "outputs": [
        {
          "internalType": "address",
          "name": "",
          "type": "address"
        }
      ],
      "payable": false,
      "stateMutability": "view",
      "type": "function"
    },
    {
      "constant": true,
      "inputs": [
        {
          "internalType": "address",
          "name": "",
          "type": "address"
        }
      ],
      "name": "registered",
      "outputs": [
        {
          "internalType": "bool",
          "name": "",
          "type": "bool"
        }
      ],
      "payable": false,
      "stateMutability": "view",
      "type": "function"
    },
    {
      "constant": true,
      "inputs": [],
      "name": "stamperCount",
      "outputs": [
        {
          "internalType": "uint256",
          "name": "",
          "type": "uint256"
        }
      ],
      "payable": false,
      "stateMutability": "view",
      "type": "function"
    },
    {
      "constant": true,
      "inputs": [
        {
          "internalType": "uint256",
          "name": "",
          "type": "uint256"
        }
      ],
      "name": "stamperIndex",
      "outputs": [
        {
          "internalType": "address",
          "name": "",
          "type": "address"
        }
      ],
      "payable": false,
      "stateMutability": "view",
      "type": "function"
    },
    {
      "constant": true,
      "inputs": [
        {
          "internalType": "address",
          "name": "",
          "type": "address"
        }
      ],
      "name": "stamperRegistry",
      "outputs": [
        {
          "internalType": "address",
          "name": "",
          "type": "address"
        }
      ],
      "payable": false,
      "stateMutability": "view",
      "type": "function"
    },
    {
      "constant": true,
      "inputs": [],
      "name": "totalCarbon",
      "outputs": [
        {
          "internalType": "uint256",
          "name": "",
          "type": "uint256"
        }
      ],
      "payable": false,
      "stateMutability": "view",
      "type": "function"
    },
    {
      "constant": true,
      "inputs": [],
      "name": "totalGold",
      "outputs": [
        {
          "internalType": "uint256",
          "name": "",
          "type": "uint256"
        }
      ],
      "payable": false,
      "stateMutability": "view",
      "type": "function"
    },
    {
      "constant": true,
      "inputs": [],
      "name": "totalStamperCarbon",
      "outputs": [
        {
          "internalType": "uint256",
          "name": "",
          "type": "uint256"
        }
      ],
      "payable": false,
      "stateMutability": "view",
      "type": "function"
    },
    {
      "constant": true,
      "inputs": [],
      "name": "totalStamperGold",
      "outputs": [
        {
          "internalType": "uint256",
          "name": "",
          "type": "uint256"
        }
      ],
      "payable": false,
      "stateMutability": "view",
      "type": "function"
    },
    {
      "constant": true,
      "inputs": [],
      "name": "userCount",
      "outputs": [
        {
          "internalType": "uint256",
          "name": "",
          "type": "uint256"
        }
      ],
      "payable": false,
      "stateMutability": "view",
      "type": "function"
    },
    {
      "constant": true,
      "inputs": [
        {
          "internalType": "uint256",
          "name": "",
          "type": "uint256"
        }
      ],
      "name": "userIndex",
      "outputs": [
        {
          "internalType": "address",
          "name": "",
          "type": "address"
        }
      ],
      "payable": false,
      "stateMutability": "view",
      "type": "function"
    },
    {
      "constant": true,
      "inputs": [
        {
          "internalType": "address",
          "name": "",
          "type": "address"
        }
      ],
      "name": "wallet",
      "outputs": [
        {
          "internalType": "string",
          "name": "name",
          "type": "string"
        },
        {
          "internalType": "int256",
          "name": "carbon",
          "type": "int256"
        },
        {
          "internalType": "uint256",
          "name": "gold",
          "type": "uint256"
        },
        {
          "internalType": "uint256",
          "name": "offsets",
          "type": "uint256"
        }
      ],
      "payable": false,
      "stateMutability": "view",
      "type": "function"
    },
    {
      "constant": true,
      "inputs": [
        {
          "internalType": "address",
          "name": "_address",
          "type": "address"
        }
      ],
      "name": "getEscrowList",
      "outputs": [
        {
          "internalType": "address[]",
          "name": "",
          "type": "address[]"
        }
      ],
      "payable": false,
      "stateMutability": "view",
      "type": "function"
    },
    {
      "constant": false,
      "inputs": [
        {
          "internalType": "address",
          "name": "_target",
          "type": "address"
        }
      ],
      "name": "addGovernor",
      "outputs": [],
      "payable": false,
      "stateMutability": "nonpayable",
      "type": "function"
    },
    {
      "constant": false,
      "inputs": [
        {
          "internalType": "string",
          "name": "name",
          "type": "string"
        }
      ],
      "name": "signUp",
      "outputs": [],
      "payable": false,
      "stateMutability": "nonpayable",
      "type": "function"
    },
    {
      "constant": true,
      "inputs": [
        {
          "internalType": "address",
          "name": "_sender",
          "type": "address"
        },
        {
          "internalType": "address",
          "name": "_receiver",
          "type": "address"
        }
      ],
      "name": "findEscrowAddr",
      "outputs": [
        {
          "internalType": "address payable",
          "name": "_escrow",
          "type": "address"
        }
      ],
      "payable": false,
      "stateMutability": "view",
      "type": "function"
    },
    {
      "constant": false,
      "inputs": [
        {
          "internalType": "address",
          "name": "_receiver",
          "type": "address"
        }
      ],
      "name": "createEscrow",
      "outputs": [
        {
          "internalType": "address payable",
          "name": "_escrowAddr",
          "type": "address"
        }
      ],
      "payable": false,
      "stateMutability": "nonpayable",
      "type": "function"
    },
    {
      "constant": false,
      "inputs": [
        {
          "internalType": "uint256",
          "name": "carbon",
          "type": "uint256"
        }
      ],
      "name": "addCarbon",
      "outputs": [],
      "payable": false,
      "stateMutability": "nonpayable",
      "type": "function"
    },
    {
      "constant": false,
      "inputs": [
        {
          "internalType": "address",
          "name": "_receiver",
          "type": "address"
        },
        {
          "internalType": "int256",
          "name": "_carbon",
          "type": "int256"
        },
        {
          "internalType": "int256",
          "name": "_gold",
          "type": "int256"
        }
      ],
      "name": "createTransaction",
      "outputs": [],
      "payable": true,
      "stateMutability": "payable",
      "type": "function"
    },
    {
      "constant": false,
      "inputs": [
        {
          "internalType": "address",
          "name": "_sender",
          "type": "address"
        },
        {
          "internalType": "address",
          "name": "_receiver",
          "type": "address"
        },
        {
          "internalType": "uint256",
          "name": "_txID",
          "type": "uint256"
        },
        {
          "internalType": "int256",
          "name": "_carbon",
          "type": "int256"
        },
        {
          "internalType": "int256",
          "name": "_gold",
          "type": "int256"
        }
      ],
      "name": "acceptTransaction",
      "outputs": [],
      "payable": true,
      "stateMutability": "payable",
      "type": "function"
    },
    {
      "constant": false,
      "inputs": [
        {
          "internalType": "address",
          "name": "_counterparty",
          "type": "address"
        },
        {
          "internalType": "uint256",
          "name": "_txID",
          "type": "uint256"
        }
      ],
      "name": "rejectTransaction",
      "outputs": [],
      "payable": false,
      "stateMutability": "nonpayable",
      "type": "function"
    },
    {
      "constant": false,
      "inputs": [
        {
          "internalType": "address",
          "name": "target",
          "type": "address"
        },
        {
          "internalType": "uint256",
          "name": "stamprate",
          "type": "uint256"
        },
        {
          "internalType": "uint256",
          "name": "minpmt",
          "type": "uint256"
        }
      ],
      "name": "addStamper",
      "outputs": [],
      "payable": false,
      "stateMutability": "nonpayable",
      "type": "function"
    },
    {
      "constant": false,
      "inputs": [
        {
          "internalType": "uint256",
          "name": "stamps",
          "type": "uint256"
        },
        {
          "internalType": "address",
          "name": "stamper",
          "type": "address"
        }
      ],
      "name": "updateGold",
      "outputs": [],
      "payable": false,
      "stateMutability": "nonpayable",
      "type": "function"
    },
    {
      "constant": true,
      "inputs": [
        {
          "internalType": "address",
          "name": "_escrowAddr",
          "type": "address"
        },
        {
          "internalType": "uint256",
          "name": "_txID",
          "type": "uint256"
        }
      ],
      "name": "transactionData",
      "outputs": [
        {
          "internalType": "uint256",
          "name": "",
          "type": "uint256"
        }
      ],
      "payable": false,
      "stateMutability": "view",
      "type": "function"
    },
    {
      "constant": true,
      "inputs": [
        {
          "internalType": "address",
          "name": "_escrowAddr",
          "type": "address"
        },
        {
          "internalType": "uint256",
          "name": "from",
          "type": "uint256"
        },
        {
          "internalType": "uint256",
          "name": "to",
          "type": "uint256"
        }
      ],
      "name": "getTransactionIds",
      "outputs": [
        {
          "internalType": "uint256[]",
          "name": "_transactionIds",
          "type": "uint256[]"
        }
      ],
      "payable": false,
      "stateMutability": "view",
      "type": "function"
    },
    {
      "constant": false,
      "inputs": [
        {
          "internalType": "uint256",
          "name": "_gold",
          "type": "uint256"
        }
      ],
      "name": "lockOffset",
      "outputs": [],
      "payable": false,
      "stateMutability": "nonpayable",
      "type": "function"
    },
    {
      "constant": false,
      "inputs": [
        {
          "internalType": "address",
          "name": "_newOwner",
          "type": "address"
        }
      ],
      "name": "changeOwner",
      "outputs": [],
      "payable": false,
      "stateMutability": "nonpayable",
      "type": "function"
    },
    {
      "constant": false,
      "inputs": [],
      "name": "killContract",
      "outputs": [],
      "payable": false,
      "stateMutability": "nonpayable",
      "type": "function"
    }
  ],
  "bytecode": "0x608060405234801561001057600080fd5b5060405162006117380380620061178339818101604052602081101561003557600080fd5b8101908080519060200190929190505050336000806101000a81548173ffffffffffffffffffffffffffffffffffffffff021916908373ffffffffffffffffffffffffffffffffffffffff16021790555060018060003373ffffffffffffffffffffffffffffffffffffffff1673ffffffffffffffffffffffffffffffffffffffff16815260200190815260200160002060006101000a81548160ff02191690831515021790555080600260006101000a81548173ffffffffffffffffffffffffffffffffffffffff021916908373ffffffffffffffffffffffffffffffffffffffff16021790555050615fe8806200012f6000396000f3fe6080604052600436106200021e5760003560e01c80637dbad26c1162000127578063adcfb4fc11620000af578063c37dfd6e1162000079578063c37dfd6e1462000d82578063d1eb1d141462000e01578063d7e41f6a1462000e86578063f6a8419e1462000eef578063fa60bb9f1462000f84576200021e565b8063adcfb4fc1462000b6d578063b2dd5c071462000c3c578063b9e7373e1462000ca9578063bf4cf4ff1462000d28576200021e565b80639d34652611620000f15780639d3465261462000944578063a56cc4391462000a04578063a6f9dae11462000aea578063a9f48f8d1462000b3f576200021e565b80637dbad26c14620007715780638574c93a146200079f5780638da5cb5b146200084b5780639b9ffbf314620008a5576200021e565b80635c08558911620001ab57806370ec42e8116200017557806370ec42e8146200064d57806373b23b4114620006ba57806375a674a714620006e8578063766f1d3d1462000716576200021e565b80635c08558914620004cc5780635c716a1f146200052b5780636ae39f60146200056a5780636b0cef8c146200061f576200021e565b80633c4a25d011620001ed5780633c4a25d0146200035c578063518b7eb914620003b157806354da6d18146200041a57806356814c75146200048d576200021e565b806307973ccf14620002205780631c02708d146200024e57806324caaade1462000268578063341abf4914620002fd575b005b3480156200022d57600080fd5b506200023862001043565b6040518082815260200191505060405180910390f35b3480156200025b57600080fd5b506200026662001049565b005b3480156200027557600080fd5b50620002bb600480360360208110156200028e57600080fd5b81019080803573ffffffffffffffffffffffffffffffffffffffff16906020019092919050505062001109565b604051808273ffffffffffffffffffffffffffffffffffffffff1673ffffffffffffffffffffffffffffffffffffffff16815260200191505060405180910390f35b3480156200030a57600080fd5b506200035a600480360360408110156200032357600080fd5b8101908080359060200190929190803573ffffffffffffffffffffffffffffffffffffffff1690602001909291905050506200113c565b005b3480156200036957600080fd5b50620003af600480360360208110156200038257600080fd5b81019080803573ffffffffffffffffffffffffffffffffffffffff169060200190929190505050620013ff565b005b348015620003be57600080fd5b506200040460048036036020811015620003d757600080fd5b81019080803573ffffffffffffffffffffffffffffffffffffffff16906020019092919050505062001500565b6040518082815260200191505060405180910390f35b3480156200042757600080fd5b5062000477600480360360408110156200044057600080fd5b81019080803573ffffffffffffffffffffffffffffffffffffffff1690602001909291908035906020019092919050505062001518565b6040518082815260200191505060405180910390f35b3480156200049a57600080fd5b50620004ca60048036036020811015620004b357600080fd5b810190808035906020019092919050505062001576565b005b348015620004d957600080fd5b506200052960048036036040811015620004f257600080fd5b81019080803573ffffffffffffffffffffffffffffffffffffffff169060200190929190803590602001909291905050506200177d565b005b3480156200053857600080fd5b5062000568600480360360208110156200055157600080fd5b810190808035906020019092919050505062001b72565b005b3480156200057757600080fd5b50620005dd600480360360408110156200059057600080fd5b81019080803573ffffffffffffffffffffffffffffffffffffffff169060200190929190803573ffffffffffffffffffffffffffffffffffffffff16906020019092919050505062001db8565b604051808273ffffffffffffffffffffffffffffffffffffffff1673ffffffffffffffffffffffffffffffffffffffff16815260200191505060405180910390f35b3480156200062c57600080fd5b506200063762001fd5565b6040518082815260200191505060405180910390f35b3480156200065a57600080fd5b50620006a0600480360360208110156200067357600080fd5b81019080803573ffffffffffffffffffffffffffffffffffffffff16906020019092919050505062001fdb565b604051808215151515815260200191505060405180910390f35b348015620006c757600080fd5b50620006d262001ffb565b6040518082815260200191505060405180910390f35b348015620006f557600080fd5b506200070062002001565b6040518082815260200191505060405180910390f35b6200076f600480360360608110156200072e57600080fd5b81019080803573ffffffffffffffffffffffffffffffffffffffff169060200190929190803590602001909291908035906020019092919050505062002007565b005b3480156200077e57600080fd5b5062000789620027e7565b6040518082815260200191505060405180910390f35b348015620007ac57600080fd5b50620007f260048036036020811015620007c557600080fd5b81019080803573ffffffffffffffffffffffffffffffffffffffff169060200190929190505050620027ed565b6040518080602001828103825283818151815260200191508051906020019060200280838360005b83811015620008375780820151818401526020810190506200081a565b505050509050019250505060405180910390f35b3480156200085857600080fd5b5062000863620028bc565b604051808273ffffffffffffffffffffffffffffffffffffffff1673ffffffffffffffffffffffffffffffffffffffff16815260200191505060405180910390f35b348015620008b257600080fd5b506200090260048036036040811015620008cb57600080fd5b81019080803573ffffffffffffffffffffffffffffffffffffffff16906020019092919080359060200190929190505050620028e1565b604051808273ffffffffffffffffffffffffffffffffffffffff1673ffffffffffffffffffffffffffffffffffffffff16815260200191505060405180910390f35b3480156200095157600080fd5b50620009ab600480360360608110156200096a57600080fd5b81019080803573ffffffffffffffffffffffffffffffffffffffff16906020019092919080359060200190929190803590602001909291905050506200292d565b6040518080602001828103825283818151815260200191508051906020019060200280838360005b83811015620009f0578082015181840152602081019050620009d3565b505050509050019250505060405180910390f35b34801562000a1157600080fd5b5062000a576004803603602081101562000a2a57600080fd5b81019080803573ffffffffffffffffffffffffffffffffffffffff16906020019092919050505062002b15565b6040518080602001858152602001848152602001838152602001828103825286818151815260200191508051906020019080838360005b8381101562000aab57808201518184015260208101905062000a8e565b50505050905090810190601f16801562000ad95780820380516001836020036101000a031916815260200191505b509550505050505060405180910390f35b34801562000af757600080fd5b5062000b3d6004803603602081101562000b1057600080fd5b81019080803573ffffffffffffffffffffffffffffffffffffffff16906020019092919050505062002be1565b005b34801562000b4c57600080fd5b5062000b5762002ccb565b6040518082815260200191505060405180910390f35b34801562000b7a57600080fd5b5062000c3a6004803603602081101562000b9357600080fd5b810190808035906020019064010000000081111562000bb157600080fd5b82018360208201111562000bc457600080fd5b8035906020019184600183028401116401000000008311171562000be757600080fd5b91908080601f016020809104026020016040519081016040528093929190818152602001838380828437600081840152601f19601f82011690508083019250505050505050919291929050505062002cd1565b005b34801562000c4957600080fd5b5062000c8f6004803603602081101562000c6257600080fd5b81019080803573ffffffffffffffffffffffffffffffffffffffff16906020019092919050505062002eaf565b604051808215151515815260200191505060405180910390f35b34801562000cb657600080fd5b5062000ce66004803603602081101562000ccf57600080fd5b810190808035906020019092919050505062002ecf565b604051808273ffffffffffffffffffffffffffffffffffffffff1673ffffffffffffffffffffffffffffffffffffffff16815260200191505060405180910390f35b34801562000d3557600080fd5b5062000d4062002f02565b604051808273ffffffffffffffffffffffffffffffffffffffff1673ffffffffffffffffffffffffffffffffffffffff16815260200191505060405180910390f35b34801562000d8f57600080fd5b5062000dbf6004803603602081101562000da857600080fd5b810190808035906020019092919050505062002f28565b604051808273ffffffffffffffffffffffffffffffffffffffff1673ffffffffffffffffffffffffffffffffffffffff16815260200191505060405180910390f35b62000e84600480360360a081101562000e1957600080fd5b81019080803573ffffffffffffffffffffffffffffffffffffffff169060200190929190803573ffffffffffffffffffffffffffffffffffffffff16906020019092919080359060200190929190803590602001909291908035906020019092919050505062002f5b565b005b34801562000e9357600080fd5b5062000eed6004803603606081101562000eac57600080fd5b81019080803573ffffffffffffffffffffffffffffffffffffffff1690602001909291908035906020019092919080359060200190929190505050620036e5565b005b34801562000efc57600080fd5b5062000f426004803603602081101562000f1557600080fd5b81019080803573ffffffffffffffffffffffffffffffffffffffff16906020019092919050505062003ace565b604051808273ffffffffffffffffffffffffffffffffffffffff1673ffffffffffffffffffffffffffffffffffffffff16815260200191505060405180910390f35b34801562000f9157600080fd5b5062000fe16004803603604081101562000faa57600080fd5b81019080803573ffffffffffffffffffffffffffffffffffffffff1690602001909291908035906020019092919050505062004068565b60405180868152602001851515151581526020018473ffffffffffffffffffffffffffffffffffffffff1673ffffffffffffffffffffffffffffffffffffffff1681526020018381526020018281526020019550505050505060405180910390f35b60105481565b6000809054906101000a900473ffffffffffffffffffffffffffffffffffffffff1673ffffffffffffffffffffffffffffffffffffffff163373ffffffffffffffffffffffffffffffffffffffff1614620010f0576040517f08c379a000000000000000000000000000000000000000000000000000000000815260040180806020018281038252602381526020018062005ebb6023913960400191505060405180910390fd5b3273ffffffffffffffffffffffffffffffffffffffff16ff5b600d6020528060005260406000206000915054906101000a900473ffffffffffffffffffffffffffffffffffffffff1681565b803373ffffffffffffffffffffffffffffffffffffffff16600d60008373ffffffffffffffffffffffffffffffffffffffff1673ffffffffffffffffffffffffffffffffffffffff16815260200190815260200160002060009054906101000a900473ffffffffffffffffffffffffffffffffffffffff1673ffffffffffffffffffffffffffffffffffffffff161462001222576040517f08c379a000000000000000000000000000000000000000000000000000000000815260040180806020018281038252602381526020018062005f4c6023913960400191505060405180910390fd5b600083600760008573ffffffffffffffffffffffffffffffffffffffff1673ffffffffffffffffffffffffffffffffffffffff1681526020019081526020016000206002016000828254019250508190555083600760008573ffffffffffffffffffffffffffffffffffffffff1673ffffffffffffffffffffffffffffffffffffffff168152602001908152602001600020600101541315620013155783600760008573ffffffffffffffffffffffffffffffffffffffff1673ffffffffffffffffffffffffffffffffffffffff16815260200190815260200160002060010160008282540392505081905550620013b5565b6000600760008573ffffffffffffffffffffffffffffffffffffffff1673ffffffffffffffffffffffffffffffffffffffff1681526020019081526020016000206001018190555083600360008282540192505081905550600760008473ffffffffffffffffffffffffffffffffffffffff1673ffffffffffffffffffffffffffffffffffffffff16815260200190815260200160002060010154840390505b836004600082825401925050819055508381036003600082825401925050819055508360066000828254019250508190555083810360056000828254019250508190555050505050565b6000809054906101000a900473ffffffffffffffffffffffffffffffffffffffff1673ffffffffffffffffffffffffffffffffffffffff163373ffffffffffffffffffffffffffffffffffffffff1614620014a6576040517f08c379a000000000000000000000000000000000000000000000000000000000815260040180806020018281038252602381526020018062005ebb6023913960400191505060405180910390fd5b60018060008373ffffffffffffffffffffffffffffffffffffffff1673ffffffffffffffffffffffffffffffffffffffff16815260200190815260200160002060006101000a81548160ff02191690831515021790555050565b600c6020528060005260406000206000915090505481565b6000600b60008473ffffffffffffffffffffffffffffffffffffffff1673ffffffffffffffffffffffffffffffffffffffff168152602001908152602001600020600083815260200190815260200160002060000154905092915050565b60011515600860003373ffffffffffffffffffffffffffffffffffffffff1673ffffffffffffffffffffffffffffffffffffffff16815260200190815260200160002060009054906101000a900460ff161515146200163d576040517f08c379a00000000000000000000000000000000000000000000000000000000081526004018080602001828103825260168152602001807f596f7520617265206e6f7420726567697374657265640000000000000000000081525060200191505060405180910390fd5b600760003373ffffffffffffffffffffffffffffffffffffffff1673ffffffffffffffffffffffffffffffffffffffff16815260200190815260200160002060020154811115620016da576040517f08c379a000000000000000000000000000000000000000000000000000000000815260040180806020018281038252602581526020018062005ede6025913960400191505060405180910390fd5b80600760003373ffffffffffffffffffffffffffffffffffffffff1673ffffffffffffffffffffffffffffffffffffffff1681526020019081526020016000206002016000828254039250508190555080600760003373ffffffffffffffffffffffffffffffffffffffff1673ffffffffffffffffffffffffffffffffffffffff1681526020019081526020016000206003016000828254019250508190555050565b60011515600860003373ffffffffffffffffffffffffffffffffffffffff1673ffffffffffffffffffffffffffffffffffffffff16815260200190815260200160002060009054906101000a900460ff1615151462001844576040517f08c379a00000000000000000000000000000000000000000000000000000000081526004018080602001828103825260168152602001807f596f7520617265206e6f7420726567697374657265640000000000000000000081525060200191505060405180910390fd5b338282600073ffffffffffffffffffffffffffffffffffffffff166200186b848462001db8565b73ffffffffffffffffffffffffffffffffffffffff1614158015620018f85750600b60006200189b858562001db8565b73ffffffffffffffffffffffffffffffffffffffff1673ffffffffffffffffffffffffffffffffffffffff168152602001908152602001600020600082815260200190815260200160002060010160009054906101000a900460ff165b6200196b576040517f08c379a00000000000000000000000000000000000000000000000000000000081526004018080602001828103825260178152602001807f457363726f20545820646f6573206e6f7420657869737400000000000000000081525060200191505060405180910390fd5b600062001979338762001db8565b90508073ffffffffffffffffffffffffffffffffffffffff166320ea8d86866040518263ffffffff1660e01b815260040180828152602001915050600060405180830381600087803b158015620019cf57600080fd5b505af1158015620019e4573d6000803e3d6000fd5b505050506000600b60008373ffffffffffffffffffffffffffffffffffffffff1673ffffffffffffffffffffffffffffffffffffffff1681526020019081526020016000206000878152602001908152602001600020905060008160030154131562001ac3578060030154600760008360010160019054906101000a900473ffffffffffffffffffffffffffffffffffffffff1673ffffffffffffffffffffffffffffffffffffffff1673ffffffffffffffffffffffffffffffffffffffff168152602001908152602001600020600201600082825401925050819055505b600b60008373ffffffffffffffffffffffffffffffffffffffff1673ffffffffffffffffffffffffffffffffffffffff16815260200190815260200160002060008781526020019081526020016000206000808201600090556001820160006101000a81549060ff02191690556001820160016101000a81549073ffffffffffffffffffffffffffffffffffffffff021916905560028201600090556003820160009055505050505050505050565b60011515600860003373ffffffffffffffffffffffffffffffffffffffff1673ffffffffffffffffffffffffffffffffffffffff16815260200190815260200160002060009054906101000a900460ff1615151462001c39576040517f08c379a00000000000000000000000000000000000000000000000000000000081526004018080602001828103825260168152602001807f596f7520617265206e6f7420726567697374657265640000000000000000000081525060200191505060405180910390fd5b6000811162001cb0576040517f08c379a000000000000000000000000000000000000000000000000000000000815260040180806020018281038252601c8152602001807f43616e206f6e6c792061646420706f73697469766520636172626f6e0000000081525060200191505060405180910390fd5b80600760003373ffffffffffffffffffffffffffffffffffffffff1673ffffffffffffffffffffffffffffffffffffffff1681526020019081526020016000206001016000828254019250508190555080600360008282540192505081905550600073ffffffffffffffffffffffffffffffffffffffff16600d60003373ffffffffffffffffffffffffffffffffffffffff1673ffffffffffffffffffffffffffffffffffffffff16815260200190815260200160002060009054906101000a900473ffffffffffffffffffffffffffffffffffffffff1673ffffffffffffffffffffffffffffffffffffffff161462001db557806005600082825401925050819055505b50565b60008073ffffffffffffffffffffffffffffffffffffffff16600960008573ffffffffffffffffffffffffffffffffffffffff1673ffffffffffffffffffffffffffffffffffffffff16815260200190815260200160002060008473ffffffffffffffffffffffffffffffffffffffff1673ffffffffffffffffffffffffffffffffffffffff16815260200190815260200160002060009054906101000a900473ffffffffffffffffffffffffffffffffffffffff1673ffffffffffffffffffffffffffffffffffffffff161462001f2f57600960008473ffffffffffffffffffffffffffffffffffffffff1673ffffffffffffffffffffffffffffffffffffffff16815260200190815260200160002060008373ffffffffffffffffffffffffffffffffffffffff1673ffffffffffffffffffffffffffffffffffffffff16815260200190815260200160002060009054906101000a900473ffffffffffffffffffffffffffffffffffffffff16905062001fcf565b600960008373ffffffffffffffffffffffffffffffffffffffff1673ffffffffffffffffffffffffffffffffffffffff16815260200190815260200160002060008473ffffffffffffffffffffffffffffffffffffffff1673ffffffffffffffffffffffffffffffffffffffff16815260200190815260200160002060009054906101000a900473ffffffffffffffffffffffffffffffffffffffff1690505b92915050565b60055481565b60016020528060005260406000206000915054906101000a900460ff1681565b60065481565b60115481565b60011515600860003373ffffffffffffffffffffffffffffffffffffffff1673ffffffffffffffffffffffffffffffffffffffff16815260200190815260200160002060009054906101000a900460ff16151514620020ce576040517f08c379a00000000000000000000000000000000000000000000000000000000081526004018080602001828103825260168152602001807f596f7520617265206e6f7420726567697374657265640000000000000000000081525060200191505060405180910390fd5b3383600073ffffffffffffffffffffffffffffffffffffffff16620020f4838362001db8565b73ffffffffffffffffffffffffffffffffffffffff1614156200217f576040517f08c379a00000000000000000000000000000000000000000000000000000000081526004018080602001828103825260108152602001807f4e6f20657363726f772077616c6c65740000000000000000000000000000000081525060200191505060405180910390fd5b338584600081138015620021d55750600760008473ffffffffffffffffffffffffffffffffffffffff1673ffffffffffffffffffffffffffffffffffffffff168152602001908152602001600020600201548111155b8062002231575060008113158015620022305750600760008373ffffffffffffffffffffffffffffffffffffffff1673ffffffffffffffffffffffffffffffffffffffff168152602001908152602001600020600201548111155b5b62002288576040517f08c379a000000000000000000000000000000000000000000000000000000000815260040180806020018281038252602381526020018062005f6f6023913960400191505060405180910390fd5b6000861315620022e35785600760003373ffffffffffffffffffffffffffffffffffffffff1673ffffffffffffffffffffffffffffffffffffffff168152602001908152602001600020600201600082825403925050819055505b600087148015620022f45750600086135b15620023505785600760008a73ffffffffffffffffffffffffffffffffffffffff1673ffffffffffffffffffffffffffffffffffffffff16815260200190815260200160002060020160008282540192505081905550620027dd565b60006200235e338a62001db8565b9050600080600090505b600c60008473ffffffffffffffffffffffffffffffffffffffff1673ffffffffffffffffffffffffffffffffffffffff1681526020019081526020016000205481116200242c57600b60008473ffffffffffffffffffffffffffffffffffffffff1673ffffffffffffffffffffffffffffffffffffffff168152602001908152602001600020600082815260200190815260200160002060010160009054906101000a900460ff166200241e578091506200242c565b808060010191505062002368565b50600c60008373ffffffffffffffffffffffffffffffffffffffff1673ffffffffffffffffffffffffffffffffffffffff16815260200190815260200160002054811415620024c557600c60008373ffffffffffffffffffffffffffffffffffffffff1673ffffffffffffffffffffffffffffffffffffffff168152602001908152602001600020600081548092919060010191905055505b6000600b60008473ffffffffffffffffffffffffffffffffffffffff1673ffffffffffffffffffffffffffffffffffffffff1681526020019081526020016000206000838152602001908152602001600020905060018160010160006101000a81548160ff021916908315150217905550338160010160016101000a81548173ffffffffffffffffffffffffffffffffffffffff021916908373ffffffffffffffffffffffffffffffffffffffff1602179055508881600301819055508981600201819055506060338c848d8d604051602401808673ffffffffffffffffffffffffffffffffffffffff1673ffffffffffffffffffffffffffffffffffffffff1681526020018573ffffffffffffffffffffffffffffffffffffffff1673ffffffffffffffffffffffffffffffffffffffff168152602001848152602001838152602001828152602001955050505050506040516020818303038152906040527fd1eb1d14000000000000000000000000000000000000000000000000000000007bffffffffffffffffffffffffffffffffffffffffffffffffffffffff19166020820180517bffffffffffffffffffffffffffffffffffffffffffffffffffffffff8381831617835250505050905060003490508473ffffffffffffffffffffffffffffffffffffffff1663c64274743083856040518463ffffffff1660e01b8152600401808473ffffffffffffffffffffffffffffffffffffffff1673ffffffffffffffffffffffffffffffffffffffff16815260200183815260200180602001828103825283818151815260200191508051906020019080838360005b838110156200274257808201518184015260208101905062002725565b50505050905090810190601f168015620027705780820380516001836020036101000a031916815260200191505b50945050505050602060405180830381600087803b1580156200279257600080fd5b505af1158015620027a7573d6000803e3d6000fd5b505050506040513d6020811015620027be57600080fd5b8101908080519060200190929190505050836000018190555050505050505b5050505050505050565b60035481565b6060600a60008373ffffffffffffffffffffffffffffffffffffffff1673ffffffffffffffffffffffffffffffffffffffff168152602001908152602001600020805480602002602001604051908101604052809291908181526020018280548015620028b057602002820191906000526020600020905b8160009054906101000a900473ffffffffffffffffffffffffffffffffffffffff1673ffffffffffffffffffffffffffffffffffffffff168152602001906001019080831162002865575b50505050509050919050565b6000809054906101000a900473ffffffffffffffffffffffffffffffffffffffff1681565b600a6020528160005260406000208181548110620028fb57fe5b906000526020600020016000915091509054906101000a900473ffffffffffffffffffffffffffffffffffffffff1681565b606080600c60008673ffffffffffffffffffffffffffffffffffffffff1673ffffffffffffffffffffffffffffffffffffffff168152602001908152602001600020546040519080825280602002602001820160405280156200299f5781602001602082028038833980820191505090505b509050600080905060008090505b600c60008873ffffffffffffffffffffffffffffffffffffffff1673ffffffffffffffffffffffffffffffffffffffff1681526020019081526020016000205481101562002a8b57600b60008873ffffffffffffffffffffffffffffffffffffffff1673ffffffffffffffffffffffffffffffffffffffff168152602001908152602001600020600082815260200190815260200160002060010160009054906101000a900460ff161562002a7d578083838151811062002a6a57fe5b6020026020010181815250506001820191505b8080600101915050620029ad565b85850360405190808252806020026020018201604052801562002abd5781602001602082028038833980820191505090505b5093508590505b8481101562002b0b5782818151811062002ada57fe5b6020026020010151848783038151811062002af157fe5b602002602001018181525050808060010191505062002ac4565b5050509392505050565b6007602052806000526040600020600091509050806000018054600181600116156101000203166002900480601f01602080910402602001604051908101604052809291908181526020018280546001816001161561010002031660029004801562002bc55780601f1062002b995761010080835404028352916020019162002bc5565b820191906000526020600020905b81548152906001019060200180831162002ba757829003601f168201915b5050505050908060010154908060020154908060030154905084565b6000809054906101000a900473ffffffffffffffffffffffffffffffffffffffff1673ffffffffffffffffffffffffffffffffffffffff163373ffffffffffffffffffffffffffffffffffffffff161462002c88576040517f08c379a000000000000000000000000000000000000000000000000000000000815260040180806020018281038252602381526020018062005ebb6023913960400191505060405180910390fd5b806000806101000a81548173ffffffffffffffffffffffffffffffffffffffff021916908373ffffffffffffffffffffffffffffffffffffffff16021790555050565b60045481565b60011515600860003373ffffffffffffffffffffffffffffffffffffffff1673ffffffffffffffffffffffffffffffffffffffff16815260200190815260200160002060009054906101000a900460ff161515141562002d99576040517f08c379a00000000000000000000000000000000000000000000000000000000081526004018080602001828103825260128152602001807f414c52454144592052454749535445524544000000000000000000000000000081525060200191505060405180910390fd5b33600e60006010600081548092919060010191905055815260200190815260200160002060006101000a81548173ffffffffffffffffffffffffffffffffffffffff021916908373ffffffffffffffffffffffffffffffffffffffff16021790555080600760003373ffffffffffffffffffffffffffffffffffffffff1673ffffffffffffffffffffffffffffffffffffffff168152602001908152602001600020600001908051906020019062002e5392919062004272565b506001600860003373ffffffffffffffffffffffffffffffffffffffff1673ffffffffffffffffffffffffffffffffffffffff16815260200190815260200160002060006101000a81548160ff02191690831515021790555050565b60086020528060005260406000206000915054906101000a900460ff1681565b600f6020528060005260406000206000915054906101000a900473ffffffffffffffffffffffffffffffffffffffff1681565b600260009054906101000a900473ffffffffffffffffffffffffffffffffffffffff1681565b600e6020528060005260406000206000915054906101000a900473ffffffffffffffffffffffffffffffffffffffff1681565b84843373ffffffffffffffffffffffffffffffffffffffff1662002f80838362001db8565b73ffffffffffffffffffffffffffffffffffffffff161462002fee576040517f08c379a000000000000000000000000000000000000000000000000000000000815260040180806020018281038252602281526020018062005f2a6022913960400191505060405180910390fd5b868686600073ffffffffffffffffffffffffffffffffffffffff1662003015848462001db8565b73ffffffffffffffffffffffffffffffffffffffff1614158015620030a25750600b600062003045858562001db8565b73ffffffffffffffffffffffffffffffffffffffff1673ffffffffffffffffffffffffffffffffffffffff168152602001908152602001600020600082815260200190815260200160002060010160009054906101000a900460ff165b62003115576040517f08c379a00000000000000000000000000000000000000000000000000000000081526004018080602001828103825260178152602001807f457363726f20545820646f6573206e6f7420657869737400000000000000000081525060200191505060405180910390fd5b6000620031238b8b62001db8565b90506000600b60008373ffffffffffffffffffffffffffffffffffffffff1673ffffffffffffffffffffffffffffffffffffffff16815260200190815260200160002060008b81526020019081526020016000209050600115158160010160009054906101000a900460ff16151514620031e9576040517f08c379a000000000000000000000000000000000000000000000000000000000815260040180806020018281038252602281526020018062005f926022913960400191505060405180910390fd5b8060020154891462003247576040517f08c379a000000000000000000000000000000000000000000000000000000000815260040180806020018281038252602781526020018062005f036027913960400191505060405180910390fd5b80600301548814620032a5576040517f08c379a000000000000000000000000000000000000000000000000000000000815260040180806020018281038252602581526020018062005e6e6025913960400191505060405180910390fd5b600088121580620033055750600088128015620033045750600760008c73ffffffffffffffffffffffffffffffffffffffff1673ffffffffffffffffffffffffffffffffffffffff168152602001908152602001600020600201548811155b5b6200335c576040517f08c379a000000000000000000000000000000000000000000000000000000000815260040180806020018281038252602881526020018062005e936028913960400191505060405180910390fd5b88600760008e73ffffffffffffffffffffffffffffffffffffffff1673ffffffffffffffffffffffffffffffffffffffff1681526020019081526020016000206001016000828254039250508190555088600760008d73ffffffffffffffffffffffffffffffffffffffff1673ffffffffffffffffffffffffffffffffffffffff16815260200190815260200160002060010160008282540192505081905550600081600301541315620034605787600760008d73ffffffffffffffffffffffffffffffffffffffff1673ffffffffffffffffffffffffffffffffffffffff1681526020019081526020016000206002016000828254019250508190555062003510565b6000816003015412156200350f5787600760008e73ffffffffffffffffffffffffffffffffffffffff1673ffffffffffffffffffffffffffffffffffffffff1681526020019081526020016000206002016000828254019250508190555087600760008d73ffffffffffffffffffffffffffffffffffffffff1673ffffffffffffffffffffffffffffffffffffffff168152602001908152602001600020600201600082825403925050819055505b5b6200351e8c8c8a8c620040d8565b600b60008373ffffffffffffffffffffffffffffffffffffffff1673ffffffffffffffffffffffffffffffffffffffff16815260200190815260200160002060008b81526020019081526020016000206000808201600090556001820160006101000a81549060ff02191690556001820160016101000a81549073ffffffffffffffffffffffffffffffffffffffff02191690556002820160009055600382016000905550506000600c60008473ffffffffffffffffffffffffffffffffffffffff1673ffffffffffffffffffffffffffffffffffffffff1681526020019081526020016000205490505b6000811115620036d657600b60008473ffffffffffffffffffffffffffffffffffffffff1673ffffffffffffffffffffffffffffffffffffffff168152602001908152602001600020600082815260200190815260200160002060010160009054906101000a900460ff16156200368057620036d6565b60018103600c60008573ffffffffffffffffffffffffffffffffffffffff1673ffffffffffffffffffffffffffffffffffffffff1681526020019081526020016000208190555080806001900391505062003609565b50505050505050505050505050565b60011515600160003373ffffffffffffffffffffffffffffffffffffffff1673ffffffffffffffffffffffffffffffffffffffff16815260200190815260200160002060009054906101000a900460ff161515146200374357600080fd5b82600073ffffffffffffffffffffffffffffffffffffffff16600d60008373ffffffffffffffffffffffffffffffffffffffff1673ffffffffffffffffffffffffffffffffffffffff16815260200190815260200160002060009054906101000a900473ffffffffffffffffffffffffffffffffffffffff1673ffffffffffffffffffffffffffffffffffffffff161462003846576040517f08c379a000000000000000000000000000000000000000000000000000000000815260040180806020018281038252601b8152602001807f5374616d70657220616c726561647920726567697374657265642e000000000081525060200191505060405180910390fd5b6000843385856040516200385a90620042f9565b808573ffffffffffffffffffffffffffffffffffffffff1673ffffffffffffffffffffffffffffffffffffffff1681526020018473ffffffffffffffffffffffffffffffffffffffff1673ffffffffffffffffffffffffffffffffffffffff168152602001838152602001828152602001945050505050604051809103906000f080158015620038ee573d6000803e3d6000fd5b50905080600d60008773ffffffffffffffffffffffffffffffffffffffff1673ffffffffffffffffffffffffffffffffffffffff16815260200190815260200160002060006101000a81548173ffffffffffffffffffffffffffffffffffffffff021916908373ffffffffffffffffffffffffffffffffffffffff16021790555084600f60006011600081548092919060010191905055815260200190815260200160002060006101000a81548173ffffffffffffffffffffffffffffffffffffffff021916908373ffffffffffffffffffffffffffffffffffffffff160217905550600080600760008873ffffffffffffffffffffffffffffffffffffffff1673ffffffffffffffffffffffffffffffffffffffff16815260200190815260200160002060010154131562003a6457600760008773ffffffffffffffffffffffffffffffffffffffff1673ffffffffffffffffffffffffffffffffffffffff1681526020019081526020016000206001015490505b80600560008282540192505081905550600760008773ffffffffffffffffffffffffffffffffffffffff1673ffffffffffffffffffffffffffffffffffffffff16815260200190815260200160002060020154600660008282540192505081905550505050505050565b600060011515600860003373ffffffffffffffffffffffffffffffffffffffff1673ffffffffffffffffffffffffffffffffffffffff16815260200190815260200160002060009054906101000a900460ff1615151462003b97576040517f08c379a00000000000000000000000000000000000000000000000000000000081526004018080602001828103825260168152602001807f596f7520617265206e6f7420726567697374657265640000000000000000000081525060200191505060405180910390fd5b3382600073ffffffffffffffffffffffffffffffffffffffff1662003bbd838362001db8565b73ffffffffffffffffffffffffffffffffffffffff161462003c47576040517f08c379a00000000000000000000000000000000000000000000000000000000081526004018080602001828103825260168152602001807f457363726f7720616c726561647920637265617465640000000000000000000081525060200191505060405180910390fd5b6000600390506060600360405190808252806020026020018201604052801562003c805781602001602082028038833980820191505090505b509050338160008151811062003c9257fe5b602002602001019073ffffffffffffffffffffffffffffffffffffffff16908173ffffffffffffffffffffffffffffffffffffffff1681525050858160018151811062003cdb57fe5b602002602001019073ffffffffffffffffffffffffffffffffffffffff16908173ffffffffffffffffffffffffffffffffffffffff1681525050308160028151811062003d2457fe5b602002602001019073ffffffffffffffffffffffffffffffffffffffff16908173ffffffffffffffffffffffffffffffffffffffff1681525050600260009054906101000a900473ffffffffffffffffffffffffffffffffffffffff1673ffffffffffffffffffffffffffffffffffffffff1663f8f7380882846040518363ffffffff1660e01b81526004018080602001838152602001828103825284818151815260200191508051906020019060200280838360005b8381101562003df857808201518184015260208101905062003ddb565b505050509050019350505050602060405180830381600087803b15801562003e1f57600080fd5b505af115801562003e34573d6000803e3d6000fd5b505050506040513d602081101562003e4b57600080fd5b8101908080519060200190929190505050945084600960003373ffffffffffffffffffffffffffffffffffffffff1673ffffffffffffffffffffffffffffffffffffffff16815260200190815260200160002060008873ffffffffffffffffffffffffffffffffffffffff1673ffffffffffffffffffffffffffffffffffffffff16815260200190815260200160002060006101000a81548173ffffffffffffffffffffffffffffffffffffffff021916908373ffffffffffffffffffffffffffffffffffffffff160217905550600a60003373ffffffffffffffffffffffffffffffffffffffff1673ffffffffffffffffffffffffffffffffffffffff1681526020019081526020016000208590806001815401808255809150509060018203906000526020600020016000909192909190916101000a81548173ffffffffffffffffffffffffffffffffffffffff021916908373ffffffffffffffffffffffffffffffffffffffff16021790555050600a60008773ffffffffffffffffffffffffffffffffffffffff1673ffffffffffffffffffffffffffffffffffffffff1681526020019081526020016000208590806001815401808255809150509060018203906000526020600020016000909192909190916101000a81548173ffffffffffffffffffffffffffffffffffffffff021916908373ffffffffffffffffffffffffffffffffffffffff1602179055505050505050919050565b600b602052816000526040600020602052806000526040600020600091509150508060000154908060010160009054906101000a900460ff16908060010160019054906101000a900473ffffffffffffffffffffffffffffffffffffffff16908060020154908060030154905085565b60008060009050600073ffffffffffffffffffffffffffffffffffffffff16600d60008873ffffffffffffffffffffffffffffffffffffffff1673ffffffffffffffffffffffffffffffffffffffff16815260200190815260200160002060009054906101000a900473ffffffffffffffffffffffffffffffffffffffff1673ffffffffffffffffffffffffffffffffffffffff16146200417c5760019050600191505b600073ffffffffffffffffffffffffffffffffffffffff16600d60008773ffffffffffffffffffffffffffffffffffffffff1673ffffffffffffffffffffffffffffffffffffffff16815260200190815260200160002060009054906101000a900473ffffffffffffffffffffffffffffffffffffffff1673ffffffffffffffffffffffffffffffffffffffff16146200423857801590507fffffffffffffffffffffffffffffffffffffffffffffffffffffffffffffffff91505b80156200426a57838260000b02600560008282540392505081905550828260000b026006600082825403925050819055505b505050505050565b828054600181600116156101000203166002900490600052602060002090601f016020900481019282601f10620042b557805160ff1916838001178555620042e6565b82800160010185558215620042e6579182015b82811115620042e5578251825591602001919060010190620042c8565b5b509050620042f5919062004307565b5090565b611b3e806200433083390190565b6200432c91905b80821115620043285760008160009055506001016200430e565b5090565b9056fe608060405234801561001057600080fd5b50604051611b3e380380611b3e8339818101604052608081101561003357600080fd5b8101908080519060200190929190805190602001909291908051906020019092919080519060200190929190505050836000800160006101000a81548173ffffffffffffffffffffffffffffffffffffffff021916908373ffffffffffffffffffffffffffffffffffffffff16021790555033600060010160006101000a81548173ffffffffffffffffffffffffffffffffffffffff021916908373ffffffffffffffffffffffffffffffffffffffff16021790555082600060020160006101000a81548173ffffffffffffffffffffffffffffffffffffffff021916908373ffffffffffffffffffffffffffffffffffffffff16021790555081600060030181905550806000600401819055504260006005018190555061015b838361016460201b60201c565b50505050610400565b6000600e6000600f54815260200190815260200160002060003373ffffffffffffffffffffffffffffffffffffffff1673ffffffffffffffffffffffffffffffffffffffff1681526020019081526020016000206000815460010191905081905590506001600d6000600f548152602001908152602001600020600083815260200190815260200160002060006101000a81548160ff0219169083151502179055508160116000600f548152602001908152602001600020600001819055508260116000600f54815260200190815260200160002060010160006101000a81548173ffffffffffffffffffffffffffffffffffffffff021916908373ffffffffffffffffffffffffffffffffffffffff16021790555061029c600f6000815480929190600101919050558460016102a160201b60201c565b505050565b6000600e600085815260200190815260200160002060008473ffffffffffffffffffffffffffffffffffffffff1673ffffffffffffffffffffffffffffffffffffffff16815260200190815260200160002054141561036f576010600084815260200190815260200160002060008154600101919050819055600e600085815260200190815260200160002060008473ffffffffffffffffffffffffffffffffffffffff1673ffffffffffffffffffffffffffffffffffffffff168152602001908152602001600020819055505b80600d60008581526020019081526020016000206000600e600087815260200190815260200160002060008673ffffffffffffffffffffffffffffffffffffffff1673ffffffffffffffffffffffffffffffffffffffff16815260200190815260200160002054815260200190815260200160002060006101000a81548160ff021916908315150217905550505050565b61172f8061040f6000396000f3fe608060405234801561001057600080fd5b506004361061010b5760003560e01c80637f803376116100a2578063c85e07b911610071578063c85e07b9146104ef578063da35c664146104f9578063ee45dca214610517578063fc0de60e14610535578063fe2ebbac146105635761010b565b80637f803376146103a35780639c7264e4146103fb578063a22e00501461045d578063a9a79fdf1461049f5761010b565b8063646fba81116100de578063646fba81146102315780636505e8e8146102565780636cfb4321146102905780636d61d2b6146102be5761010b565b806305457f421461011057806330326c17146101595780634a0da5b8146101e35780634b9f5c9814610201575b600080fd5b61013c6004803603602081101561012657600080fd5b81019080803590602001909291905050506105a9565b604051808381526020018281526020019250505060405180910390f35b6101856004803603602081101561016f57600080fd5b810190808035906020019092919050505061062d565b604051808681526020018573ffffffffffffffffffffffffffffffffffffffff1673ffffffffffffffffffffffffffffffffffffffff1681526020018481526020018381526020018281526020019550505050505060405180910390f35b6101eb610683565b6040518082815260200191505060405180910390f35b61022f6004803603602081101561021757600080fd5b81019080803515159060200190929190505050610689565b005b610239610bf7565b604051808381526020018281526020019250505060405180910390f35b61028e6004803603604081101561026c57600080fd5b8101908080359060200190929190803515159060200190929190505050610c58565b005b6102bc600480360360208110156102a657600080fd5b8101908080359060200190929190505050610e89565b005b6102c6610f3e565b604051808b73ffffffffffffffffffffffffffffffffffffffff1673ffffffffffffffffffffffffffffffffffffffff1681526020018a73ffffffffffffffffffffffffffffffffffffffff1673ffffffffffffffffffffffffffffffffffffffff1681526020018973ffffffffffffffffffffffffffffffffffffffff1673ffffffffffffffffffffffffffffffffffffffff168152602001881515151581526020018781526020018681526020018581526020018481526020018381526020018281526020019a505050505050505050505060405180910390f35b6103e5600480360360208110156103b957600080fd5b81019080803573ffffffffffffffffffffffffffffffffffffffff169060200190929190505050610fed565b6040518082815260200191505060405180910390f35b6104476004803603604081101561041157600080fd5b8101908080359060200190929190803573ffffffffffffffffffffffffffffffffffffffff169060200190929190505050611005565b6040518082815260200191505060405180910390f35b6104896004803603602081101561047357600080fd5b810190808035906020019092919050505061102a565b6040518082815260200191505060405180910390f35b6104d5600480360360408110156104b557600080fd5b810190808035906020019092919080359060200190929190505050611042565b604051808215151515815260200191505060405180910390f35b6104f7611071565b005b610501611230565b6040518082815260200191505060405180910390f35b61051f611236565b6040518082815260200191505060405180910390f35b6105616004803603602081101561054b57600080fd5b810190808035906020019092919050505061123c565b005b61058f6004803603602081101561057957600080fd5b8101908080359060200190929190505050611398565b604051808215151515815260200191505060405180910390f35b6000806000600190505b6010600085815260200190815260200160002054811161062757600d6000858152602001908152602001600020600082815260200190815260200160002060009054906101000a900460ff161561061157828060010193505061061a565b81806001019250505b80806001019150506105b3565b50915091565b60116020528060005260406000206000915090508060000154908060010160009054906101000a900473ffffffffffffffffffffffffffffffffffffffff16908060020154908060030154908060040154905085565b600c5481565b3373ffffffffffffffffffffffffffffffffffffffff166000800160009054906101000a900473ffffffffffffffffffffffffffffffffffffffff1673ffffffffffffffffffffffffffffffffffffffff161415610732576040517f08c379a00000000000000000000000000000000000000000000000000000000081526004018080602001828103825260218152602001806116da6021913960400191505060405180910390fd5b60008060010160009054906101000a900473ffffffffffffffffffffffffffffffffffffffff1673ffffffffffffffffffffffffffffffffffffffff1663b2dd5c07336040518263ffffffff1660e01b8152600401808273ffffffffffffffffffffffffffffffffffffffff1673ffffffffffffffffffffffffffffffffffffffff16815260200191505060206040518083038186803b1580156107d557600080fd5b505afa1580156107e9573d6000803e3d6000fd5b505050506040513d60208110156107ff57600080fd5b81019080805190602001909291905050509050600115158115151461086f576040517f08c379a000000000000000000000000000000000000000000000000000000000815260040180806020018281038252603f815260200180611679603f913960400191505060405180910390fd5b816000600b60003373ffffffffffffffffffffffffffffffffffffffff1673ffffffffffffffffffffffffffffffffffffffff1681526020019081526020016000205414806109215750600a6000600b60003373ffffffffffffffffffffffffffffffffffffffff1673ffffffffffffffffffffffffffffffffffffffff16815260200190815260200160002054815260200190815260200160002060009054906101000a900460ff16151581151514155b61096e576040517f08c379a0000000000000000000000000000000000000000000000000000000008152600401808060200182810382526000815260200160200191505060405180910390fd5b600060010160009054906101000a900473ffffffffffffffffffffffffffffffffffffffff1673ffffffffffffffffffffffffffffffffffffffff166370ec42e8336040518263ffffffff1660e01b8152600401808273ffffffffffffffffffffffffffffffffffffffff1673ffffffffffffffffffffffffffffffffffffffff16815260200191505060206040518083038186803b158015610a1057600080fd5b505afa158015610a24573d6000803e3d6000fd5b505050506040513d6020811015610a3a57600080fd5b810190808051906020019092919050505015610bc0576000600b60003373ffffffffffffffffffffffffffffffffffffffff1673ffffffffffffffffffffffffffffffffffffffff168152602001908152602001600020541415610aeb57600c60008154600101919050819055600b60003373ffffffffffffffffffffffffffffffffffffffff1673ffffffffffffffffffffffffffffffffffffffff168152602001908152602001600020819055505b82600a6000600b60003373ffffffffffffffffffffffffffffffffffffffff1673ffffffffffffffffffffffffffffffffffffffff16815260200190815260200160002054815260200190815260200160002060006101000a81548160ff021916908315150217905550600080610b60610bf7565b915091508082118015610b735750600682115b15610b9b576001600060020160146101000a81548160ff021916908315150217905550610bb9565b60008060020160146101000a81548160ff0219169083151502179055505b5050610bf2565b8215610bdd57600960008154809291906001019190505550610bf1565b600960008154809291906001900391905055505b5b505050565b6000806000600190505b600c548111610c5357600a600082815260200190815260200160002060009054906101000a900460ff1615610c3d578280600101935050610c46565b81806001019250505b8080600101915050610c01565b509091565b600060010160009054906101000a900473ffffffffffffffffffffffffffffffffffffffff1673ffffffffffffffffffffffffffffffffffffffff166370ec42e8336040518263ffffffff1660e01b8152600401808273ffffffffffffffffffffffffffffffffffffffff1673ffffffffffffffffffffffffffffffffffffffff16815260200191505060206040518083038186803b158015610cfa57600080fd5b505afa158015610d0e573d6000803e3d6000fd5b505050506040513d6020811015610d2457600080fd5b8101908080519060200190929190505050610da7576040517f08c379a000000000000000000000000000000000000000000000000000000000815260040180806020018281038252601a8152602001807f4f6e6c7920476f7665726e6f72732063616e20646f207468617400000000000081525060200191505060405180910390fd5b816000601160008381526020019081526020016000206002015414610e17576040517f08c379a00000000000000000000000000000000000000000000000000000000081526004018080602001828103825260228152602001806116b86022913960400191505060405180910390fd5b610e228333846113b8565b600080610e2e856105a9565b915091508082118015610e415750600682115b15610e825742601160008781526020019081526020016000206002018190555060116000868152602001908152602001600020600001546000600301819055505b5050505050565b3373ffffffffffffffffffffffffffffffffffffffff166000800160009054906101000a900473ffffffffffffffffffffffffffffffffffffffff1673ffffffffffffffffffffffffffffffffffffffff1614610f31576040517f08c379a000000000000000000000000000000000000000000000000000000000815260040180806020018281038252602a81526020018061164f602a913960400191505060405180910390fd5b8060006004018190555050565b60008060000160009054906101000a900473ffffffffffffffffffffffffffffffffffffffff16908060010160009054906101000a900473ffffffffffffffffffffffffffffffffffffffff16908060020160009054906101000a900473ffffffffffffffffffffffffffffffffffffffff16908060020160149054906101000a900460ff1690806003015490806004015490806005015490806006015490806007015490806008015490508a565b600b6020528060005260406000206000915090505481565b600e602052816000526040600020602052806000526040600020600091509150505481565b60106020528060005260406000206000915090505481565b600d6020528160005260406000206020528060005260406000206000915091509054906101000a900460ff1681565b3373ffffffffffffffffffffffffffffffffffffffff166000800160009054906101000a900473ffffffffffffffffffffffffffffffffffffffff1673ffffffffffffffffffffffffffffffffffffffff1614611119576040517f08c379a000000000000000000000000000000000000000000000000000000000815260040180806020018281038252602a81526020018061164f602a913960400191505060405180910390fd5b6000806003015460006005015442038161112f57fe5b04905080600060060160008282540192505081905550600060010160009054906101000a900473ffffffffffffffffffffffffffffffffffffffff1673ffffffffffffffffffffffffffffffffffffffff1663341abf49826000800160009054906101000a900473ffffffffffffffffffffffffffffffffffffffff166040518363ffffffff1660e01b8152600401808381526020018273ffffffffffffffffffffffffffffffffffffffff1673ffffffffffffffffffffffffffffffffffffffff16815260200192505050600060405180830381600087803b15801561121557600080fd5b505af1158015611229573d6000803e3d6000fd5b5050505050565b600f5481565b60095481565b600060010160009054906101000a900473ffffffffffffffffffffffffffffffffffffffff1673ffffffffffffffffffffffffffffffffffffffff166370ec42e8336040518263ffffffff1660e01b8152600401808273ffffffffffffffffffffffffffffffffffffffff1673ffffffffffffffffffffffffffffffffffffffff16815260200191505060206040518083038186803b1580156112de57600080fd5b505afa1580156112f2573d6000803e3d6000fd5b505050506040513d602081101561130857600080fd5b810190808051906020019092919050505061138b576040517f08c379a000000000000000000000000000000000000000000000000000000000815260040180806020018281038252601a8152602001807f4f6e6c7920476f7665726e6f72732063616e20646f207468617400000000000081525060200191505060405180910390fd5b6113953382611517565b50565b600a6020528060005260406000206000915054906101000a900460ff1681565b6000600e600085815260200190815260200160002060008473ffffffffffffffffffffffffffffffffffffffff1673ffffffffffffffffffffffffffffffffffffffff168152602001908152602001600020541415611486576010600084815260200190815260200160002060008154600101919050819055600e600085815260200190815260200160002060008473ffffffffffffffffffffffffffffffffffffffff1673ffffffffffffffffffffffffffffffffffffffff168152602001908152602001600020819055505b80600d60008581526020019081526020016000206000600e600087815260200190815260200160002060008673ffffffffffffffffffffffffffffffffffffffff1673ffffffffffffffffffffffffffffffffffffffff16815260200190815260200160002054815260200190815260200160002060006101000a81548160ff021916908315150217905550505050565b6000600e6000600f54815260200190815260200160002060003373ffffffffffffffffffffffffffffffffffffffff1673ffffffffffffffffffffffffffffffffffffffff1681526020019081526020016000206000815460010191905081905590506001600d6000600f548152602001908152602001600020600083815260200190815260200160002060006101000a81548160ff0219169083151502179055508160116000600f548152602001908152602001600020600001819055508260116000600f54815260200190815260200160002060010160006101000a81548173ffffffffffffffffffffffffffffffffffffffff021916908373ffffffffffffffffffffffffffffffffffffffff160217905550611649600f6000815480929190600101919050558460016113b8565b50505056fe4f6e6c7920746865207374616d7065722063616e2061636365737320746869732066756e6374696f6e2e596f7520617265206e6f74206120726567697374657265642075736572206f662074686520706172656e74206163636f756e74696e6720636f6e747261637450726f706f73616c2068617320616c7265616479206265656e20617070726f766564546865207374616d7065722063616e206e6f742063616c6c207468697320666e2ea265627a7a723158208845ff4e6359b7dfeac1345b1f28e590060f45f47ee0407b6411c64e84ddfbae64736f6c6343000510003254686520676f6c64207472616e736665722076616c75657320646f206e6f74206d617463684e6f7420656e6f75676820676f6c6420746f2066756c6c66696c6c2073656e64657227732061736b4f4e6c792074686520636f6e7472616374206f776e65722063616e20646f2074686174496e73756666696369656e7420636172626f6e206372656469747320746f206f666673657454686520636172626f6e207472616e736665722076616c75657320646f206e6f74206d6174636843616e206f6e6c792063616c6c2066726f6d20457363726f7720636f6e747261637443616e206f6e6c792063616c6c2066726f6d205374616d70657220436f6e7472616374496e73756666696369656e7420676f6c6420666f722074686973207472616e7366657254686973207472616e73616374696f6e20686173206265656e2072656a6563746564a265627a7a72315820b7bb81ff6af1d45272fcaeaaf5bee337f4ccf9a99890157d7803418183af2b6f64736f6c63430005100032",
  "source": "pragma solidity ^0.5.12;\nimport \"./MultiSigWalletFactory.sol\";\nimport \"./Stamper.sol\";\n\n/// @title Contract which executes trade between 2 entities via escrow.\n/// @author Bertrand Rioux\n/// @notice You can use this contract for transacting carbon inventories and carbon offset credits (tokens) derived from them.\n/// @dev <docment-me>\ncontract CAT {\n  /*\n   *  Events\n  */\n  event EscrowFunded (address indexed sender, uint256 indexed value);\n\n  address public owner;\n  mapping (address => bool) public governor;\n  address public factory_addr;\n  uint public totalCarbon;   //metric for system carbon this can be negative\n  uint public totalGold;   //metric for system gold\n  uint public totalStamperCarbon; //metric for stamper carbon this can be non-negative\n  uint public totalStamperGold; //metric for stamper gold\n  \n  struct Attributes {  //basic wallet, minimum attributes\n    string name;   //Text Identifier\n    int carbon;      //Carbon held\n    uint gold;      //Gold held\n    uint offsets;  //Carbon Gold used as offset\n  }\n  mapping (address => Attributes) public wallet;\n  mapping (address => bool) public registered; //Valid account?)\n  //mapping a given wallet address pair to escrow address\n  mapping(address => mapping(address => address payable)) internal EscrowAddr;\n  mapping (address => address[]) public escrowList; // mapping user address to array of active escrows\n  function getEscrowList(address _address)\n    public view\n    returns (address[] memory) {\n    return escrowList[_address];\n  }\n  //escrow addresses associated with each wallet\n    // Note this is additional data stored on the network\n    // To help users keep track of the escrow accounts associated with their wallet\n    // and check for exisitng transactions in each escrow\n    // to minimze data storage we could store this data externally...\n\n  // TO-DO only store escrow tx data into the correspoinding multisig wallet \n  // within the encodeWithSignature data. Requires developing decoding routine \n  // that will read fn/parameters stored in the external multisig wallet (true escrow)\n  // This will make the carbon contract lighter\n  // For now laziliy store escrow tx data within the carbon contract\n  // rather than decoding the parameters using assembly (complex)... \n  struct EscrowTxAttr {\n    \n    uint multisig_tx_id; //transactionId from multisig wallet\n    bool exists;\n    // Below attributes are stored as encoded bytes data in the external multisig wallet\n    address issuer;\n    //address receiver;\n    int carbon; // signed integer carbon transfer, (+) for send carbon to receiver, (-) to request carbon transfer to sender\n    int gold; // signed integer gold transfer, (+) for send gold to receiver, (-) to request gold transfer to sender\n  }\n\n  // mapping escrow address and transaction ID to escrow transaction attributes\n  mapping(address => mapping(uint => EscrowTxAttr)) public escrowTx;\n  mapping(address => uint) public escrowTxCount;\n\n  // This maps the account holders address to their stamper contract address\n  mapping (address => address) public stamperRegistry;\n\n  // directory of all registered wallets. This will increae the weight of the contract\n  mapping (uint => address) public userIndex;  //So we can cycle through accounts easily\n  mapping (uint => address) public stamperIndex;  //So we can cycle through stampers easily\n  uint public userCount; //number of accounts\n  uint public stamperCount; //number of stampers\n\n  modifier onlyOwner () {  //added some security\n    require(msg.sender == owner, 'ONly the contract owner can do that');\n    _;\n  }\n  modifier onlyGovernor () {    //added some governance\n    require(governor[msg.sender] == true);\n    _;\n  }\n  modifier onlyMember () {  //added some security\n    require(registered[msg.sender] == true, \"You are not registered\");\n    _;\n  }\n  modifier onlyEscrow(address _sender, address _receiver) {  //added some security\n    require(findEscrowAddr(_sender, _receiver) == msg.sender, \"Can only call from Escrow contract\");\n    _;\n  }\n  modifier onlyStamperContract(address _stamper) {  //added some security\n    require(stamperRegistry[_stamper] == msg.sender, \"Can only call from Stamper Contract\");\n    _;\n  }\n  modifier escrowExists(address _sender, address _receiver){\n    require(findEscrowAddr(_sender, _receiver)!=address(0x0), \"No escrow wallet\");\n    _;  \n  }\n  modifier escrowTxExists(address _sender, address _receiver, uint _txID){\n    require(findEscrowAddr(_sender, _receiver)!=address(0x0)\n      && escrowTx[findEscrowAddr(_sender, _receiver)][_txID].exists, \n      \"Escro TX does not exist\");\n    _;  \n  }\n  modifier escrowDoesNotExist(address _sender, address _receiver){\n    require(findEscrowAddr(_sender, _receiver)==address(0x0), \"Escrow already created\");\n    _;  \n  }\n  modifier stamperDoesNotExsit(address _target){\n    require(stamperRegistry[_target]==address(0x0), \"Stamper already registered.\");\n    _;\n  }\n  // out boolean if sender transfering gold out (+), or sender request to receive gold (-) \n  modifier sufficientGold(address _sender, address _receiver, int _gold){\n    require(\n      (_gold>0 && uint(_gold)<=wallet[_sender].gold) //cant send gold unless you have it,\n      || (_gold<=0 && uint(_gold)<=wallet[_receiver].gold) // but can ask\n      // The second condition prevents asking for gold that exceeds balance from \n      // requester (_receivers) wallet. We do not really need this?\n      , \"Insufficient gold for this transfer\");  \n    _;\n  }\n\n  /// @dev Constructor set deployer as owner and as a governor\n  /// @param mswfactory MultisigWalletFactory address used by this contract to setup escrow wallets\n  constructor(address mswfactory) public {\n    owner = msg.sender;\n    governor[msg.sender]=true;\n    factory_addr = mswfactory;\n  }\n\n  function() external payable {}\n    \n  /// @dev Register target address as governor\n  /// @param _target the wallet name\n  function addGovernor(address _target)  \n    public \n    onlyOwner()\n    {\n      governor[_target]=true;\n    }\n\n  /// @dev Register wallet with the CAT network\n  /// @param name the wallet name\n  function signUp(string memory name) public\n    {\n      require(registered[msg.sender]!= true, \"ALREADY REGISTERED\");\n      userIndex[userCount++]=msg.sender;\n      wallet[msg.sender].name = name;\n      registered[msg.sender] = true;\n    }\n\n\n  /// @dev find escrow account with you and the receiver. \n  /// @param _receiver The receiver account\n  /// @return Escrow Address\n  /// @notice Will be dropped in future deployments. This data is to be stored/managed by the client\n  function findEscrowAddr(address _sender, address _receiver)  \n    view\n    public\n    returns (address payable _escrow)\n    {\n      if(EscrowAddr[_sender ][_receiver]!=address(0x0)){\n        _escrow = EscrowAddr[_sender][_receiver];\n      }else{\n        _escrow = EscrowAddr[_receiver][_sender];\n      }\n    }\n\n  /// @dev Create an escrow account with you and the receiver\n  /// @param _receiver The receiver account\n  /// @return Escrow Address\n  function createEscrow(address _receiver)//, uint _value) \n    public\n    onlyMember()\n    escrowDoesNotExist(msg.sender,_receiver)\n    returns(address payable _escrowAddr)\n    {\n      // Escrow has 3 participants and all must sign\n      // include this contract as onwer of ESCROW\n      // confirms that this cpnytract is party in the escrow (can submit TXs)\n      uint _required = 3;\n      address[] memory _owners = new address[](3);\n      _owners[0]= msg.sender;\n      _owners[1]=_receiver;\n      _owners[2]= address(this);\n      _escrowAddr = address(MultiSigWalletFactory(factory_addr).create(_owners, _required));\n      EscrowAddr[msg.sender][_receiver] = _escrowAddr;\n      escrowList[msg.sender].push(_escrowAddr);\n      escrowList[_receiver].push(_escrowAddr);\n    }\n\n  /// @dev Add carbon to your account\n  /// @param carbon The amount of carbon in KG CO2e\n  function addCarbon(uint carbon) public onlyMember()\n    {\n      require(carbon>0, 'Can only add positive carbon');\n      wallet[msg.sender].carbon += int(carbon);\n      totalCarbon += carbon;\n      if(stamperRegistry[msg.sender]!=address(0x0)){\n        totalStamperCarbon += carbon;\n      }\n    }\n\n  /// @dev Create a transaction request to transfer carbon and gold using escrow.\n  /// @param _receiver Counterparty to the offer\n  /// @param _carbon Signed integer carbon transfer, (+) for send gold to receiver, (-) to request gold transfer to sender.\n  /// @param _gold Signed integer gold transfer, (+) for send gold to receiver, (-) to request gold transfer to sender.\n  /// @notice In future will include escrow address as this willnot be stored in the contract\n  function createTransaction(address _receiver,int _carbon, int _gold)\n    public \n    payable\n    onlyMember()\n    escrowExists(msg.sender, _receiver)\n    sufficientGold(msg.sender,_receiver, _gold) // must have sufficient gold to submit transfer\n    {\n      if(_gold>0){\n        wallet[msg.sender].gold -= uint(_gold); //remove (+) gold transfer from sender wallet\n      }\n      if(_carbon==0 && _gold>0){\n        // send the gold now if it is not combined with a debt transfer request \n        wallet[_receiver].gold += uint(_gold);\n      }else{  \n        // Store transaction in Escrow\n        address payable _escrowAddr = findEscrowAddr(msg.sender, _receiver);\n        uint _txID;\n        for (uint i=0; i<=escrowTxCount[_escrowAddr]; i++){\n          if(!escrowTx[_escrowAddr][i].exists){\n            //if escrow tx does not exist set index as txID\n            _txID = i;\n            break;\n          }\n        }\n        if (_txID == escrowTxCount[_escrowAddr]){\n          // increment the TX count if necessary\n          escrowTxCount[_escrowAddr]++;\n        } \n        \n        EscrowTxAttr storage _tx=escrowTx[_escrowAddr][_txID];\n        _tx.exists = true;\n        _tx.issuer = msg.sender;\n        //_tx.receiver = _receiver;\n        _tx.gold = _gold; // store gold transfer for reference before approval by receiver\n        _tx.carbon = _carbon; // store carbon transfer for reference before approval by receiver\n        // encoded function for offerAccept to be triggered by multisig escrow wallet\n        bytes memory _data = abi.encodeWithSignature(\"acceptTransaction(address,address,uint256,int256,int256)\",msg.sender,_receiver,_txID,_carbon,_gold); \n        //address(this).call(_data);\n        uint _value = msg.value;\n        _tx.multisig_tx_id = MultiSigWallet(_escrowAddr).submitTransaction(address(this),_value, _data);\n      }\n    }\n\n  /** @dev Accept a pending transaction in escrow.\n  * @param _sender sender\n  * @param _receiver receiver\n  * @param _txID Transaction ID \n  * @param _carbon signed integer carbon transfer, (+) for send gold to receiver, (-) to request gold transfer to sender.\n  * @param _gold signed integer gold transfer, (+) for send gold to receiver, (-) to request gold transfer to sender.\n  */\n  function acceptTransaction(address _sender, address _receiver, uint _txID, int _carbon, int _gold) \n    external \n    payable\n    onlyEscrow(_sender,_receiver)\n    escrowTxExists(_sender,_receiver,_txID)\n    {\n      address _escrowAddr = findEscrowAddr(_sender,_receiver);\n      EscrowTxAttr storage _tx = escrowTx[_escrowAddr][_txID];\n      // secruity cehck\n      //function call should match vlalues stored in Escrow Transaction\n      //if we store all data in encodedFuncitonCall we dont need this\n      require(_tx.exists == true, 'This transaction has been rejected');\n      require(_carbon == _tx.carbon, 'The carbon transfer values do not match');\n      require(_gold == _tx.gold, 'The gold transfer values do not match');\n      require(_gold>=0 || (_gold<0 && uint(_gold)<=wallet[_receiver].gold), \"Not enough gold to fullfill sender's ask\");\n      wallet[_sender].carbon -= _carbon;\n      wallet[_receiver].carbon += _carbon;     \n      if(_tx.gold>0){// if sender has added gold to escrow\n        wallet[_receiver].gold += uint(_gold); //pull gold from escrow, push to receiver\n      }else if(_tx.gold<0){ // if sender is requesting gold transfer\n        wallet[_sender].gold += uint(_gold); //push gold to sender\n        wallet[_receiver].gold -= uint(_gold); //push gold to sender\n      }\n      // What to do if a payment is sent to this funciton\n      //send funds to _sender ??\n      //_sender.call.value(msg.value)(\"\");  \n      updateStamperTotals(_sender,_receiver,_gold,_carbon);\n      // Delete the escrow?\n      delete escrowTx[_escrowAddr][_txID];\n      for (uint i=escrowTxCount[_escrowAddr]; i>0; i--)\n        //update TxCount if necessary\n        if(escrowTx[_escrowAddr][i].exists){\n          break;\n        }else{\n          escrowTxCount[_escrowAddr]=i-1;\n        }\n    }\n\n  /** @dev Reject a transaction.\n  * @param _counterparty The counterparty\n  * @param _txID Transaction ID \n  */\n  function rejectTransaction(address _counterparty, uint _txID) \n    public\n    onlyMember()\n    escrowTxExists(msg.sender,_counterparty,_txID)\n    {\n      address payable _escrowAddr = findEscrowAddr(msg.sender, _counterparty);\n      MultiSigWallet(_escrowAddr).revokeConfirmation(_txID);\n      EscrowTxAttr storage _tx = escrowTx[_escrowAddr][_txID];\n      if(_tx.gold>0){// if sender has added gold to escrow\n        wallet[_tx.issuer].gold += uint(_tx.gold); //return gold in escrow to issuers\n      }\n      delete escrowTx[_escrowAddr][_txID];\n    }\n  \n\n  function addStamper(address target, uint stamprate, uint minpmt) \n    public \n    // only contract governors can nominate stampers\n    onlyGovernor()\n    stamperDoesNotExsit(target)\n\n    {\n      Stamper stamper = new Stamper(target,msg.sender,stamprate,minpmt);\n      stamperRegistry[target] = address(stamper);\n      stamperIndex[stamperCount++]=target;\n      //sumTokens();\n      uint _carbon; //carbon to add to totalStamperCarbon\n      if(wallet[target].carbon>0){\n        _carbon = uint(wallet[target].carbon); // only pass positive carbon \n      }\n      totalStamperCarbon += uint(_carbon);\n      totalStamperGold += wallet[target].gold;\n    }\n\n  function updateGold(uint stamps, address stamper)\n    public \n    onlyStamperContract(stamper)\n    {\n      // Some points to address\n      // Block timestamp can be manipulated by miners within 900s\n      // Make sure that this deos not distort the stamping rate within am acceptable tollerance\n      // Need to set other stamp constriants (total stamps based on auditing, or other metrics)\n      uint carbon;// new carbon generated by stamper if stamps exceed carbons)\n      wallet[stamper].gold += stamps;\n      if(wallet[stamper].carbon>int(stamps)){\n        wallet[stamper].carbon -= int(stamps);\n      }else{\n        // Keeps stamper carbon from going negative\n        // Stamper wallet can not have negative debt after stamping ...(?)\n        wallet[stamper].carbon = 0;\n        totalCarbon += stamps;\n        // stamper creates new _carbon if it stamps more than it has carbon\n        carbon = stamps - uint(wallet[stamper].carbon);\n      }   \n      totalGold += stamps;\n      totalCarbon += carbon - stamps;\n      totalStamperGold += stamps;\n      totalStamperCarbon += carbon - stamps;\n    }\n\n  function updateStamperTotals(address _sender, address _receiver, int _carbon, int _gold) \n    internal{\n      //why do we need to update/store these???\n      int8 _sign; // defines direction of carbon/gold movements\n      bool _stamper=false;\n      if(stamperRegistry[_sender]!= address(0x0)){\n        _stamper = true;\n        _sign = 1; // if stamper is sender values are sent out ( substract )\n      }if(stamperRegistry[_receiver]!= address(0x0)){\n        _stamper = !_stamper; //if both sender and receiver are stampers do nothing (no change in total gold/carbon balance)\n        _sign = -1; // if stamper is receiver values are coming in (add)\n      }\n      // note when carbon/gold are negative these are asks by the sender and direction if flipped\n      if(_stamper){\n        totalStamperCarbon -= uint(_sign*_carbon);\n        totalStamperGold -= uint(_sign*_gold);\n      }\n    }\n\n  /** @dev Get the external multisig transaciton data for an escrow transaction \n  * @param _escrowAddr The escrow address\n  * @param _txID The escrow transaction ID \n  */\n  function transactionData(address _escrowAddr, uint _txID)\n    public\n    view\n    returns(uint)\n    {\n      return(escrowTx[_escrowAddr][_txID].multisig_tx_id);\n    }\n\n  /** @dev Function to return all existing escrow transactions between 2 entities.\n  * @param _escrowAddr The counterparty\n  * @param from Initiator \n  * @param to Receiver \n  */\n  function getTransactionIds(address _escrowAddr, uint from, uint to)\n    public\n    view\n    returns (uint[] memory _transactionIds)\n    {\n      uint[] memory transactionIdsTemp = new uint[](escrowTxCount[_escrowAddr]);\n      uint count = 0;\n      uint i;\n      \n      for (i=0; i<escrowTxCount[_escrowAddr]; i++)\n          if ( escrowTx[_escrowAddr][i].exists )\n          {\n              transactionIdsTemp[count] = i;\n              count += 1;\n          }\n      _transactionIds = new uint[](to - from);\n      for (i=from; i<to; i++)\n          _transactionIds[i - from] = transactionIdsTemp[i];\n    }\n\n\n  /** @dev Function to burn stamped carbon (gold) to register it as a locked offset.\n  * @param _gold Stamped carbon to burn\n  */\n  function lockOffset(uint _gold) \n    public\n    onlyMember() {\n    require(_gold<=wallet[msg.sender].gold, \"Insufficient carbon credits to offset\");\n    wallet[msg.sender].gold -= _gold;\n    wallet[msg.sender].offsets += _gold;\n  }\n  \n  /*\n    function sumTokens() external view returns(uint, uint, uint, uint) {  //Generates general metrics for the system and stamper coin levels, might be pretty inefficient\n      // Commented this out as it would cost too much gas (now just a view function)\n      // instead wee update totalCarbon totalGold, etc... every time a relevant transaciton is sumitted/confirmed\n      uint totalCarbonx = 0;\n      uint totalGoldx = 0;\n      uint totalStamperCarbonx = 0;\n      uint totalStamperGoldx = 0;\n      for(uint i=0;i<=userCount;i++)\n        {\n        totalCarbonx += uint(wallet[userIndex[i]].carbon);\n        totalGoldx += wallet[userIndex[i]].gold;\n        }\n      for(uint i=0;i<=stamperCount;i++)\n        {\n        totalStamperCarbonx += uint(wallet[stamperIndex[i]].carbon);\n        totalStamperGoldx += wallet[stamperIndex[i]].gold;\n        }\n      return (totalCarbonx,totalGoldx,totalStamperCarbonx,totalStamperGoldx);\n    }\n  */\n  function changeOwner(address _newOwner)\n    onlyOwner()\n    public\n    { owner = _newOwner;}\n  function killContract()\n    onlyOwner()\n    public\n    { selfdestruct(tx.origin);}\n}\n",
  "sourcePath": "/Users/bertrandrioux/github.com/brioux/CAT/contracts/CAT.sol",
  "compiler": {
    "name": "solc",
    "version": "0.5.16+commit.9c3226ce.Emscripten.clang"
  },
  "schemaVersion": "3.4.0",
  "updatedAt": "2021-05-17T18:13:36.946Z",
  "devdoc": {
    "author": "Bertrand Rioux",
    "details": "<docment-me>",
    "methods": {
      "acceptTransaction(address,address,uint256,int256,int256)": {
        "details": "Accept a pending transaction in escrow.",
        "params": {
          "_carbon": "signed integer carbon transfer, (+) for send gold to receiver, (-) to request gold transfer to sender.",
          "_gold": "signed integer gold transfer, (+) for send gold to receiver, (-) to request gold transfer to sender.",
          "_receiver": "receiver",
          "_sender": "sender",
          "_txID": "Transaction ID "
        }
      },
      "addCarbon(uint256)": {
        "details": "Add carbon to your account",
        "params": {
          "carbon": "The amount of carbon in KG CO2e"
        }
      },
      "addGovernor(address)": {
        "details": "Register target address as governor",
        "params": {
          "_target": "the wallet name"
        }
      },
      "constructor": {
        "details": "Constructor set deployer as owner and as a governor",
        "params": {
          "mswfactory": "MultisigWalletFactory address used by this contract to setup escrow wallets"
        }
      },
      "createEscrow(address)": {
        "details": "Create an escrow account with you and the receiver",
        "params": {
          "_receiver": "The receiver account"
        },
        "return": "Escrow Address"
      },
      "createTransaction(address,int256,int256)": {
        "details": "Create a transaction request to transfer carbon and gold using escrow.",
        "params": {
          "_carbon": "Signed integer carbon transfer, (+) for send gold to receiver, (-) to request gold transfer to sender.",
          "_gold": "Signed integer gold transfer, (+) for send gold to receiver, (-) to request gold transfer to sender.",
          "_receiver": "Counterparty to the offer"
        }
      },
      "findEscrowAddr(address,address)": {
        "details": "find escrow account with you and the receiver. ",
        "params": {
          "_receiver": "The receiver account"
        },
        "return": "Escrow Address"
      },
      "getTransactionIds(address,uint256,uint256)": {
        "details": "Function to return all existing escrow transactions between 2 entities.",
        "params": {
          "_escrowAddr": "The counterparty",
          "from": "Initiator ",
          "to": "Receiver "
        }
      },
      "lockOffset(uint256)": {
        "details": "Function to burn stamped carbon (gold) to register it as a locked offset.",
        "params": {
          "_gold": "Stamped carbon to burn"
        }
      },
      "rejectTransaction(address,uint256)": {
        "details": "Reject a transaction.",
        "params": {
          "_counterparty": "The counterparty",
          "_txID": "Transaction ID "
        }
      },
      "signUp(string)": {
        "details": "Register wallet with the CAT network",
        "params": {
          "name": "the wallet name"
        }
      },
      "transactionData(address,uint256)": {
        "details": "Get the external multisig transaciton data for an escrow transaction ",
        "params": {
          "_escrowAddr": "The escrow address",
          "_txID": "The escrow transaction ID "
        }
      }
    },
    "title": "Contract which executes trade between 2 entities via escrow."
  },
  "userdoc": {
    "methods": {
      "createTransaction(address,int256,int256)": {
        "notice": "In future will include escrow address as this willnot be stored in the contract"
      },
      "findEscrowAddr(address,address)": {
        "notice": "Will be dropped in future deployments. This data is to be stored/managed by the client"
      }
    },
    "notice": "You can use this contract for transacting carbon inventories and carbon offset credits (tokens) derived from them."
  }
}