{
  "contractName": "Factory",
  "abi": [
    {
      "anonymous": false,
      "inputs": [
        {
          "indexed": false,
          "internalType": "address",
          "name": "sender",
          "type": "address"
        },
        {
          "indexed": false,
          "internalType": "address",
          "name": "instantiation",
          "type": "address"
        }
      ],
      "name": "ContractInstantiation",
      "type": "event"
    },
    {
      "constant": true,
      "inputs": [
        {
          "internalType": "address",
          "name": "",
          "type": "address"
        },
        {
          "internalType": "uint256",
          "name": "",
          "type": "uint256"
        }
      ],
      "name": "instantiations",
      "outputs": [
        {
          "internalType": "address",
          "name": "",
          "type": "address"
        }
      ],
      "payable": false,
      "stateMutability": "view",
      "type": "function"
    },
    {
      "constant": true,
      "inputs": [
        {
          "internalType": "address",
          "name": "",
          "type": "address"
        }
      ],
      "name": "isInstantiation",
      "outputs": [
        {
          "internalType": "bool",
          "name": "",
          "type": "bool"
        }
      ],
      "payable": false,
      "stateMutability": "view",
      "type": "function"
    },
    {
      "constant": true,
      "inputs": [
        {
          "internalType": "address",
          "name": "creator",
          "type": "address"
        }
      ],
      "name": "getInstantiationCount",
      "outputs": [
        {
          "internalType": "uint256",
          "name": "",
          "type": "uint256"
        }
      ],
      "payable": false,
      "stateMutability": "view",
      "type": "function"
    }
  ],
  "bytecode": "0x608060405234801561001057600080fd5b50610274806100206000396000f3fe608060405234801561001057600080fd5b50600436106100415760003560e01c80632f4f33161461004657806357183c82146100a25780638f83847814610130575b600080fd5b6100886004803603602081101561005c57600080fd5b81019080803573ffffffffffffffffffffffffffffffffffffffff169060200190929190505050610188565b604051808215151515815260200191505060405180910390f35b6100ee600480360360408110156100b857600080fd5b81019080803573ffffffffffffffffffffffffffffffffffffffff169060200190929190803590602001909291905050506101a8565b604051808273ffffffffffffffffffffffffffffffffffffffff1673ffffffffffffffffffffffffffffffffffffffff16815260200191505060405180910390f35b6101726004803603602081101561014657600080fd5b81019080803573ffffffffffffffffffffffffffffffffffffffff1690602001909291905050506101f3565b6040518082815260200191505060405180910390f35b60006020528060005260406000206000915054906101000a900460ff1681565b600160205281600052604060002081815481106101c157fe5b906000526020600020016000915091509054906101000a900473ffffffffffffffffffffffffffffffffffffffff1681565b6000600160008373ffffffffffffffffffffffffffffffffffffffff1673ffffffffffffffffffffffffffffffffffffffff16815260200190815260200160002080549050905091905056fea265627a7a72315820b850ab7d557b536f7ab591d9da59e63cee60f64d0aae3f2b2f932e27d312009164736f6c63430005100032",
  "source": "pragma solidity ^0.5.12;\n\ncontract Factory {\n\n    /*\n     *  Events\n     */\n    event ContractInstantiation(address sender, address instantiation);\n\n    /*\n     *  Storage\n     */\n    mapping(address => bool) public isInstantiation;\n    mapping(address => address[]) public instantiations;\n\n    /*\n     * Public functions\n     */\n    /// @dev Returns number of instantiations by creator.\n    /// @param creator Contract creator.\n    /// @return Returns number of instantiations by creator.\n    function getInstantiationCount(address creator)\n        public\n        view\n        returns (uint)\n    {\n        return instantiations[creator].length;\n    }\n\n    /*\n     * Internal functions\n     */\n    /// @dev Registers contract in factory registry.\n    /// @param instantiation Address of contract instantiation.\n    function register(address instantiation)\n        internal\n    {\n        isInstantiation[instantiation] = true;\n        instantiations[msg.sender].push(instantiation);\n        emit ContractInstantiation(msg.sender, instantiation);\n    }\n}\n",
  "sourcePath": "/Users/bertrandrioux/github.com/brioux/CAT/contracts/Factory.sol",
  "compiler": {
    "name": "solc",
    "version": "0.5.16+commit.9c3226ce.Emscripten.clang"
  },
  "schemaVersion": "3.4.0",
  "updatedAt": "2021-05-16T09:14:35.492Z",
  "networkType": "ethereum",
  "devdoc": {
    "methods": {
      "getInstantiationCount(address)": {
        "details": "Returns number of instantiations by creator.",
        "params": {
          "creator": "Contract creator."
        },
        "return": "Returns number of instantiations by creator."
      }
    }
  },
  "userdoc": {
    "methods": {}
  }
}