{
  "contractName": "MultiSigWalletFactory",
  "abi": [
    {
      "anonymous": false,
      "inputs": [
        {
          "indexed": false,
          "internalType": "address",
          "name": "sender",
          "type": "address"
        },
        {
          "indexed": false,
          "internalType": "address",
          "name": "instantiation",
          "type": "address"
        }
      ],
      "name": "ContractInstantiation",
      "type": "event"
    },
    {
      "constant": true,
      "inputs": [
        {
          "internalType": "address",
          "name": "creator",
          "type": "address"
        }
      ],
      "name": "getInstantiationCount",
      "outputs": [
        {
          "internalType": "uint256",
          "name": "",
          "type": "uint256"
        }
      ],
      "payable": false,
      "stateMutability": "view",
      "type": "function"
    },
    {
      "constant": true,
      "inputs": [
        {
          "internalType": "address",
          "name": "",
          "type": "address"
        },
        {
          "internalType": "uint256",
          "name": "",
          "type": "uint256"
        }
      ],
      "name": "instantiations",
      "outputs": [
        {
          "internalType": "address",
          "name": "",
          "type": "address"
        }
      ],
      "payable": false,
      "stateMutability": "view",
      "type": "function"
    },
    {
      "constant": true,
      "inputs": [
        {
          "internalType": "address",
          "name": "",
          "type": "address"
        }
      ],
      "name": "isInstantiation",
      "outputs": [
        {
          "internalType": "bool",
          "name": "",
          "type": "bool"
        }
      ],
      "payable": false,
      "stateMutability": "view",
      "type": "function"
    },
    {
      "constant": false,
      "inputs": [
        {
          "internalType": "address[]",
          "name": "_owners",
          "type": "address[]"
        },
        {
          "internalType": "uint256",
          "name": "_required",
          "type": "uint256"
        }
      ],
      "name": "create",
      "outputs": [
        {
          "internalType": "address payable",
          "name": "multisig_wallet",
          "type": "address"
        }
      ],
      "payable": false,
      "stateMutability": "nonpayable",
      "type": "function"
    }
  ],
  "bytecode": "0x608060405234801561001057600080fd5b506134b3806100206000396000f3fe608060405234801561001057600080fd5b506004361061004c5760003560e01c80632f4f33161461005157806357183c82146100ad5780638f8384781461013b578063f8f7380814610193575b600080fd5b6100936004803603602081101561006757600080fd5b81019080803573ffffffffffffffffffffffffffffffffffffffff169060200190929190505050610295565b604051808215151515815260200191505060405180910390f35b6100f9600480360360408110156100c357600080fd5b81019080803573ffffffffffffffffffffffffffffffffffffffff169060200190929190803590602001909291905050506102b5565b604051808273ffffffffffffffffffffffffffffffffffffffff1673ffffffffffffffffffffffffffffffffffffffff16815260200191505060405180910390f35b61017d6004803603602081101561015157600080fd5b81019080803573ffffffffffffffffffffffffffffffffffffffff169060200190929190505050610300565b6040518082815260200191505060405180910390f35b610253600480360360408110156101a957600080fd5b81019080803590602001906401000000008111156101c657600080fd5b8201836020820111156101d857600080fd5b803590602001918460208302840111640100000000831117156101fa57600080fd5b919080806020026020016040519081016040528093929190818152602001838360200280828437600081840152601f19601f8201169050808301925050505050505091929192908035906020019092919050505061034c565b604051808273ffffffffffffffffffffffffffffffffffffffff1673ffffffffffffffffffffffffffffffffffffffff16815260200191505060405180910390f35b60006020528060005260406000206000915054906101000a900460ff1681565b600160205281600052604060002081815481106102ce57fe5b906000526020600020016000915091509054906101000a900473ffffffffffffffffffffffffffffffffffffffff1681565b6000600160008373ffffffffffffffffffffffffffffffffffffffff1673ffffffffffffffffffffffffffffffffffffffff168152602001908152602001600020805490509050919050565b600080838360405161035d90610575565b8080602001838152602001828103825284818151815260200191508051906020019060200280838360005b838110156103a3578082015181840152602081019050610388565b505050509050019350505050604051809103906000f0801580156103cb573d6000803e3d6000fd5b5090508091506103da826103e1565b5092915050565b60016000808373ffffffffffffffffffffffffffffffffffffffff1673ffffffffffffffffffffffffffffffffffffffff16815260200190815260200160002060006101000a81548160ff021916908315150217905550600160003373ffffffffffffffffffffffffffffffffffffffff1673ffffffffffffffffffffffffffffffffffffffff1681526020019081526020016000208190806001815401808255809150509060018203906000526020600020016000909192909190916101000a81548173ffffffffffffffffffffffffffffffffffffffff021916908373ffffffffffffffffffffffffffffffffffffffff160217905550507f4fb057ad4a26ed17a57957fa69c306f11987596069b89521c511fc9a894e61613382604051808373ffffffffffffffffffffffffffffffffffffffff1673ffffffffffffffffffffffffffffffffffffffff1681526020018273ffffffffffffffffffffffffffffffffffffffff1673ffffffffffffffffffffffffffffffffffffffff1681526020019250505060405180910390a150565b612efc806105838339019056fe60806040523480156200001157600080fd5b5060405162002efc38038062002efc833981810160405260408110156200003757600080fd5b81019080805160405193929190846401000000008211156200005857600080fd5b838201915060208201858111156200006f57600080fd5b82518660208202830111640100000000821117156200008d57600080fd5b8083526020830192505050908051906020019060200280838360005b83811015620000c6578082015181840152602081019050620000a9565b505050509050016040526020018051906020019092919050505081518160328211158015620000f55750818111155b801562000103575060008114155b801562000111575060008214155b62000184576040517f08c379a00000000000000000000000000000000000000000000000000000000081526004018080602001828103825260138152602001807f57616c6c6574206973206e6f742076616c69640000000000000000000000000081525060200191505060405180910390fd5b60008090505b8451811015620002c85760026000868381518110620001a557fe5b602002602001015173ffffffffffffffffffffffffffffffffffffffff1673ffffffffffffffffffffffffffffffffffffffff16815260200190815260200160002060009054906101000a900460ff16158015620002445750600073ffffffffffffffffffffffffffffffffffffffff168582815181106200022357fe5b602002602001015173ffffffffffffffffffffffffffffffffffffffff1614155b6200024e57600080fd5b6001600260008784815181106200026157fe5b602002602001015173ffffffffffffffffffffffffffffffffffffffff1673ffffffffffffffffffffffffffffffffffffffff16815260200190815260200160002060006101000a81548160ff02191690831515021790555080806001019150506200018a565b508360039080519060200190620002e1929190620002f3565b508260048190555050505050620003c8565b8280548282559060005260206000209081019282156200036f579160200282015b828111156200036e5782518260006101000a81548173ffffffffffffffffffffffffffffffffffffffff021916908373ffffffffffffffffffffffffffffffffffffffff1602179055509160200191906001019062000314565b5b5090506200037e919062000382565b5090565b620003c591905b80821115620003c157600081816101000a81549073ffffffffffffffffffffffffffffffffffffffff02191690555060010162000389565b5090565b90565b612b2480620003d86000396000f3fe60806040526004361061012a5760003560e01c8063a0e67e2b116100ab578063c01a8c841161006f578063c01a8c84146107c4578063c6427474146107ff578063d74f8edd14610905578063dc8452cd14610930578063e20056e61461095b578063ee22610b146109cc5761012a565b8063a0e67e2b146105b0578063a8abe69a1461061c578063b5dc40c3146106ce578063b77bf6001461075e578063ba51a6df146107895761012a565b806354741525116100f257806354741525146103675780637065cb48146103c4578063784547a7146104155780638b51d13f146104685780639ace38c2146104b75761012a565b8063025e7c2714610184578063173825d9146101ff57806320ea8d86146102505780632f54bf6e1461028b5780633411c81c146102f4575b6000341115610182573373ffffffffffffffffffffffffffffffffffffffff167fe1fffcc4923d04b559f4d29a8bfc6cda04eb5b0d3c460751c2402c5c5cc9109c346040518082815260200191505060405180910390a25b005b34801561019057600080fd5b506101bd600480360360208110156101a757600080fd5b8101908080359060200190929190505050610a07565b604051808273ffffffffffffffffffffffffffffffffffffffff1673ffffffffffffffffffffffffffffffffffffffff16815260200191505060405180910390f35b34801561020b57600080fd5b5061024e6004803603602081101561022257600080fd5b81019080803573ffffffffffffffffffffffffffffffffffffffff169060200190929190505050610a43565b005b34801561025c57600080fd5b506102896004803603602081101561027357600080fd5b8101908080359060200190929190505050610d69565b005b34801561029757600080fd5b506102da600480360360208110156102ae57600080fd5b81019080803573ffffffffffffffffffffffffffffffffffffffff169060200190929190505050611029565b604051808215151515815260200191505060405180910390f35b34801561030057600080fd5b5061034d6004803603604081101561031757600080fd5b8101908080359060200190929190803573ffffffffffffffffffffffffffffffffffffffff169060200190929190505050611049565b604051808215151515815260200191505060405180910390f35b34801561037357600080fd5b506103ae6004803603604081101561038a57600080fd5b81019080803515159060200190929190803515159060200190929190505050611078565b6040518082815260200191505060405180910390f35b3480156103d057600080fd5b50610413600480360360208110156103e757600080fd5b81019080803573ffffffffffffffffffffffffffffffffffffffff16906020019092919050505061110a565b005b34801561042157600080fd5b5061044e6004803603602081101561043857600080fd5b81019080803590602001909291905050506114a4565b604051808215151515815260200191505060405180910390f35b34801561047457600080fd5b506104a16004803603602081101561048b57600080fd5b8101908080359060200190929190505050611589565b6040518082815260200191505060405180910390f35b3480156104c357600080fd5b506104f0600480360360208110156104da57600080fd5b8101908080359060200190929190505050611652565b604051808573ffffffffffffffffffffffffffffffffffffffff1673ffffffffffffffffffffffffffffffffffffffff1681526020018481526020018060200183151515158152602001828103825284818151815260200191508051906020019080838360005b83811015610572578082015181840152602081019050610557565b50505050905090810190601f16801561059f5780820380516001836020036101000a031916815260200191505b509550505050505060405180910390f35b3480156105bc57600080fd5b506105c5611747565b6040518080602001828103825283818151815260200191508051906020019060200280838360005b838110156106085780820151818401526020810190506105ed565b505050509050019250505060405180910390f35b34801561062857600080fd5b506106776004803603608081101561063f57600080fd5b8101908080359060200190929190803590602001909291908035151590602001909291908035151590602001909291905050506117d5565b6040518080602001828103825283818151815260200191508051906020019060200280838360005b838110156106ba57808201518184015260208101905061069f565b505050509050019250505060405180910390f35b3480156106da57600080fd5b50610707600480360360208110156106f157600080fd5b8101908080359060200190929190505050611939565b6040518080602001828103825283818151815260200191508051906020019060200280838360005b8381101561074a57808201518184015260208101905061072f565b505050509050019250505060405180910390f35b34801561076a57600080fd5b50610773611b65565b6040518082815260200191505060405180910390f35b34801561079557600080fd5b506107c2600480360360208110156107ac57600080fd5b8101908080359060200190929190505050611b6b565b005b3480156107d057600080fd5b506107fd600480360360208110156107e757600080fd5b8101908080359060200190929190505050611cd6565b005b34801561080b57600080fd5b506108ef6004803603606081101561082257600080fd5b81019080803573ffffffffffffffffffffffffffffffffffffffff169060200190929190803590602001909291908035906020019064010000000081111561086957600080fd5b82018360208201111561087b57600080fd5b8035906020019184600183028401116401000000008311171561089d57600080fd5b91908080601f016020809104026020016040519081016040528093929190818152602001838380828437600081840152601f19601f820116905080830192505050505050509192919290505050611fe1565b6040518082815260200191505060405180910390f35b34801561091157600080fd5b5061091a612000565b6040518082815260200191505060405180910390f35b34801561093c57600080fd5b50610945612005565b6040518082815260200191505060405180910390f35b34801561096757600080fd5b506109ca6004803603604081101561097e57600080fd5b81019080803573ffffffffffffffffffffffffffffffffffffffff169060200190929190803573ffffffffffffffffffffffffffffffffffffffff16906020019092919050505061200b565b005b3480156109d857600080fd5b50610a05600480360360208110156109ef57600080fd5b8101908080359060200190929190505050612416565b005b60038181548110610a1457fe5b906000526020600020016000915054906101000a900473ffffffffffffffffffffffffffffffffffffffff1681565b3073ffffffffffffffffffffffffffffffffffffffff163373ffffffffffffffffffffffffffffffffffffffff1614610ac7576040517f08c379a000000000000000000000000000000000000000000000000000000000815260040180806020018281038252602a815260200180612ac6602a913960400191505060405180910390fd5b80600260008273ffffffffffffffffffffffffffffffffffffffff1673ffffffffffffffffffffffffffffffffffffffff16815260200190815260200160002060009054906101000a900460ff16610b6a576040517f08c379a000000000000000000000000000000000000000000000000000000000815260040180806020018281038252602b815260200180612a9b602b913960400191505060405180910390fd5b6000600260008473ffffffffffffffffffffffffffffffffffffffff1673ffffffffffffffffffffffffffffffffffffffff16815260200190815260200160002060006101000a81548160ff02191690831515021790555060008090505b600160038054905003811015610cea578273ffffffffffffffffffffffffffffffffffffffff1660038281548110610bfc57fe5b9060005260206000200160009054906101000a900473ffffffffffffffffffffffffffffffffffffffff1673ffffffffffffffffffffffffffffffffffffffff161415610cdd57600360016003805490500381548110610c5857fe5b9060005260206000200160009054906101000a900473ffffffffffffffffffffffffffffffffffffffff1660038281548110610c9057fe5b9060005260206000200160006101000a81548173ffffffffffffffffffffffffffffffffffffffff021916908373ffffffffffffffffffffffffffffffffffffffff160217905550610cea565b8080600101915050610bc8565b506001600381818054905003915081610d0391906129c9565b506003805490506004541115610d2257610d21600380549050611b6b565b5b8173ffffffffffffffffffffffffffffffffffffffff167f8001553a916ef2f495d26a907cc54d96ed840d7bda71e73194bf5a9df7a76b9060405160405180910390a25050565b33600260008273ffffffffffffffffffffffffffffffffffffffff1673ffffffffffffffffffffffffffffffffffffffff16815260200190815260200160002060009054906101000a900460ff16610e0c576040517f08c379a000000000000000000000000000000000000000000000000000000000815260040180806020018281038252602b815260200180612a9b602b913960400191505060405180910390fd5b81336001600083815260200190815260200160002060008273ffffffffffffffffffffffffffffffffffffffff1673ffffffffffffffffffffffffffffffffffffffff16815260200190815260200160002060009054906101000a900460ff16610ede576040517f08c379a00000000000000000000000000000000000000000000000000000000081526004018080602001828103825260198152602001807f5472616e73616374696f6e206e6f7420636f6e6669726d65640000000000000081525060200191505060405180910390fd5b8360008082815260200190815260200160002060030160009054906101000a900460ff1615610f75576040517f08c379a000000000000000000000000000000000000000000000000000000000815260040180806020018281038252601b8152602001807f5472616e73616374696f6e20616c72656179206578656375746564000000000081525060200191505060405180910390fd5b60006001600087815260200190815260200160002060003373ffffffffffffffffffffffffffffffffffffffff1673ffffffffffffffffffffffffffffffffffffffff16815260200190815260200160002060006101000a81548160ff021916908315150217905550843373ffffffffffffffffffffffffffffffffffffffff167ff6a317157440607f36269043eb55f1287a5a19ba2216afeab88cd46cbcfb88e960405160405180910390a35050505050565b60026020528060005260406000206000915054906101000a900460ff1681565b60016020528160005260406000206020528060005260406000206000915091509054906101000a900460ff1681565b600080600090505b600554811015611103578380156110b7575060008082815260200190815260200160002060030160009054906101000a900460ff16155b806110ea57508280156110e9575060008082815260200190815260200160002060030160009054906101000a900460ff165b5b156110f6576001820191505b8080600101915050611080565b5092915050565b3073ffffffffffffffffffffffffffffffffffffffff163373ffffffffffffffffffffffffffffffffffffffff161461118e576040517f08c379a000000000000000000000000000000000000000000000000000000000815260040180806020018281038252602a815260200180612ac6602a913960400191505060405180910390fd5b80600260008273ffffffffffffffffffffffffffffffffffffffff1673ffffffffffffffffffffffffffffffffffffffff16815260200190815260200160002060009054906101000a900460ff161561124f576040517f08c379a00000000000000000000000000000000000000000000000000000000081526004018080602001828103825260168152602001807f4f776e657220616c72656164792061737369676e65640000000000000000000081525060200191505060405180910390fd5b81600073ffffffffffffffffffffffffffffffffffffffff168173ffffffffffffffffffffffffffffffffffffffff1614156112f3576040517f08c379a000000000000000000000000000000000000000000000000000000000815260040180806020018281038252600f8152602001807f41646472657373206973206e756c6c000000000000000000000000000000000081525060200191505060405180910390fd5b600160038054905001600454603282111580156113105750818111155b801561131d575060008114155b801561132a575060008214155b61139c576040517f08c379a00000000000000000000000000000000000000000000000000000000081526004018080602001828103825260138152602001807f57616c6c6574206973206e6f742076616c69640000000000000000000000000081525060200191505060405180910390fd5b6001600260008773ffffffffffffffffffffffffffffffffffffffff1673ffffffffffffffffffffffffffffffffffffffff16815260200190815260200160002060006101000a81548160ff02191690831515021790555060038590806001815401808255809150509060018203906000526020600020016000909192909190916101000a81548173ffffffffffffffffffffffffffffffffffffffff021916908373ffffffffffffffffffffffffffffffffffffffff160217905550508473ffffffffffffffffffffffffffffffffffffffff167ff39e6e1eb0edcf53c221607b54b00cd28f3196fed0a24994dc308b8f611b682d60405160405180910390a25050505050565b6000806000905060008090505b60038054905081101561158157600160008581526020019081526020016000206000600383815481106114e057fe5b9060005260206000200160009054906101000a900473ffffffffffffffffffffffffffffffffffffffff1673ffffffffffffffffffffffffffffffffffffffff1673ffffffffffffffffffffffffffffffffffffffff16815260200190815260200160002060009054906101000a900460ff161561155f576001820191505b60045482141561157457600192505050611584565b80806001019150506114b1565b50505b919050565b600080600090505b60038054905081101561164c57600160008481526020019081526020016000206000600383815481106115c057fe5b9060005260206000200160009054906101000a900473ffffffffffffffffffffffffffffffffffffffff1673ffffffffffffffffffffffffffffffffffffffff1673ffffffffffffffffffffffffffffffffffffffff16815260200190815260200160002060009054906101000a900460ff161561163f576001820191505b8080600101915050611591565b50919050565b60006020528060005260406000206000915090508060000160009054906101000a900473ffffffffffffffffffffffffffffffffffffffff1690806001015490806002018054600181600116156101000203166002900480601f01602080910402602001604051908101604052809291908181526020018280546001816001161561010002031660029004801561172a5780601f106116ff5761010080835404028352916020019161172a565b820191906000526020600020905b81548152906001019060200180831161170d57829003601f168201915b5050505050908060030160009054906101000a900460ff16905084565b606060038054806020026020016040519081016040528092919081815260200182805480156117cb57602002820191906000526020600020905b8160009054906101000a900473ffffffffffffffffffffffffffffffffffffffff1673ffffffffffffffffffffffffffffffffffffffff1681526020019060010190808311611781575b5050505050905090565b6060806005546040519080825280602002602001820160405280156118095781602001602082028038833980820191505090505b509050600080905060008090505b6005548110156118b35785801561184e575060008082815260200190815260200160002060030160009054906101000a900460ff16155b806118815750848015611880575060008082815260200190815260200160002060030160009054906101000a900460ff165b5b156118a6578083838151811061189357fe5b6020026020010181815250506001820191505b8080600101915050611817565b8787036040519080825280602002602001820160405280156118e45781602001602082028038833980820191505090505b5093508790505b8681101561192e578281815181106118ff57fe5b6020026020010151848983038151811061191557fe5b60200260200101818152505080806001019150506118eb565b505050949350505050565b6060806003805490506040519080825280602002602001820160405280156119705781602001602082028038833980820191505090505b509050600080905060008090505b600380549050811015611ab757600160008681526020019081526020016000206000600383815481106119ad57fe5b9060005260206000200160009054906101000a900473ffffffffffffffffffffffffffffffffffffffff1673ffffffffffffffffffffffffffffffffffffffff1673ffffffffffffffffffffffffffffffffffffffff16815260200190815260200160002060009054906101000a900460ff1615611aaa5760038181548110611a3257fe5b9060005260206000200160009054906101000a900473ffffffffffffffffffffffffffffffffffffffff16838381518110611a6957fe5b602002602001019073ffffffffffffffffffffffffffffffffffffffff16908173ffffffffffffffffffffffffffffffffffffffff16815250506001820191505b808060010191505061197e565b81604051908082528060200260200182016040528015611ae65781602001602082028038833980820191505090505b509350600090505b81811015611b5d57828181518110611b0257fe5b6020026020010151848281518110611b1657fe5b602002602001019073ffffffffffffffffffffffffffffffffffffffff16908173ffffffffffffffffffffffffffffffffffffffff16815250508080600101915050611aee565b505050919050565b60055481565b3073ffffffffffffffffffffffffffffffffffffffff163373ffffffffffffffffffffffffffffffffffffffff1614611bef576040517f08c379a000000000000000000000000000000000000000000000000000000000815260040180806020018281038252602a815260200180612ac6602a913960400191505060405180910390fd5b6003805490508160328211158015611c075750818111155b8015611c14575060008114155b8015611c21575060008214155b611c93576040517f08c379a00000000000000000000000000000000000000000000000000000000081526004018080602001828103825260138152602001807f57616c6c6574206973206e6f742076616c69640000000000000000000000000081525060200191505060405180910390fd5b826004819055507fa3f1ee9126a074d9326c682f561767f710e927faa811f7a99829d49dc421797a836040518082815260200191505060405180910390a1505050565b33600260008273ffffffffffffffffffffffffffffffffffffffff1673ffffffffffffffffffffffffffffffffffffffff16815260200190815260200160002060009054906101000a900460ff16611d79576040517f08c379a000000000000000000000000000000000000000000000000000000000815260040180806020018281038252602b815260200180612a9b602b913960400191505060405180910390fd5b81600073ffffffffffffffffffffffffffffffffffffffff1660008083815260200190815260200160002060000160009054906101000a900473ffffffffffffffffffffffffffffffffffffffff1673ffffffffffffffffffffffffffffffffffffffff161415611e52576040517f08c379a000000000000000000000000000000000000000000000000000000000815260040180806020018281038252601a8152602001807f5472616e73616374696f6e20646f6573206e6f7420657869737400000000000081525060200191505060405180910390fd5b82336001600083815260200190815260200160002060008273ffffffffffffffffffffffffffffffffffffffff1673ffffffffffffffffffffffffffffffffffffffff16815260200190815260200160002060009054906101000a900460ff1615611f25576040517f08c379a00000000000000000000000000000000000000000000000000000000081526004018080602001828103825260208152602001807f5472616e73616374696f6e20697320616c726561647920636f6e6669726d656481525060200191505060405180910390fd5b600180600087815260200190815260200160002060003373ffffffffffffffffffffffffffffffffffffffff1673ffffffffffffffffffffffffffffffffffffffff16815260200190815260200160002060006101000a81548160ff021916908315150217905550843373ffffffffffffffffffffffffffffffffffffffff167f4a504a94899432a9846e1aa406dceb1bcfd538bb839071d49d1e5e23f5be30ef60405160405180910390a3611fda85612416565b5050505050565b6000611fee8484846127d6565b9050611ff981611cd6565b9392505050565b603281565b60045481565b3073ffffffffffffffffffffffffffffffffffffffff163373ffffffffffffffffffffffffffffffffffffffff161461208f576040517f08c379a000000000000000000000000000000000000000000000000000000000815260040180806020018281038252602a815260200180612ac6602a913960400191505060405180910390fd5b81600260008273ffffffffffffffffffffffffffffffffffffffff1673ffffffffffffffffffffffffffffffffffffffff16815260200190815260200160002060009054906101000a900460ff16612132576040517f08c379a000000000000000000000000000000000000000000000000000000000815260040180806020018281038252602b815260200180612a9b602b913960400191505060405180910390fd5b81600260008273ffffffffffffffffffffffffffffffffffffffff1673ffffffffffffffffffffffffffffffffffffffff16815260200190815260200160002060009054906101000a900460ff16156121f3576040517f08c379a00000000000000000000000000000000000000000000000000000000081526004018080602001828103825260168152602001807f4f776e657220616c72656164792061737369676e65640000000000000000000081525060200191505060405180910390fd5b60008090505b6003805490508110156122d9578473ffffffffffffffffffffffffffffffffffffffff166003828154811061222a57fe5b9060005260206000200160009054906101000a900473ffffffffffffffffffffffffffffffffffffffff1673ffffffffffffffffffffffffffffffffffffffff1614156122cc57836003828154811061227f57fe5b9060005260206000200160006101000a81548173ffffffffffffffffffffffffffffffffffffffff021916908373ffffffffffffffffffffffffffffffffffffffff1602179055506122d9565b80806001019150506121f9565b506000600260008673ffffffffffffffffffffffffffffffffffffffff1673ffffffffffffffffffffffffffffffffffffffff16815260200190815260200160002060006101000a81548160ff0219169083151502179055506001600260008573ffffffffffffffffffffffffffffffffffffffff1673ffffffffffffffffffffffffffffffffffffffff16815260200190815260200160002060006101000a81548160ff0219169083151502179055508373ffffffffffffffffffffffffffffffffffffffff167f8001553a916ef2f495d26a907cc54d96ed840d7bda71e73194bf5a9df7a76b9060405160405180910390a28273ffffffffffffffffffffffffffffffffffffffff167ff39e6e1eb0edcf53c221607b54b00cd28f3196fed0a24994dc308b8f611b682d60405160405180910390a250505050565b33600260008273ffffffffffffffffffffffffffffffffffffffff1673ffffffffffffffffffffffffffffffffffffffff16815260200190815260200160002060009054906101000a900460ff166124b9576040517f08c379a000000000000000000000000000000000000000000000000000000000815260040180806020018281038252602b815260200180612a9b602b913960400191505060405180910390fd5b81336001600083815260200190815260200160002060008273ffffffffffffffffffffffffffffffffffffffff1673ffffffffffffffffffffffffffffffffffffffff16815260200190815260200160002060009054906101000a900460ff1661258b576040517f08c379a00000000000000000000000000000000000000000000000000000000081526004018080602001828103825260198152602001807f5472616e73616374696f6e206e6f7420636f6e6669726d65640000000000000081525060200191505060405180910390fd5b8360008082815260200190815260200160002060030160009054906101000a900460ff1615612622576040517f08c379a000000000000000000000000000000000000000000000000000000000815260040180806020018281038252601b8152602001807f5472616e73616374696f6e20616c72656179206578656375746564000000000081525060200191505060405180910390fd5b61262b856114a4565b156127cf576000806000878152602001908152602001600020905060018160030160006101000a81548160ff02191690831515021790555061274b8160000160009054906101000a900473ffffffffffffffffffffffffffffffffffffffff16826001015483600201805460018160011615610100020316600290049050846002018054600181600116156101000203166002900480601f0160208091040260200160405190810160405280929190818152602001828054600181600116156101000203166002900480156127415780601f1061271657610100808354040283529160200191612741565b820191906000526020600020905b81548152906001019060200180831161272457829003601f168201915b50505050506129a4565b1561278257857f33e13ecb54c3076d8e8bb8c2881800a4d972b792045ffae98fdf46df365fed7560405160405180910390a26127cd565b857f526441bb6c1aba3c9a4a6ca1d6545da9c2333c8c48343ef398eb858d72b7923660405160405180910390a260008160030160006101000a81548160ff0219169083151502179055505b505b5050505050565b600083600073ffffffffffffffffffffffffffffffffffffffff168173ffffffffffffffffffffffffffffffffffffffff16141561287c576040517f08c379a000000000000000000000000000000000000000000000000000000000815260040180806020018281038252600f8152602001807f41646472657373206973206e756c6c000000000000000000000000000000000081525060200191505060405180910390fd5b600554915060405180608001604052808673ffffffffffffffffffffffffffffffffffffffff1681526020018581526020018481526020016000151581525060008084815260200190815260200160002060008201518160000160006101000a81548173ffffffffffffffffffffffffffffffffffffffff021916908373ffffffffffffffffffffffffffffffffffffffff16021790555060208201518160010155604082015181600201908051906020019061293a9291906129f5565b5060608201518160030160006101000a81548160ff0219169083151502179055509050506001600560008282540192505081905550817fc0ba8fe4b176c1714197d43b9cc6bcf797a4a7461c5fe8d0ef6e184ae7601e5160405160405180910390a2509392505050565b6000806040516020840160008287838a8c455a03f19250505080915050949350505050565b8154818355818111156129f0578183600052602060002091820191016129ef9190612a75565b5b505050565b828054600181600116156101000203166002900490600052602060002090601f016020900481019282601f10612a3657805160ff1916838001178555612a64565b82800160010185558215612a64579182015b82811115612a63578251825591602001919060010190612a48565b5b509050612a719190612a75565b5090565b612a9791905b80821115612a93576000816000905550600101612a7b565b5090565b9056fe546869732061646472657373206973206e6f7420616e206f776e6572206f6620746869732077616c6c657443686e616765732063616e206f6e6c79206265206d6164652062792077616c6c65742061646472657373a265627a7a72315820a225d9372fed7d2b245dbb75f3fe34ab9e85ae9d8517dc3ee44fb3097b046f9c64736f6c634300050c0032a265627a7a723158207f56dd0f96b3db097db33313b02c94795f2ef2e774417ab31c0d0498e94dab2164736f6c634300050c0032",
  "source": "pragma solidity ^0.5.12;\n\nimport \"./Factory.sol\";\nimport \"./MultiSigWallet.sol\";\n\n\n/// @title Multisignature wallet factory - Allows creation of multisig wallet.\n/// @author Stefan George - <stefan.george@consensys.net>\ncontract MultiSigWalletFactory is Factory {\n\n    /*\n     * Public functions\n     */\n    /// @dev Allows verified creation of multisignature wallet.\n    /// @param _owners List of initial owners.\n    /// @param _required Number of required confirmations.\n    /// @return Returns wallet address.\n    function create(address[] memory _owners, uint _required)\n        public\n        returns (address payable multisig_wallet)\n    {\n        MultiSigWallet escrow = new MultiSigWallet(_owners, _required);\n        multisig_wallet = address(escrow);\n        register(multisig_wallet);\n    }\n}\n",
  "sourcePath": "/Users/bertrandrioux/git/SACAT/contracts/MultiSigWalletFactory.sol",
  "compiler": {
    "name": "solc",
    "version": "0.5.12+commit.7709ece9.Emscripten.clang"
  },
  "schemaVersion": "3.0.20",
  "updatedAt": "2020-08-05T09:47:23.556Z",
  "devdoc": {
    "author": "Stefan George - <stefan.george@consensys.net>",
    "methods": {
      "create(address[],uint256)": {
        "details": "Allows verified creation of multisignature wallet.",
        "params": {
          "_owners": "List of initial owners.",
          "_required": "Number of required confirmations."
        },
        "return": "Returns wallet address."
      },
      "getInstantiationCount(address)": {
        "details": "Returns number of instantiations by creator.",
        "params": {
          "creator": "Contract creator."
        },
        "return": "Returns number of instantiations by creator."
      }
    },
    "title": "Multisignature wallet factory - Allows creation of multisig wallet."
  },
  "userdoc": {
    "methods": {}
  }
}