{
  "contractName": "oldCarboTag",
  "abi": [
    {
      "constant": true,
      "inputs": [],
      "name": "factory_addr",
      "outputs": [
        {
          "internalType": "address",
          "name": "",
          "type": "address"
        }
      ],
      "payable": false,
      "stateMutability": "view",
      "type": "function"
    },
    {
      "constant": true,
      "inputs": [
        {
          "internalType": "address",
          "name": "",
          "type": "address"
        }
      ],
      "name": "registered",
      "outputs": [
        {
          "internalType": "bool",
          "name": "",
          "type": "bool"
        }
      ],
      "payable": false,
      "stateMutability": "view",
      "type": "function"
    },
    {
      "constant": true,
      "inputs": [],
      "name": "totalCarbon",
      "outputs": [
        {
          "internalType": "uint256",
          "name": "",
          "type": "uint256"
        }
      ],
      "payable": false,
      "stateMutability": "view",
      "type": "function"
    },
    {
      "constant": true,
      "inputs": [],
      "name": "totalGold",
      "outputs": [
        {
          "internalType": "uint256",
          "name": "",
          "type": "uint256"
        }
      ],
      "payable": false,
      "stateMutability": "view",
      "type": "function"
    },
    {
      "constant": true,
      "inputs": [],
      "name": "userCount",
      "outputs": [
        {
          "internalType": "uint256",
          "name": "",
          "type": "uint256"
        }
      ],
      "payable": false,
      "stateMutability": "view",
      "type": "function"
    },
    {
      "constant": true,
      "inputs": [
        {
          "internalType": "uint256",
          "name": "",
          "type": "uint256"
        }
      ],
      "name": "userIndex",
      "outputs": [
        {
          "internalType": "address",
          "name": "",
          "type": "address"
        }
      ],
      "payable": false,
      "stateMutability": "view",
      "type": "function"
    },
    {
      "constant": true,
      "inputs": [
        {
          "internalType": "address",
          "name": "",
          "type": "address"
        }
      ],
      "name": "wallet",
      "outputs": [
        {
          "internalType": "string",
          "name": "name",
          "type": "string"
        },
        {
          "internalType": "int256",
          "name": "carbon",
          "type": "int256"
        },
        {
          "internalType": "uint256",
          "name": "gold",
          "type": "uint256"
        }
      ],
      "payable": false,
      "stateMutability": "view",
      "type": "function"
    }
  ],
  "bytecode": "0x608060405234801561001057600080fd5b5061043d806100206000396000f3fe608060405234801561001057600080fd5b506004361061007d5760003560e01c8063a9f48f8d1161005b578063a9f48f8d14610189578063b2dd5c07146101a7578063bf4cf4ff14610203578063c37dfd6e1461024d5761007d565b806307973ccf146100825780637dbad26c146100a0578063a56cc439146100be575b600080fd5b61008a6102bb565b6040518082815260200191505060405180910390f35b6100a86102c1565b6040518082815260200191505060405180910390f35b610100600480360360208110156100d457600080fd5b81019080803573ffffffffffffffffffffffffffffffffffffffff1690602001909291905050506102c7565b6040518080602001848152602001838152602001828103825285818151815260200191508051906020019080838360005b8381101561014c578082015181840152602081019050610131565b50505050905090810190601f1680156101795780820380516001836020036101000a031916815260200191505b5094505050505060405180910390f35b610191610389565b6040518082815260200191505060405180910390f35b6101e9600480360360208110156101bd57600080fd5b81019080803573ffffffffffffffffffffffffffffffffffffffff16906020019092919050505061038f565b604051808215151515815260200191505060405180910390f35b61020b6103af565b604051808273ffffffffffffffffffffffffffffffffffffffff1673ffffffffffffffffffffffffffffffffffffffff16815260200191505060405180910390f35b6102796004803603602081101561026357600080fd5b81019080803590602001909291905050506103d5565b604051808273ffffffffffffffffffffffffffffffffffffffff1673ffffffffffffffffffffffffffffffffffffffff16815260200191505060405180910390f35b60065481565b60005481565b6003602052806000526040600020600091509050806000018054600181600116156101000203166002900480601f0160208091040260200160405190810160405280929190818152602001828054600181600116156101000203166002900480156103735780601f1061034857610100808354040283529160200191610373565b820191906000526020600020905b81548152906001019060200180831161035657829003601f168201915b5050505050908060010154908060020154905083565b60015481565b60046020528060005260406000206000915054906101000a900460ff1681565b600260009054906101000a900473ffffffffffffffffffffffffffffffffffffffff1681565b60056020528060005260406000206000915054906101000a900473ffffffffffffffffffffffffffffffffffffffff168156fea265627a7a723158204fcf409180556398d7d3a238a32c37df06e99a6e217a5b92894d2a1514b6faea64736f6c634300050c0032",
  "source": "pragma solidity ^0.5.12;\nimport \"./MultiSigWalletFactory.sol\";\nimport \"./Stamper.sol\";\n\nlibrary CarboTagLib {\n\n}\n\ncontract oldCarboTag {\n  struct Attributes {  //basic wallet, minimum attributes\n    //bool registered;\n    string name;   //Text Identifier\n    int carbon;      //Carbon held\n    uint gold;      //Gold held\n  }\n  uint public totalCarbon;   //metric for system carbon this can be negative\n  uint public totalGold;   //metric for system gold\n  address public factory_addr;\n  mapping (address => Attributes) public wallet;\n  mapping (address => bool) public registered; //Valid account?)\n  mapping (uint => address) public userIndex;  //So we can cycle through accounts easily\n  uint public userCount; //number of accounts\n}\n\ncontract CarboTag {\n    /*\n     *  Events\n    */\n  event EscrowFunded (address indexed sender, uint256 indexed value);\n\n  address public owner;\n  mapping (address => bool) public governor;\n  address public factory_addr;\n  uint public totalCarbon;   //metric for system carbon this can be negative\n  uint public totalGold;   //metric for system gold\n  uint public totalStamperCarbon; //metric for stamper carbon this can be non-negative\n  uint public totalStamperGold; //metric for stamper gold\n  \n  struct Attributes {  //basic wallet, minimum attributes\n    string name;   //Text Identifier\n    int carbon;      //Carbon held\n    uint gold;      //Gold held\n  }\n  mapping (address => Attributes) public wallet;\n  mapping (address => bool) public registered; //Valid account?)\n  //mapping a given wallet address pair to escrow address\n  mapping(address => mapping(address => address payable)) internal EscrowAddr;\n  mapping (address => address[]) public escrowList; // mapping user address to array of active escrows\n  function getEscrowList(address _address)\n      public\n      view\n      returns (address[] memory) \n  {\n      return escrowList[_address];\n  }\n  //escrow addresses associated with each wallet\n    // Note this is additional data stored on the network\n    // To help users keep track of the escrow accounts associated with their wallet\n    // and check for exisitng transactions in each escrow\n    // to minimze data storage we could store this data externally...\n\n  // TO-DO only store escrow tx data into the correspoinding multisig wallet \n  // within the encodeWithSignature data. Requires developing decoding routine \n  // that will read fn/parameters stored in the external multisig wallet (true escrow)\n  // This will make the carbon contract lighter\n  // For now laziliy store escrow tx data within the carbon contract\n  // rather than decoding the parameters using assembly (complex)... \n  struct EscrowTxAttr {\n    \n    uint multisig_tx_id; //transactionId from multisig wallet\n    bool exists;\n    // Below attributes are stored as encoded bytes data in the external multisig wallet\n    address issuer;\n    //address receiver;\n    int carbon; // signed integer carbon transfer, (+) for send carbon to receiver, (-) to request carbon transfer to sender\n    int gold; // signed integer gold transfer, (+) for send gold to receiver, (-) to request gold transfer to sender\n  }\n\n  // mapping escrow address and transaction ID to escrow transaction attributes\n  mapping(address => mapping(uint => EscrowTxAttr)) public escrowTx;\n  mapping(address => uint) public escrowTxCount;\n\n  // This maps the account holders address to their stamper contract address\n  mapping (address => address) public stamperRegistry;\n\n  // directory of all registered wallets. This will increae the weight of the contract\n  mapping (uint => address) public userIndex;  //So we can cycle through accounts easily\n  mapping (uint => address) public stamperIndex;  //So we can cycle through stampers easily\n  uint public userCount; //number of accounts\n  uint public stamperCount; //number of stampers\n\n  modifier onlyOwner () {  //added some security\n    require(msg.sender == owner, 'ONly the contract owner can do that');\n    _;\n  }\n  modifier onlyGovernor () {    //added some governance\n    require(governor[msg.sender] == true);\n    _;\n  }\n  modifier onlyMember () {  //added some security\n    require(registered[msg.sender] == true, \"You are not registered\");\n    _;\n  }\n  modifier onlyEscrow(address _sender, address _receiver) {  //added some security\n    require(findEscrowAddr(_sender, _receiver) == msg.sender, \"Can only call from Escrow contract\");\n    _;\n  }\n  modifier onlyStamperContract(address _stamper) {  //added some security\n    require(stamperRegistry[_stamper] == msg.sender, \"Can only call from Stamper Contract\");\n    _;\n  }\n  modifier escrowExists(address _sender, address _receiver){\n    require(findEscrowAddr(_sender, _receiver)!=address(0x0), \"No escrow wallet\");\n    _;  \n  }\n  modifier escrowTxExists(address _sender, address _receiver, uint _txID){\n    require(findEscrowAddr(_sender, _receiver)!=address(0x0)\n      && escrowTx[findEscrowAddr(_sender, _receiver)][_txID].exists, \n      \"Escro TX does not exist\");\n    _;  \n  }\n  modifier escrowDoesNotExist(address _sender, address _receiver){\n    require(findEscrowAddr(_sender, _receiver)==address(0x0), \"Escrow already created\");\n    _;  \n  }\n  modifier stamperDoesNotExsit(address _target){\n    require(stamperRegistry[_target]==address(0x0), \"Stamper already registered.\");\n    _;\n  }\n  // out boolean if sender transfering gold out (+), or sender request to receive gold (-) \n  modifier sufficientGold(address _sender, address _receiver, int _gold){\n    require(\n      (_gold>0 && uint(_gold)<=wallet[_sender].gold) //cant send gold unless you have it,\n      || (_gold<=0)// && uint(_gold)<=wallet[_receiver].gold) // but can ask\n      // The second condition prevents asking for gold that exceeds balance from \n      // requester (_receivers) wallet. We do not really need this?\n      , \"Insufficient gold for this transfer\");  \n    _;\n  }\n\n\n  constructor(address factory) public {\n    owner = msg.sender;\n    governor[msg.sender]=true;\n    factory_addr = factory;\n    /*\n    oldCarboTag oldContract = oldCarboTag(oldAddr);\n    userCount = oldContract.userCount();\n    //userCount = accounts.length;\n    totalCarbon = oldContract.totalCarbon();  //old name for carbon...\n    totalGold = oldContract.totalGold();\n    // reset stamper accounts in the new contract\n    // stamperCount = oldContract.stamperCount;\n    // totalStamperCarbon; //metric for stamper carbon this can be non-negative\n    // totalStamperGold; //metric for stamper gold\n    address _address;\n    //for (uint i=0; i<accounts.length; i++) {\n    //  _address = accounts[i];\n    for(uint i=0;i<userCount;i++) {\n      _address = oldContract.userIndex(i);\n      userIndex[i]=_address;\n      (string memory _name, int _carbon, uint _gold) = oldContract.wallet(_address);\n      \n      wallet[_address].name = _name; \n      wallet[_address].carbon = _carbon;\n      wallet[_address].gold = _gold; \n      registered[_address] = oldContract.registered(_address);\n      /*\n      TODO Carry over escrow from old contract addrr?\n      this is tricky because the MultiSigWallet escrrow include the old contract address \n      as an owner to allow CarboTag to trigger the escrow\n      This will be easier when the escrow is not linked to this contract\n      such that createTransaction() fn is no longer used to create escrow txs\n      Instead txs will be created by directly calling MultiSigWallet (TODO)\n\n      address _escrowList = getEscrowList(_address) ;\n      for(uint j=0;j<_escrowList.length;j++) {\n        \n        (address[] _owners)=MultiSigWallet(_escrowList[j]).getOwners();\n        for(uint k=0;k<_owners.length;k++) {\n          if((_owners[k] != oldAddr || _owners[k]!=_address) && findEscrowAddr(_address, _escrowList[j])!=address(0x0))\n          {\n            EscrowAddr[_address][_owners[k]] = _escrowList[j];\n          }\n        }\n      } \n      /  \n    }\n    */\n  }\n\n  function() \n    external payable \n  {\n\n  }\n    \n  function addGovernor(address _target)  \n    public \n    onlyOwner()\n  {\n    governor[_target]=true;\n  }\n\n  function signUp(string memory name) public{\n    require(registered[msg.sender]!= true, \"ALREADY REGISTERED\");\n    userIndex[userCount++]=msg.sender;\n    wallet[msg.sender].name = name;\n    registered[msg.sender] = true;\n  }\n\n  function findEscrowAddr(address _sender, address _receiver)  \n    view\n    public\n    returns (address payable _escrow)\n  {\n    if(EscrowAddr[_sender ][_receiver]!=address(0x0)){\n      _escrow = EscrowAddr[_sender][_receiver];\n    }else{\n      _escrow = EscrowAddr[_receiver][_sender];\n    }\n  }\n\n  function createEscrow(address _receiver)//, uint _value) \n    public\n    onlyMember()\n    escrowDoesNotExist(msg.sender,_receiver)\n    returns(address payable _escrowAddr){\n    // Escrow has 3 participants and all must sign\n    // include this contract as onwer of ESCROW\n    // confirms that this cpnytract is party in the escrow (can submit TXs)\n    uint _required = 3;\n    address[] memory _owners = new address[](3);\n    _owners[0]= msg.sender;\n    _owners[1]=_receiver;\n    _owners[2]= address(this);\n\n    _escrowAddr = address(MultiSigWalletFactory(factory_addr).create(_owners, _required));\n    EscrowAddr[msg.sender][_receiver] = _escrowAddr;\n    escrowList[msg.sender].push(_escrowAddr);\n    escrowList[_receiver].push(_escrowAddr);\n  }\n\n\n\n  function addCarbon(uint carbon) public onlyMember(){\n    require(carbon>0, 'Can only add positive carbon');\n    wallet[msg.sender].carbon += int(carbon);\n    totalCarbon += carbon;\n    if(stamperRegistry[msg.sender]!=address(0x0)){\n      totalStamperCarbon += carbon;\n    }\n  }\n  // receiver: counterparty to the offer\n  // carbon: signed integer carbon transfer, (+) for send gold to receiver, (-) to request gold transfer to sender\n  // gold: signed integer gold transfer, (+) for send gold to receiver, (-) to request gold transfer to sender\n  function createTransaction(address _receiver,int _carbon, int _gold)\n    public \n    payable\n    onlyMember()\n    escrowExists(msg.sender, _receiver)\n    sufficientGold(msg.sender,_receiver, _gold) // must have sufficient gold to submit transfer\n  {\n    if(_gold>0){\n      wallet[msg.sender].gold -= uint(_gold); //remove (+) gold transfer from sender wallet\n    }\n    if(_carbon==0 && _gold>0){\n      // send the gold now if it is not combined with a debt transfer request \n      wallet[_receiver].gold += uint(_gold);\n    }else{  \n      // Store transaction in Escrow\n      address payable _escrowAddr = findEscrowAddr(msg.sender, _receiver);\n      uint _txID;\n      for (uint i=0; i<=escrowTxCount[_escrowAddr]; i++){\n        if(!escrowTx[_escrowAddr][i].exists){\n          //if escrow tx does not exist set index as txID\n          _txID = i;\n          break;\n        }\n      }\n      if (_txID == escrowTxCount[_escrowAddr]){\n        // increment the TX count if necessary\n        escrowTxCount[_escrowAddr]++;\n      } \n      \n      EscrowTxAttr storage _tx=escrowTx[_escrowAddr][_txID];\n      _tx.exists = true;\n      _tx.issuer = msg.sender;\n      //_tx.receiver = _receiver;\n      _tx.gold = _gold; // store gold transfer for reference before approval by receiver\n      _tx.carbon = _carbon; // store carbon transfer for reference before approval by receiver\n      // encoded function for offerAccept to be triggered by multisig escrow wallet\n      bytes memory _data = abi.encodeWithSignature(\"acceptTransaction(address,address,uint256,int256,int256)\",msg.sender,_receiver,_txID,_carbon,_gold); \n      //address(this).call(_data);\n      uint _value = msg.value;\n      _tx.multisig_tx_id = MultiSigWallet(_escrowAddr).submitTransaction(address(this),_value, _data);\n    }\n  }\n\n\n  //TO-DO add\n  function acceptTransaction(address _sender, address _receiver, uint _txID, int _carbon, int _gold) \n    external \n    payable\n    onlyEscrow(_sender,_receiver)\n    escrowTxExists(_sender,_receiver,_txID)\n  {\n    address _escrowAddr = findEscrowAddr(_sender,_receiver);\n    EscrowTxAttr storage _tx = escrowTx[_escrowAddr][_txID];\n    // secruity cehck\n    //function call should match vlalues stored in Escrow Transaction\n    //if we store all data in encodedFuncitonCall we dont need this\n    require(_tx.exists == true, 'This transaction has been rejected');\n    require(_carbon == _tx.carbon, 'The carbon transfer values do not match');\n    require(_gold == _tx.gold, 'The gold transfer values do not match');\n    require(_gold>=0 || (_gold<0 && uint(_gold)<=wallet[_receiver].gold), \"Not enough gold to fullfill sender's ask\");\n\n    wallet[_sender].carbon -= _carbon;\n    wallet[_receiver].carbon += _carbon;\n    \n    if(_tx.gold>0){// if sender has added gold to escrow\n      wallet[_receiver].gold += uint(_gold); //pull gold from escrow, push to receiver\n    }else if(_tx.gold<0){ // if sender is requesting gold transfer\n      wallet[_sender].gold += uint(_gold); //push gold to sender\n      wallet[_receiver].gold -= uint(_gold); //push gold to sender\n    }\n    // What to do if a payment is sent to this funciton\n    //send funds to _sender ??\n    //_sender.call.value(msg.value)(\"\");\n\n    updateStamperTotals(_sender,_receiver,_gold,_carbon);\n\n    // Delete the escrow?\n    delete escrowTx[_escrowAddr][_txID];\n    for (uint i=escrowTxCount[_escrowAddr]; i>0; i--)\n      //update TxCount if necessary\n      if(escrowTx[_escrowAddr][i].exists){\n        break;\n      }else{\n        escrowTxCount[_escrowAddr]=i-1;\n      }\n  }\n\n  function rejectTransaction(address _counterparty, uint _txID) \n    public\n    onlyMember()\n    escrowTxExists(msg.sender,_counterparty,_txID)\n  {\n    address payable _escrowAddr = findEscrowAddr(msg.sender, _counterparty);\n    MultiSigWallet(_escrowAddr).revokeConfirmation(_txID);\n    EscrowTxAttr storage _tx = escrowTx[_escrowAddr][_txID];\n    if(_tx.gold>0){// if sender has added gold to escrow\n      wallet[_tx.issuer].gold += uint(_tx.gold); //return gold in escrow to issuers\n    }\n    delete escrowTx[_escrowAddr][_txID];\n  }\n  \n\n  function addStamper(address target, uint stamprate, uint minpmt) \n    public \n    // only contract governors can nominate stampers\n    onlyGovernor()\n    stamperDoesNotExsit(target)\n\n  {\n    Stamper stamper = new Stamper(target,msg.sender,stamprate,minpmt);\n\n    stamperRegistry[target] = address(stamper);\n    stamperIndex[stamperCount++]=target;\n    //sumTokens();\n    uint _carbon; //carbon to add to totalStamperCarbon\n    if(wallet[target].carbon>0){\n      _carbon = uint(wallet[target].carbon); // only pass positive carbon \n    }\n    totalStamperCarbon += uint(_carbon);\n    totalStamperGold += wallet[target].gold;\n  }\n\n  function updateGold(uint stamps, address stamper)\n    public \n    onlyStamperContract(stamper)\n  {\n    // Some points to address\n    // Block timestamp can be manipulated by miners within 900s\n    // Make sure that this deos not distort the stamping rate within am acceptable tollerance\n    // Need to set other stamp constriants (total stamps based on auditing, or other metrics)\n    uint carbon;// new carbon generated by stamper if stamps exceed carbons)\n    wallet[stamper].gold += stamps;\n    if(wallet[stamper].carbon>int(stamps)){\n      wallet[stamper].carbon -= int(stamps);\n    }else{\n      // Keeps stamper carbon from going negative\n      // Stamper wallet can not have negative debt after stamping ...(?)\n      wallet[stamper].carbon = 0;\n      totalCarbon += stamps;\n      // stamper creates new _carbon if it stamps more than it has carbon\n      carbon = stamps - uint(wallet[stamper].carbon);\n    } \n\n    totalGold += stamps;\n    totalCarbon += carbon - stamps;\n    totalStamperGold += stamps;\n    totalStamperCarbon += carbon - stamps;\n  }\n\n  function updateStamperTotals(address _sender, address _receiver, int _carbon, int _gold) internal{\n    //why do we need to update/store these???\n    int8 _sign; // defines direction of carbon/gold movements\n    bool _stamper=false;\n    if(stamperRegistry[_sender]!= address(0x0)){\n      _stamper = true;\n      _sign = 1; // if stamper is sender values are sent out ( substract )\n    }if(stamperRegistry[_receiver]!= address(0x0)){\n      _stamper = !_stamper; //if both sender and receiver are stampers do nothing (no change in total gold/carbon balance)\n      _sign = -1; // if stamper is receiver values are coming in (add)\n    }\n    // note when carbon/gold are negative these are asks by the sender and direction if flipped\n    if(_stamper){\n      totalStamperCarbon -= uint(_sign*_carbon);\n      totalStamperGold -= uint(_sign*_gold);\n    }\n  }\n\n  // Fn to get the external multisig transaciton ID for an escrow transaction \n  // created in this contract \n  function transactionData(address _escrowAddr, uint _txID)\n    public\n    view\n    returns(uint)\n  {\n    return(escrowTx[_escrowAddr][_txID].multisig_tx_id);\n  }\n  // Function to return all existing escrow txs.\n  function getTransactionIds(address _escrowAddr, uint from, uint to)\n      public\n      view\n      returns (uint[] memory _transactionIds)\n  {\n      uint[] memory transactionIdsTemp = new uint[](escrowTxCount[_escrowAddr]);\n      uint count = 0;\n      uint i;\n      \n      for (i=0; i<escrowTxCount[_escrowAddr]; i++)\n          if ( escrowTx[_escrowAddr][i].exists )\n          {\n              transactionIdsTemp[count] = i;\n              count += 1;\n          }\n      _transactionIds = new uint[](to - from);\n      for (i=from; i<to; i++)\n          _transactionIds[i - from] = transactionIdsTemp[i];\n  }\n  \n/*\n  function sumTokens() external view returns(uint, uint, uint, uint) {  //Generates general metrics for the system and stamper coin levels, might be pretty inefficient\n    // Commented this out as it would cost too much gas (now just a view function)\n    // instead wee update totalCarbon totalGold, etc... every time a relevant transaciton is sumitted/confirmed\n    uint totalCarbonx = 0;\n    uint totalGoldx = 0;\n    uint totalStamperCarbonx = 0;\n    uint totalStamperGoldx = 0;\n    for(uint i=0;i<=userCount;i++)\n      {\n      totalCarbonx += uint(wallet[userIndex[i]].carbon);\n      totalGoldx += wallet[userIndex[i]].gold;\n      }\n    for(uint i=0;i<=stamperCount;i++)\n      {\n      totalStamperCarbonx += uint(wallet[stamperIndex[i]].carbon);\n      totalStamperGoldx += wallet[stamperIndex[i]].gold;\n      }\n    return (totalCarbonx,totalGoldx,totalStamperCarbonx,totalStamperGoldx);\n  }\n*/\n  function changeOwner(address _newOwner)\n    onlyOwner()\n    public\n  {\n    owner = _newOwner;\n  }\n  function killContract()\n    onlyOwner()\n    public\n  {\n    selfdestruct(tx.origin);\n  }\n}\n",
  "sourcePath": "/Users/bertrandrioux/github.com/brioux/CAT/contracts/CarboTag.sol",
  "compiler": {
    "name": "solc",
    "version": "0.5.12+commit.7709ece9.Linux.g++"
  },
  "schemaVersion": "3.4.0",
  "updatedAt": "2021-05-16T09:31:15.402Z",
  "devdoc": {
    "methods": {}
  },
  "userdoc": {
    "methods": {}
  }
}