{
  "contractName": "Stamper",
  "abi": [
    {
      "inputs": [
        {
          "internalType": "address",
          "name": "target",
          "type": "address"
        },
        {
          "internalType": "address",
          "name": "nominator",
          "type": "address"
        },
        {
          "internalType": "uint256",
          "name": "rate",
          "type": "uint256"
        },
        {
          "internalType": "uint256",
          "name": "minpmt",
          "type": "uint256"
        }
      ],
      "payable": false,
      "stateMutability": "nonpayable",
      "type": "constructor"
    },
    {
      "constant": true,
      "inputs": [
        {
          "internalType": "uint256",
          "name": "",
          "type": "uint256"
        }
      ],
      "name": "governorVote",
      "outputs": [
        {
          "internalType": "bool",
          "name": "",
          "type": "bool"
        }
      ],
      "payable": false,
      "stateMutability": "view",
      "type": "function"
    },
    {
      "constant": true,
      "inputs": [],
      "name": "governorVoteCount",
      "outputs": [
        {
          "internalType": "uint256",
          "name": "",
          "type": "uint256"
        }
      ],
      "payable": false,
      "stateMutability": "view",
      "type": "function"
    },
    {
      "constant": true,
      "inputs": [
        {
          "internalType": "address",
          "name": "",
          "type": "address"
        }
      ],
      "name": "governorVoteIndex",
      "outputs": [
        {
          "internalType": "uint256",
          "name": "",
          "type": "uint256"
        }
      ],
      "payable": false,
      "stateMutability": "view",
      "type": "function"
    },
    {
      "constant": true,
      "inputs": [
        {
          "internalType": "uint256",
          "name": "",
          "type": "uint256"
        }
      ],
      "name": "proposal",
      "outputs": [
        {
          "internalType": "uint256",
          "name": "rate",
          "type": "uint256"
        },
        {
          "internalType": "address",
          "name": "origin",
          "type": "address"
        },
        {
          "internalType": "uint256",
          "name": "timeApproved",
          "type": "uint256"
        },
        {
          "internalType": "uint256",
          "name": "yayCount",
          "type": "uint256"
        },
        {
          "internalType": "uint256",
          "name": "nayCount",
          "type": "uint256"
        }
      ],
      "payable": false,
      "stateMutability": "view",
      "type": "function"
    },
    {
      "constant": true,
      "inputs": [],
      "name": "proposalCount",
      "outputs": [
        {
          "internalType": "uint256",
          "name": "",
          "type": "uint256"
        }
      ],
      "payable": false,
      "stateMutability": "view",
      "type": "function"
    },
    {
      "constant": true,
      "inputs": [
        {
          "internalType": "uint256",
          "name": "",
          "type": "uint256"
        },
        {
          "internalType": "uint256",
          "name": "",
          "type": "uint256"
        }
      ],
      "name": "proposalVote",
      "outputs": [
        {
          "internalType": "bool",
          "name": "",
          "type": "bool"
        }
      ],
      "payable": false,
      "stateMutability": "view",
      "type": "function"
    },
    {
      "constant": true,
      "inputs": [
        {
          "internalType": "uint256",
          "name": "",
          "type": "uint256"
        }
      ],
      "name": "proposalVoteCount",
      "outputs": [
        {
          "internalType": "uint256",
          "name": "",
          "type": "uint256"
        }
      ],
      "payable": false,
      "stateMutability": "view",
      "type": "function"
    },
    {
      "constant": true,
      "inputs": [
        {
          "internalType": "uint256",
          "name": "",
          "type": "uint256"
        },
        {
          "internalType": "address",
          "name": "",
          "type": "address"
        }
      ],
      "name": "proposalVoteIndex",
      "outputs": [
        {
          "internalType": "uint256",
          "name": "",
          "type": "uint256"
        }
      ],
      "payable": false,
      "stateMutability": "view",
      "type": "function"
    },
    {
      "constant": true,
      "inputs": [],
      "name": "publicVoteCount",
      "outputs": [
        {
          "internalType": "int256",
          "name": "",
          "type": "int256"
        }
      ],
      "payable": false,
      "stateMutability": "view",
      "type": "function"
    },
    {
      "constant": true,
      "inputs": [],
      "name": "stamper",
      "outputs": [
        {
          "internalType": "address",
          "name": "owner",
          "type": "address"
        },
        {
          "internalType": "address payable",
          "name": "parent",
          "type": "address"
        },
        {
          "internalType": "address",
          "name": "nominator",
          "type": "address"
        },
        {
          "internalType": "bool",
          "name": "active",
          "type": "bool"
        },
        {
          "internalType": "uint256",
          "name": "rate",
          "type": "uint256"
        },
        {
          "internalType": "uint256",
          "name": "minpmt",
          "type": "uint256"
        },
        {
          "internalType": "uint256",
          "name": "last",
          "type": "uint256"
        },
        {
          "internalType": "uint256",
          "name": "stamps",
          "type": "uint256"
        },
        {
          "internalType": "uint256",
          "name": "yayCount",
          "type": "uint256"
        },
        {
          "internalType": "uint256",
          "name": "nayCount",
          "type": "uint256"
        }
      ],
      "payable": false,
      "stateMutability": "view",
      "type": "function"
    },
    {
      "constant": false,
      "inputs": [
        {
          "internalType": "bool",
          "name": "_vote",
          "type": "bool"
        }
      ],
      "name": "vote",
      "outputs": [],
      "payable": false,
      "stateMutability": "nonpayable",
      "type": "function"
    },
    {
      "constant": true,
      "inputs": [],
      "name": "countGovernorVotes",
      "outputs": [
        {
          "internalType": "uint256",
          "name": "yay",
          "type": "uint256"
        },
        {
          "internalType": "uint256",
          "name": "nay",
          "type": "uint256"
        }
      ],
      "payable": false,
      "stateMutability": "view",
      "type": "function"
    },
    {
      "constant": true,
      "inputs": [
        {
          "internalType": "uint256",
          "name": "_proposal",
          "type": "uint256"
        }
      ],
      "name": "countProposalVotes",
      "outputs": [
        {
          "internalType": "uint256",
          "name": "yay",
          "type": "uint256"
        },
        {
          "internalType": "uint256",
          "name": "nay",
          "type": "uint256"
        }
      ],
      "payable": false,
      "stateMutability": "view",
      "type": "function"
    },
    {
      "constant": false,
      "inputs": [
        {
          "internalType": "uint256",
          "name": "_rate",
          "type": "uint256"
        }
      ],
      "name": "proposeStamperRate",
      "outputs": [],
      "payable": false,
      "stateMutability": "nonpayable",
      "type": "function"
    },
    {
      "constant": false,
      "inputs": [
        {
          "internalType": "uint256",
          "name": "_proposal",
          "type": "uint256"
        },
        {
          "internalType": "bool",
          "name": "_vote",
          "type": "bool"
        }
      ],
      "name": "voteForProposal",
      "outputs": [],
      "payable": false,
      "stateMutability": "nonpayable",
      "type": "function"
    },
    {
      "constant": false,
      "inputs": [],
      "name": "stamp",
      "outputs": [],
      "payable": false,
      "stateMutability": "nonpayable",
      "type": "function"
    },
    {
      "constant": false,
      "inputs": [
        {
          "internalType": "uint256",
          "name": "minpmt",
          "type": "uint256"
        }
      ],
      "name": "stampPmtAdjust",
      "outputs": [],
      "payable": false,
      "stateMutability": "nonpayable",
      "type": "function"
    }
  ],
  "bytecode": "0x608060405234801561001057600080fd5b50604051611b3e380380611b3e8339818101604052608081101561003357600080fd5b8101908080519060200190929190805190602001909291908051906020019092919080519060200190929190505050836000800160006101000a81548173ffffffffffffffffffffffffffffffffffffffff021916908373ffffffffffffffffffffffffffffffffffffffff16021790555033600060010160006101000a81548173ffffffffffffffffffffffffffffffffffffffff021916908373ffffffffffffffffffffffffffffffffffffffff16021790555082600060020160006101000a81548173ffffffffffffffffffffffffffffffffffffffff021916908373ffffffffffffffffffffffffffffffffffffffff16021790555081600060030181905550806000600401819055504260006005018190555061015b838361016460201b60201c565b50505050610400565b6000600e6000600f54815260200190815260200160002060003373ffffffffffffffffffffffffffffffffffffffff1673ffffffffffffffffffffffffffffffffffffffff1681526020019081526020016000206000815460010191905081905590506001600d6000600f548152602001908152602001600020600083815260200190815260200160002060006101000a81548160ff0219169083151502179055508160116000600f548152602001908152602001600020600001819055508260116000600f54815260200190815260200160002060010160006101000a81548173ffffffffffffffffffffffffffffffffffffffff021916908373ffffffffffffffffffffffffffffffffffffffff16021790555061029c600f6000815480929190600101919050558460016102a160201b60201c565b505050565b6000600e600085815260200190815260200160002060008473ffffffffffffffffffffffffffffffffffffffff1673ffffffffffffffffffffffffffffffffffffffff16815260200190815260200160002054141561036f576010600084815260200190815260200160002060008154600101919050819055600e600085815260200190815260200160002060008473ffffffffffffffffffffffffffffffffffffffff1673ffffffffffffffffffffffffffffffffffffffff168152602001908152602001600020819055505b80600d60008581526020019081526020016000206000600e600087815260200190815260200160002060008673ffffffffffffffffffffffffffffffffffffffff1673ffffffffffffffffffffffffffffffffffffffff16815260200190815260200160002054815260200190815260200160002060006101000a81548160ff021916908315150217905550505050565b61172f8061040f6000396000f3fe608060405234801561001057600080fd5b506004361061010b5760003560e01c80637f803376116100a2578063c85e07b911610071578063c85e07b9146104ef578063da35c664146104f9578063ee45dca214610517578063fc0de60e14610535578063fe2ebbac146105635761010b565b80637f803376146103a35780639c7264e4146103fb578063a22e00501461045d578063a9a79fdf1461049f5761010b565b8063646fba81116100de578063646fba81146102315780636505e8e8146102565780636cfb4321146102905780636d61d2b6146102be5761010b565b806305457f421461011057806330326c17146101595780634a0da5b8146101e35780634b9f5c9814610201575b600080fd5b61013c6004803603602081101561012657600080fd5b81019080803590602001909291905050506105a9565b604051808381526020018281526020019250505060405180910390f35b6101856004803603602081101561016f57600080fd5b810190808035906020019092919050505061062d565b604051808681526020018573ffffffffffffffffffffffffffffffffffffffff1673ffffffffffffffffffffffffffffffffffffffff1681526020018481526020018381526020018281526020019550505050505060405180910390f35b6101eb610683565b6040518082815260200191505060405180910390f35b61022f6004803603602081101561021757600080fd5b81019080803515159060200190929190505050610689565b005b610239610bf7565b604051808381526020018281526020019250505060405180910390f35b61028e6004803603604081101561026c57600080fd5b8101908080359060200190929190803515159060200190929190505050610c58565b005b6102bc600480360360208110156102a657600080fd5b8101908080359060200190929190505050610e89565b005b6102c6610f3e565b604051808b73ffffffffffffffffffffffffffffffffffffffff1673ffffffffffffffffffffffffffffffffffffffff1681526020018a73ffffffffffffffffffffffffffffffffffffffff1673ffffffffffffffffffffffffffffffffffffffff1681526020018973ffffffffffffffffffffffffffffffffffffffff1673ffffffffffffffffffffffffffffffffffffffff168152602001881515151581526020018781526020018681526020018581526020018481526020018381526020018281526020019a505050505050505050505060405180910390f35b6103e5600480360360208110156103b957600080fd5b81019080803573ffffffffffffffffffffffffffffffffffffffff169060200190929190505050610fed565b6040518082815260200191505060405180910390f35b6104476004803603604081101561041157600080fd5b8101908080359060200190929190803573ffffffffffffffffffffffffffffffffffffffff169060200190929190505050611005565b6040518082815260200191505060405180910390f35b6104896004803603602081101561047357600080fd5b810190808035906020019092919050505061102a565b6040518082815260200191505060405180910390f35b6104d5600480360360408110156104b557600080fd5b810190808035906020019092919080359060200190929190505050611042565b604051808215151515815260200191505060405180910390f35b6104f7611071565b005b610501611230565b6040518082815260200191505060405180910390f35b61051f611236565b6040518082815260200191505060405180910390f35b6105616004803603602081101561054b57600080fd5b810190808035906020019092919050505061123c565b005b61058f6004803603602081101561057957600080fd5b8101908080359060200190929190505050611398565b604051808215151515815260200191505060405180910390f35b6000806000600190505b6010600085815260200190815260200160002054811161062757600d6000858152602001908152602001600020600082815260200190815260200160002060009054906101000a900460ff161561061157828060010193505061061a565b81806001019250505b80806001019150506105b3565b50915091565b60116020528060005260406000206000915090508060000154908060010160009054906101000a900473ffffffffffffffffffffffffffffffffffffffff16908060020154908060030154908060040154905085565b600c5481565b3373ffffffffffffffffffffffffffffffffffffffff166000800160009054906101000a900473ffffffffffffffffffffffffffffffffffffffff1673ffffffffffffffffffffffffffffffffffffffff161415610732576040517f08c379a00000000000000000000000000000000000000000000000000000000081526004018080602001828103825260218152602001806116da6021913960400191505060405180910390fd5b60008060010160009054906101000a900473ffffffffffffffffffffffffffffffffffffffff1673ffffffffffffffffffffffffffffffffffffffff1663b2dd5c07336040518263ffffffff1660e01b8152600401808273ffffffffffffffffffffffffffffffffffffffff1673ffffffffffffffffffffffffffffffffffffffff16815260200191505060206040518083038186803b1580156107d557600080fd5b505afa1580156107e9573d6000803e3d6000fd5b505050506040513d60208110156107ff57600080fd5b81019080805190602001909291905050509050600115158115151461086f576040517f08c379a000000000000000000000000000000000000000000000000000000000815260040180806020018281038252603f815260200180611679603f913960400191505060405180910390fd5b816000600b60003373ffffffffffffffffffffffffffffffffffffffff1673ffffffffffffffffffffffffffffffffffffffff1681526020019081526020016000205414806109215750600a6000600b60003373ffffffffffffffffffffffffffffffffffffffff1673ffffffffffffffffffffffffffffffffffffffff16815260200190815260200160002054815260200190815260200160002060009054906101000a900460ff16151581151514155b61096e576040517f08c379a0000000000000000000000000000000000000000000000000000000008152600401808060200182810382526000815260200160200191505060405180910390fd5b600060010160009054906101000a900473ffffffffffffffffffffffffffffffffffffffff1673ffffffffffffffffffffffffffffffffffffffff166370ec42e8336040518263ffffffff1660e01b8152600401808273ffffffffffffffffffffffffffffffffffffffff1673ffffffffffffffffffffffffffffffffffffffff16815260200191505060206040518083038186803b158015610a1057600080fd5b505afa158015610a24573d6000803e3d6000fd5b505050506040513d6020811015610a3a57600080fd5b810190808051906020019092919050505015610bc0576000600b60003373ffffffffffffffffffffffffffffffffffffffff1673ffffffffffffffffffffffffffffffffffffffff168152602001908152602001600020541415610aeb57600c60008154600101919050819055600b60003373ffffffffffffffffffffffffffffffffffffffff1673ffffffffffffffffffffffffffffffffffffffff168152602001908152602001600020819055505b82600a6000600b60003373ffffffffffffffffffffffffffffffffffffffff1673ffffffffffffffffffffffffffffffffffffffff16815260200190815260200160002054815260200190815260200160002060006101000a81548160ff021916908315150217905550600080610b60610bf7565b915091508082118015610b735750600682115b15610b9b576001600060020160146101000a81548160ff021916908315150217905550610bb9565b60008060020160146101000a81548160ff0219169083151502179055505b5050610bf2565b8215610bdd57600960008154809291906001019190505550610bf1565b600960008154809291906001900391905055505b5b505050565b6000806000600190505b600c548111610c5357600a600082815260200190815260200160002060009054906101000a900460ff1615610c3d578280600101935050610c46565b81806001019250505b8080600101915050610c01565b509091565b600060010160009054906101000a900473ffffffffffffffffffffffffffffffffffffffff1673ffffffffffffffffffffffffffffffffffffffff166370ec42e8336040518263ffffffff1660e01b8152600401808273ffffffffffffffffffffffffffffffffffffffff1673ffffffffffffffffffffffffffffffffffffffff16815260200191505060206040518083038186803b158015610cfa57600080fd5b505afa158015610d0e573d6000803e3d6000fd5b505050506040513d6020811015610d2457600080fd5b8101908080519060200190929190505050610da7576040517f08c379a000000000000000000000000000000000000000000000000000000000815260040180806020018281038252601a8152602001807f4f6e6c7920476f7665726e6f72732063616e20646f207468617400000000000081525060200191505060405180910390fd5b816000601160008381526020019081526020016000206002015414610e17576040517f08c379a00000000000000000000000000000000000000000000000000000000081526004018080602001828103825260228152602001806116b86022913960400191505060405180910390fd5b610e228333846113b8565b600080610e2e856105a9565b915091508082118015610e415750600682115b15610e825742601160008781526020019081526020016000206002018190555060116000868152602001908152602001600020600001546000600301819055505b5050505050565b3373ffffffffffffffffffffffffffffffffffffffff166000800160009054906101000a900473ffffffffffffffffffffffffffffffffffffffff1673ffffffffffffffffffffffffffffffffffffffff1614610f31576040517f08c379a000000000000000000000000000000000000000000000000000000000815260040180806020018281038252602a81526020018061164f602a913960400191505060405180910390fd5b8060006004018190555050565b60008060000160009054906101000a900473ffffffffffffffffffffffffffffffffffffffff16908060010160009054906101000a900473ffffffffffffffffffffffffffffffffffffffff16908060020160009054906101000a900473ffffffffffffffffffffffffffffffffffffffff16908060020160149054906101000a900460ff1690806003015490806004015490806005015490806006015490806007015490806008015490508a565b600b6020528060005260406000206000915090505481565b600e602052816000526040600020602052806000526040600020600091509150505481565b60106020528060005260406000206000915090505481565b600d6020528160005260406000206020528060005260406000206000915091509054906101000a900460ff1681565b3373ffffffffffffffffffffffffffffffffffffffff166000800160009054906101000a900473ffffffffffffffffffffffffffffffffffffffff1673ffffffffffffffffffffffffffffffffffffffff1614611119576040517f08c379a000000000000000000000000000000000000000000000000000000000815260040180806020018281038252602a81526020018061164f602a913960400191505060405180910390fd5b6000806003015460006005015442038161112f57fe5b04905080600060060160008282540192505081905550600060010160009054906101000a900473ffffffffffffffffffffffffffffffffffffffff1673ffffffffffffffffffffffffffffffffffffffff1663341abf49826000800160009054906101000a900473ffffffffffffffffffffffffffffffffffffffff166040518363ffffffff1660e01b8152600401808381526020018273ffffffffffffffffffffffffffffffffffffffff1673ffffffffffffffffffffffffffffffffffffffff16815260200192505050600060405180830381600087803b15801561121557600080fd5b505af1158015611229573d6000803e3d6000fd5b5050505050565b600f5481565b60095481565b600060010160009054906101000a900473ffffffffffffffffffffffffffffffffffffffff1673ffffffffffffffffffffffffffffffffffffffff166370ec42e8336040518263ffffffff1660e01b8152600401808273ffffffffffffffffffffffffffffffffffffffff1673ffffffffffffffffffffffffffffffffffffffff16815260200191505060206040518083038186803b1580156112de57600080fd5b505afa1580156112f2573d6000803e3d6000fd5b505050506040513d602081101561130857600080fd5b810190808051906020019092919050505061138b576040517f08c379a000000000000000000000000000000000000000000000000000000000815260040180806020018281038252601a8152602001807f4f6e6c7920476f7665726e6f72732063616e20646f207468617400000000000081525060200191505060405180910390fd5b6113953382611517565b50565b600a6020528060005260406000206000915054906101000a900460ff1681565b6000600e600085815260200190815260200160002060008473ffffffffffffffffffffffffffffffffffffffff1673ffffffffffffffffffffffffffffffffffffffff168152602001908152602001600020541415611486576010600084815260200190815260200160002060008154600101919050819055600e600085815260200190815260200160002060008473ffffffffffffffffffffffffffffffffffffffff1673ffffffffffffffffffffffffffffffffffffffff168152602001908152602001600020819055505b80600d60008581526020019081526020016000206000600e600087815260200190815260200160002060008673ffffffffffffffffffffffffffffffffffffffff1673ffffffffffffffffffffffffffffffffffffffff16815260200190815260200160002054815260200190815260200160002060006101000a81548160ff021916908315150217905550505050565b6000600e6000600f54815260200190815260200160002060003373ffffffffffffffffffffffffffffffffffffffff1673ffffffffffffffffffffffffffffffffffffffff1681526020019081526020016000206000815460010191905081905590506001600d6000600f548152602001908152602001600020600083815260200190815260200160002060006101000a81548160ff0219169083151502179055508160116000600f548152602001908152602001600020600001819055508260116000600f54815260200190815260200160002060010160006101000a81548173ffffffffffffffffffffffffffffffffffffffff021916908373ffffffffffffffffffffffffffffffffffffffff160217905550611649600f6000815480929190600101919050558460016113b8565b50505056fe4f6e6c7920746865207374616d7065722063616e2061636365737320746869732066756e6374696f6e2e596f7520617265206e6f74206120726567697374657265642075736572206f662074686520706172656e74206163636f756e74696e6720636f6e747261637450726f706f73616c2068617320616c7265616479206265656e20617070726f766564546865207374616d7065722063616e206e6f742063616c6c207468697320666e2ea265627a7a723158209b3df6c57f368b59bdd7dd7e514eed4fad14400cf11af0181d5ebd470a43082764736f6c634300050c0032",
  "source": "pragma solidity ^0.5.12;\nimport \"./CarboTag.sol\";\n\ncontract Stamper {\n\n  attributes public stamper;\n\n  struct attributes {\n    address owner;\n    address payable parent; // parent address that created this contract (this should be the carboTag contract)\n    address nominator;\n    bool active;   //Is stamper active?\n    uint rate; //Rate of stamping speed\n    uint minpmt;    //Minimum accepted payment\n    uint last;  //time of last stamping\n    uint stamps;\n    uint yayCount; //number of yes votes\n    uint nayCount; //number of no votes\n  }\n  // currently we do not track public vote addresses\n  int public publicVoteCount;  //public up/down votes\n  \n  mapping(uint => bool) public governorVote;     //governor votes\n  mapping(address => uint) public governorVoteIndex;\n  uint public governorVoteCount;\n\n  //Proposal Vote maps propsal index to proposalVoteIndex to vote state\n  mapping(uint => mapping(uint => bool)) public proposalVote;\n  //Proposal Vote maps propsal index to voter address to proposalVote Index\n  mapping(uint => mapping(address => uint)) public proposalVoteIndex;\n  uint public proposalCount;\n  mapping(uint => uint) public proposalVoteCount;\n  mapping(uint => proposalAttr) public proposal;\n\n  struct proposalAttr {\n    uint rate;\n    address origin; // who created this proposal;\n    uint timeApproved;\n    uint yayCount; //number of yes votes\n    uint nayCount; //number of no votes\n  }\n  constructor(address target, address nominator, uint rate, uint minpmt) public {\n    stamper.owner = target;\n    stamper.parent = msg.sender;\n    stamper.nominator = nominator;\n    stamper.rate = rate;\n    stamper.minpmt = minpmt;\n    stamper.last = block.timestamp;\n    incrementProposal(nominator,rate);\n\n  }\n\n  modifier onlyStamper () {  //added some security\n    require(stamper.owner == msg.sender, \"Only the stamper can access this function.\");\n    _;\n  }\n  modifier notStamper () {  //added some security\n    require(stamper.owner != msg.sender, \"The stamper can not call this fn.\");\n    _;\n  }\n  modifier onlyRegisteredWallets(){\n    (bool _registered) = CarboTag(stamper.parent).registered(msg.sender);\n    require(_registered == true, 'You are not a registered user of the parent accounting contract');\n    _;\n  }\n  modifier newGovernorVote(bool _vote){\n    require(governorVoteIndex[msg.sender]==0 || _vote != governorVote[governorVoteIndex[msg.sender]], '');\n    _;\n  }\n  modifier onlyGovernor(){\n    require(CarboTag(stamper.parent).governor(msg.sender), 'Only Governors can do that');\n    _;\n  }\n  modifier notApproved(uint _proposal){\n    require(proposal[_proposal].timeApproved == 0, 'Proposal has already been approved');\n    _;\n  }\n\n\n  function vote(bool _vote)\n    public\n    notStamper()\n    onlyRegisteredWallets()\n    newGovernorVote(_vote)\n  {\n    // governor voting\n    if(CarboTag(stamper.parent).governor(msg.sender)){\n      if(governorVoteIndex[msg.sender] == 0){\n        //start tracking votes from index 1. \n        //index 0 is default value for governors that have not yet voted only\n        governorVoteIndex[msg.sender] = ++governorVoteCount;\n      }\n      governorVote[governorVoteIndex[msg.sender]] = _vote;\n      (uint yay,uint nay) = countGovernorVotes();\n      // if yay greater than nay and yay is at least 7 activate stamper\n      if(yay>nay && yay>6){\n          stamper.active = true;\n      }else{\n        stamper.active = false;\n      }\n    }else{\n      //increment public votes\n      //note that currently public can vote as many times as they see fit\n      // however public votes hold a very minor weight in the final activation process\n      if(_vote){\n        publicVoteCount++;\n      }else{\n        publicVoteCount--;\n      }\n    }\n  }\n\n  function countGovernorVotes()\n    view\n    public\n    returns(uint yay,uint nay)\n  {\n    for(uint i=1;i<=governorVoteCount;i++)\n      if(governorVote[i]){\n        yay ++;\n      }else{\n        nay ++;\n      }\n  }\n  //TODO recounting the total number of votes is computationally expensive (looping)\n  // instead we should store the total number of votes (yay/nay)\n  // and update them conditionally when a new/revised vote is submitted \n  function countProposalVotes(uint _proposal)\n    view\n    public\n    returns(uint yay,uint nay)\n  {\n    for(uint i=1;i<=proposalVoteCount[_proposal];i++)\n      if(proposalVote[_proposal][i]){\n        yay ++;\n      }else{\n        nay ++;\n      }\n  }\n\n  // TODO who controls stamper rate revisions\n  // should these vchanges be subject to vote approval\n  // shoul dcuurent stamper rate have an expiration and require voting renewal\n  // This needs to be developed ...\n  function proposeStamperRate(uint _rate) public onlyGovernor(){\n    incrementProposal(msg.sender,_rate);\n  }\n\n  function incrementProposal(address _voter, uint _rate) internal {\n    uint _index = ++proposalVoteIndex[proposalCount][msg.sender];\n    proposalVote[proposalCount][_index] = true;\n    proposal[proposalCount].rate = _rate;\n    proposal[proposalCount].origin = _voter;\n    setProposalVote(proposalCount++,_voter,true);\n  }\n\n  function voteForProposal(uint _proposal, bool _vote) \n    public \n    onlyGovernor()\n    notApproved(_proposal)\n  {\n    setProposalVote(_proposal,msg.sender,_vote);\n    (uint yay,uint nay) = countProposalVotes(_proposal);\n    // if yay greater than nay and yay is at least 7 activate stamper\n    if(yay>nay && yay>6){\n      proposal[_proposal].timeApproved = block.timestamp;\n      stamper.rate = proposal[_proposal].rate;\n    }\n  }\n\n  function setProposalVote(uint _proposal,address _voter,bool _vote) internal\n  {\n    if(proposalVoteIndex[_proposal][_voter] == 0){\n      //start tracking votes from index 1. \n      //index 0 is default value vote index\n      proposalVoteIndex[_proposal][_voter] = ++proposalVoteCount[_proposal];\n    }\n    proposalVote[_proposal][proposalVoteIndex[_proposal][_voter]] = _vote;\n  }\n\n  function stamp() public \n    onlyStamper()\n  {\n      // Some points to address\n      // Block timestamp can be manipulated by miners within 900s\n      // Make sure that this deos not distort the stamping rate within am acceptable tollerance\n      // Need to set other stamp constriants (total stamps based on auditing, or other metrics)\n\n      uint stamps = (block.timestamp-stamper.last)/stamper.rate;\n      stamper.stamps += stamps; \n      CarboTag(stamper.parent).updateGold(stamps,stamper.owner);\n\n  }\n\n  function stampPmtAdjust(uint minpmt) public onlyStamper(){\n    stamper.minpmt = minpmt;\n  }\n}\n\n",
  "sourcePath": "/Users/bertrandrioux/github.com/brioux/CAT/contracts/Stamper.sol",
  "compiler": {
    "name": "solc",
    "version": "0.5.12+commit.7709ece9.Linux.g++"
  },
  "schemaVersion": "3.4.0",
  "updatedAt": "2021-05-16T09:31:15.426Z",
  "devdoc": {
    "methods": {}
  },
  "userdoc": {
    "methods": {}
  }
}